:02000002D0002C
:1040000000400D00F8570D00000006000C000501EF
:084010000401E80500000000B6
:0440180020540D0023
:10401C0009480A49884208B505D0094A824202D0AB
:10402C00121A01F0B3F90748074A0021121A01F0DD
:10403C00B8F9014808BD00BF40E3032064570D00E8
:10404C00ACE30320ACE30320F0E7032070B500F0F1
:10405C005BFF074C074BE41AA40800251E46A5423B
:10406C0004D056F8253098470135F8E770BD00BFED
:10407C005C570D0024570D0000F01BB808B500F07C
:10408C0025F8BDE8084000F001BF00F031BA00F09F
:10409C002FBA0078B0FA80F0400970470123037002
:1040AC00704710B50446006808B100F021FA2046AC
:1040BC0010BD08B500F068FE4FF4165100F058FE24
:1040CC0000211220BDE8084000F080BF38B5122056
:1040DC001B4C00F08CFF1B4B227818601D464AB914
:1040EC00194B1B68984205DD00F086F8174B1860D9
:1040FC0001232370237813B3134B2A681B689A424D
:10410C001DDA00F079F8124B18600D4B00241C706E
:10411C000E4B1B68C01A0F4B1860031F022B03D8E1
:10412C0000F032FE0C4A05E00938022807D800F0EE
:10413C002BFE0A4A2146BDE8384000F0C0BC38BD11
:10414C00BCE30320B4E3032040E30320CCE30320CF
:10415C00B0E30320B8E3032034540D003A540D00AF
:10416C0010B50A4C00F050F800232360A380A37113
:10417C00238102204FF6FF73638100F03DF9204646
:10418C00034A0449BDE8104000F088BFC0E3032097
:10419C00ACE30320AF400D0008B5024B1B689B68D5
:1041AC00019308BD4802030008B5024B1B681B694C
:1041BC00019308BD4802030008B5024B1B685B69FC
:1041CC00019308BD4802030008B5024B1B685B6CE9
:1041DC00019308BD4802030008B5024B1B689B6C99
:1041EC00019308BD4802030008B5024B1B685B68CD
:1041FC00019308BD1802030008B5024B1B685B69EC
:10420C00019308BD1802030008B5024B1B681B681C
:10421C00019308BD2C02030008B5024B1B685B68B8
:10422C00019308BD2C02030008B5024B1B689B6868
:10423C00019308BD2C02030008B5024B1B681B6BD5
:10424C00019308BD2C02030008B5024B1B681B6AC6
:10425C00019308BD2802030008B5024B1B685B6A7A
:10426C00019308BD2802030008B5024B1B689B6A2A
:10427C00019308BD2802030008B5024B1B68DB6ADA
:10428C00019308BD2802030008B5024B1B681B6B89
:10429C00019308BD2802030008B5024B1B685B6B39
:1042AC00019308BD2802030008B5024B1B681B6C68
:1042BC00019308BD2802030008B5024B1B685B691B
:1042CC00019308BD6402030008B5024B1B689B6890
:1042DC00019308BD6802030008B5024B1B68DB683C
:1042EC00019308BD6802030008B5024B1B68DB692B
:1042FC00019308BD3002030008B5024B1B681B6A12
:10430C00019308BD3002030008B5024B1B681B6803
:10431C00019308BD3C02030008B5024B1B68DB6827
:10432C00019308BD3C02030008B5024B1B681B69D6
:10433C00019308BD3C02030008B5024B1B685B6986
:10434C00019308BD3C02030008B5024B1B689B6936
:10435C00019308BD3C02030008B5024B1B68DB69E6
:10436C00019308BD3C02030008B5024B1B681B6A95
:10437C00019308BD3C02030008B5024B1B689B6A05
:10438C00019308BD3C02030008B5024B1B681B6877
:10439C00019308BD4C02030008B5024B1B685B6817
:1043AC00019308BD4C02030008B5024B1B681B6946
:1043BC00019308BD4C02030008B5024B1B685B69F6
:1043CC00019308BD4C02030008B5024B1B689B69A6
:1043DC00019308BD4C02030008B5024B1B68DB6956
:1043EC00019308BD4C02030008B5024B1B681B6A05
:1043FC00019308BD4C02030008B5024B1B685B68B7
:10440C00019308BD2002030008B5034B1B68D3F8C9
:10441C008830019308BD00002002030008B5034B4F
:10442C001B68D3F89430019308BD000020020300F0
:10443C0008B5024B1B68DB6B019308BD44020300FB
:10444C0008B5024B1B685B68019308BD4002030072
:10445C0008B5024B1B689B68019308BD4002030022
:10446C0008B5024B1B68DB68019308BD40020300D2
:10447C0008B5024B1B681B69019308BD4002030081
:10448C0008B5024B1B685B69019308BD4002030031
:10449C0008B5024B1B689B69019308BD40020300E1
:1044AC0008B5024B1B68DB69019308BD4002030091
:1044BC0008B5024B1B681B6A019308BD4002030040
:1044CC0008B5024B1B681B6B019308BD400203002F
:1044DC0008B5024B1B685B6B019308BD40020300DF
:1044EC0008B5024B1B681B68019308BD1C02030036
:1044FC0008B5024B1B685B68019308BD1C020300E6
:10450C0008B5024B1B685B6A019308BD1C020300D3
:10451C0010B50446006808B1FFF75EFE204610BDDA
:10452C0010B5064C002320462360FFF74DFE2046B5
:10453C00034A0449BDE8104000F0B0BDD0E30320AD
:10454C00ACE303201D450D0010B58368044613B180
:10455C00032201469847204610BD002211464068B0
:10456C00FFF7A6BF002211464068FFF7B1BF00223B
:10457C004068FFF7A5BF002281F001014068FFF7FA
:10458C008FBF00231A4619464068FFF781BF0023EE
:10459C001A4619464068FFF773BF0022114640685F
:1045AC00FFF766BF002211464068FFF751BF00229B
:1045BC0002214068FFF754BF00231A464068FFF7FA
:1045CC003FBF0000024B03225A60024A1A60704738
:1045DC00D4E3032048540D007047F8B50646154641
:1045EC000C468F18BC4206D0336814F8011B9B682C
:1045FC0030469847F6E72846F8BD0022007CFFF7C6
:10460C0023BE0021007CFFF727BE0021007CFFF7B2
:10461C002BBE0021007CFFF72FBE0021007CFFF792
:10462C0033BE10B51421044600F03DFD204610BDEC
:10463C0010B50446002363604FF47A73A360044BF7
:10464C002174084623601146FFF72EFE204610BD4C
:10465C007C540D000021007CFFF71EBE704710B586
:10466C001821044600F01FFD204610BDF0B5037D57
:10467C00062B8DB00E4600F104074FF0000402D05B
:10468C0000F1080518E00CAD394605F8304D2F2324
:10469C002A460A20FFF710FE284600F0B3FE3368C6
:1046AC000246DB682946304698470FE024B12E219C
:1046BC00304600F0D5F9044415F8011D0A223046A5
:1046CC0000F0DDF9BD420444F0D120460DB0F0BD40
:1046DC0010B5054B0446112240F8043B002100F0B4
:1046EC0060FE204610BD00BFA4540D000346074ACF
:1046FC0010B543F8042B01F1100251F8044B43F8A8
:10470C00044B9142F9D10A781A7010BDA4540D00D3
:10471C0010B59DF8084044EA032343EA024242EAFA
:10472C00016104234160037510BD37B50D788B789A
:10473C004A78C97800912946FFF7EAFF03B030BDEB
:10474C00014B024A1A607047DCE3032023550D002D
:10475C00002211464068FFF7ABBE002211464068AC
:10476C00FFF7B6BE00224068FFF7AABE002281F018
:10477C0001014068FFF794BE00231A4601214068EE
:10478C00FFF786BE00231A4619464068FFF778BE2D
:10479C00002211464068FFF76BBE002211464068AC
:1047AC00FFF756BE002202214068FFF759BE0023D6
:1047BC001A464068FFF744BE38B5054688B1046810
:1047CC004CB1A3681BB10322214620469847102107
:1047DC00204600F068FC28461421BDE8384000F063
:1047EC0062BC38BD10B103685B681847704710B5E0
:1047FC0003680446BBB15868FFF7CEFC78B9236850
:10480C005A7C12B95868FFF7CFFC23685868FFF739
:10481C00D3FC20680023236028B1FFF7CDFF20686C
:10482C0008B1FFF7C9FF204610BD38B50446D0F8D3
:10483C00C40108B1FFF72BFCD4F8C00108B1FFF795
:10484C00CBFCD4F8BC5135B12846FFF7D0FF04217E
:10485C00284600F028FC206808B1FFF7C3FF20466B
:10486C0038BD000010B5044B044640F8083BFFF778
:10487C00DCFF204610BD00BF9C550D0038B50E4C1A
:10488C000E4B23600025022304F5E4706360A560E1
:10489C00C4F8C451C4F8C851FFF796FC084BC4F8CF
:1048AC00CC5184F8D05123602046064A0649BDE815
:1048BC00384000F0F3BB00BFE0E30320D0550D00FF
:1048CC009C550D00ACE3032071480D0000231A46E3
:1048DC004068FFF7B5BD002202214068FFF7C0BD5C
:1048EC00002211464068FFF7B3BD00221146406814
:1048FC00FFF7BEBD00231A4619464068FFF7C0BD3E
:10490C0000231A4619464068FFF7C2BD002281F009
:10491C0001014068FFF7C4BD00224068FFF7D0BD1D
:10492C00002211464068FFF7D3BD002211464068B3
:10493C00FFF7BEBD2DE9F043002495B016460D4699
:10494C000746FFF7C5FE214620220CA8009400F074
:10495C0028FD40230C9321466B460CAA3046FFF7EA
:10496C00BBFC0446002844D1024601216868FFF7CD
:10497C007FFD0221804622466868FFF779FD009E84
:10498C0081462146002E34D0002932D17368022B87
:10499C0002D00A2B09D02AE0B8F1000F27D0716998
:1049AC0038460431FFF7C1FE20E0B9F1000F1ED0EC
:1049BC007469112201A800F0F4FC06238DF8143060
:1049CC0001AD04F108031834186859682A4603C26B
:1049DC000833A3421546F7D101A906A807ADFFF786
:1049EC0085FE0FCD3C1D0FC42B6823700121F66989
:1049FC00C8E70098FFF768FC384615B0BDE8F083AF
:104A0C00024B034A1A6000225A607047B4E5032037
:104A1C00D0550D00F8B506460D468F180024BD4242
:104A2C000CD0336815F8011B9B683046984700285A
:104A3C0001DB0444F3E7002C08BF04462046F8BD14
:104A4C0070B505460C46084649B100F0DBFC2B68F6
:104A5C00024621462846DB68BDE87040184770BD09
:104A6C0003689B68184738B50D210546FFF7F8FF1A
:104A7C000A2104462846FFF7F3FF204438BD30B521
:104A8C008BB00B4600218DF82410012A98BF0A2206
:104A9C000DF12304B3FBF2F505FB123303F0FF0316
:104AAC00092B94BF30333733DBB2214604F801397C
:104ABC002B46002DEED1FFF7C3FF0BB030BD0CB46D
:104ACC002DE9F04387B000AF07F13804054654F8E0
:104ADC00049B3C600E4623464A461421381DFFF7C2
:104AEC000FFD132805D8391D2846FFF7A9FF0446EA
:104AFC0013E000F1080323F00703E846ADEB030DC8
:104B0C00411C23464A4668463C60FFF7F9FC69465F
:104B1C002846FFF795FF0446C5461EB12846FFF709
:104B2C00A2FF044420461C37BD46BDE8F04302B04A
:104B3C00704710B50446FFF707FD204610BD000076
:104B4C000348044A04490023836000F0A7BA00BF5D
:104B5C00BCE50320ACE303203F4B0D0010B504462D
:104B6C0001700846FFF7C0FB00236360204610BDB0
:104B7C000078FFF7C1BB000010B5094C00204FF6C0
:104B8C00FF732060A080A07120816381FFF734FC4B
:104B9C002046044A0449BDE8104000F07FBA00BF2B
:104BAC00CCE50320ACE30320AF400D00024B1A68A8
:104BBC00024B1A60704700BF44E30320D8E5032082
:104BCC0070474174704708B5007CFFF7D5FB20EAAD
:104BDC00E07008BD08B5007CFFF7A6FB20EAE0708A
:104BEC0008BD08B5007CFFF7AFFB30EA200028BFFA
:104BFC004FF0FF3008BD08B5007CFFF79DFB30EA95
:104C0C00200028BF4FF0FF3008BD007CFFF7A4BB8D
:104C1C0010B51421044600F046FA204610BD70B5BC
:104C2C00457C04460E4625B9007CFFF7A5FB002801
:104C3C0005DD3146207CBDE87040FFF76DBB284692
:104C4C0070BD000010B50446084611460022626093
:104C5C004FF47A72A260054A2260012220746274B9
:104C6C001A46FFF751FB204610BD00BF30560D0011
:104C7C00007CFFF779BB000038B50C4D296811F0AA
:104C8C00010411D12846FFF704FA68B1084A094B10
:104C9C0009482146FFF7D6FF2846FFF7FFF9074AD8
:104CAC000749054800F0FAF9034838BD74E60320BB
:104CBC0078E60320F0E50320DCE50320ACE30320D9
:104CCC00CD4B0D0041747047704708B50021007C36
:104CDC00FFF77AFB30EA200028BF4FF0FF3008BD09
:104CEC0008B50121007CFFF76FFB30EA200028BFDC
:104CFC004FF0FF3008BD08B5007CFFF75DFB20EAE4
:104D0C00E07008BD08B5007CFFF74EFB20EAE070B0
:104D1C0008BD007CFFF768BB10B51421044600F0F9
:104D2C00C2F9204610BD38B50446007C0D46FFF78D
:104D3C0043FB002801DC607C28B12946207CFFF76E
:104D4C004BFB20EAE07038BD10B5044600236360CD
:104D5C004FF47A73A360054B23600123084621743A
:104D6C0063741146FFF710FB204610BD60560D0012
:104D7C000022007CFFF710BB10B514220446002162
:104D8C0000F00FFB204610BD30B50E4D87B001A8CA
:104D9C00FFF7F2FF296811F0010410D12846FFF744
:104DAC0078F960B101AA21460748FFF7CDFF2846E4
:104DBC00FFF774F9054A0649034800F06FF90248F9
:104DCC0007B030BDFCE6032000E70320ACE3032072
:104DDC00D54C0D00002211464068FFF749BB00225C
:104DEC0011464068FFF764BB002211464068FFF78C
:104DFC006FBB00224068FFF763BB002281F001010A
:104E0C004068FFF74DBB00231A4619464068FFF770
:104E1C003FBB00231A4619464068FFF731BB0022FE
:104E2C0011464068FFF714BB002202214068FFF7CF
:104E3C0017BB00231A464068FFF702BB024B042243
:104E4C005A60024A1A60704714E7032090560D000E
:104E5C0008B50C4B33B1FFF797FF03681B699847F4
:104E6C00002809DC084B63B1FFF706FF03681B69D8
:104E7C009847002803DC08BDAFF30080F2E7AFF3DE
:104E8C00008008BD000000000000000008B5FFF71E
:104E9C00DFFFFFF7B1F9014B186008BD30E70320C5
:104EAC000248034A0349121A00F070BA00F40320B6
:104EBC0004F4032060570D0007B5002300931A4635
:104ECC006FF07701FFF7AAFA03B05DF804FB00005E
:104EDC0007B543880A2B08D0502B09D1094B1B6806
:104EEC003BB103B05DF804EB1847FFF7E5FF06E0B4
:104EFC00002300931A466FF07701FFF78FFA03B087
:104F0C005DF804FB1CE7032038B5104C104D2368EA
:104F1C00AB42104B0CBF012200221A7002D0FFF7DB
:104F2C00BFFF2560FFF760F9044600F043FA0A4B17
:104F3C0013B12046AFF3008000210748FFF778FA41
:104F4C0000210648BDE83840FFF75EBA00F40320A4
:104F5C001E1C279A20E7032000000000DD4E0D00E8
:104F6C0070B5184E316811F0010504460AD130466F
:104F7C00FFF78FF830B129461348FFF7EFFD3046A5
:104F8C00FFF78CF81048FFF7F3FD28B1A4F10B03E1
:104F9C00022B01D8002070BD00F05AF8FFF75AFB25
:104FAC0008B1012CF6D9FFF767FEFFF761FE18B1C7
:104FBC00A4F10903012BEDD9232C8CBF0020012077
:104FCC0070BD00BF24E7032028E70320232838B551
:104FDC0004460D460AD8FF2908D0FFF7C1FF28B1B7
:104FEC0029462046BDE83840FFF71EB938BD0D28CC
:104FFC0010B504469CBF0E34A4B22046FFF7B0FF98
:10500C0050B103212046FFF707F9032804D12046AD
:10501C00BDE81040FFF710B9002010BD70B5044674
:10502C0014252A46094E002100F0BBF925802025C5
:10503C003146A5602561284600F04FF83146606086
:10504C00284600F04AF8E060204670BDBC560D00C2
:10505C0030B50E4D296811F0010487B013D12846E4
:10506C00FFF717F878B101A8FFF7D8FF01AA21467E
:10507C000748FFF7DDFA2846FFF710F8054A0649FE
:10508C00034800F00BF8024807B030BD34E70320AA
:10509C0038E70320ACE30320E5450D000B46014641
:1050AC00184600F065B9FEF7F0BF0000024B186817
:1050BC00BFF35F8F704700BF4CE7032010B500288B
:1050CC0014BF044601242046FFF70AFA20B9FFF763
:1050DC00EDFF08B18047F6E710BDFFF7EFBF00000A
:1050EC00244B1A68D0075CBF01221A60224B1A6845
:1050FC00D1075CBF01221A60204B1A68D2075CBF33
:10510C0001221A601E4B1A68D0075CBF01221A607C
:10511C001C4B1A68D1075CBF01221A601A4B1A6823
:10512C00D2075CBF01221A60184B1A68D0075CBF0B
:10513C0001221A60164B1A68D1075CBF01221A6053
:10514C00144B1A68D2075CBF01221A60124B1A6802
:10515C00D0075CBF01221A60104B1A68D1075CBFE4
:10516C0001221A600E4B1A68D2075CBF01221A602A
:10517C00704700BF7CE7032078E7032074E7032027
:10518C0070E703206CE7032068E7032064E7032043
:10519C0060E703205CE7032058E7032054E7032073
:1051AC0050E70320184B1A68D1075CBF01221A6024
:1051BC00164B1A68D2075CBF01221A60144B1A688E
:1051CC00D0075CBF01221A60124B1A68D1075CBF72
:1051DC0001221A60104B1A68D2075CBF01221A60B8
:1051EC000E4B1A68D0075CBF01221A600C4B1A6870
:1051FC00D1075CBF01221A600A4B1A68D2075CBF48
:10520C0001221A60704700BF9CE7032098E7032037
:10521C0094E7032090E703208CE7032088E7032022
:10522C0084E7032080E70320184B1A68D1075CBF82
:10523C0001221A60164B1A68D2075CBF01221A6051
:10524C00144B1A68D0075CBF01221A60124B1A6803
:10525C00D1075CBF01221A60104B1A68D2075CBFE1
:10526C0001221A600E4B1A68D0075CBF01221A602B
:10527C000C4B1A68D1075CBF01221A600A4B1A68E2
:10528C00D2075CBF01221A60704700BFBCE7032045
:10529C00B8E70320B4E70320B0E70320ACE7032012
:1052AC00A8E70320A4E70320A0E70320244B1A68F7
:1052BC00D0075CBF01221A60224B1A68D1075CBF71
:1052CC0001221A60204B1A68D2075CBF01221A60B7
:1052DC001E4B1A68D0075CBF01221A601C4B1A685F
:1052EC00D1075CBF01221A601A4B1A68D2075CBF47
:1052FC0001221A60184B1A68D0075CBF01221A6091
:10530C00164B1A68D1075CBF01221A60144B1A683D
:10531C00D2075CBF01221A60124B1A68D0075CBF1F
:10532C0001221A60104B1A68D1075CBF01221A6067
:10533C000E4B1A68D2075CBF01221A60704700BF7F
:10534C00ECE70320E8E70320E4E70320E0E7032091
:10535C00DCE70320D8E70320D4E70320D0E70320C1
:10536C00CCE70320C8E70320C4E70320C0E70320F1
:10537C0010B5054C13462CB10A4601460220AFF37A
:10538C00008010BD204610BD0000000010B5431E6B
:10539C000A44914204D011F8014B03F8014FF8E78D
:1053AC0010BD02440346934202D003F8011BFAE7F6
:1053BC007047000038B5124B1C68A36B0546D3B977
:1053CC001820FFF78DF843F20E33A06303804AF6E2
:1053DC00CD33438041F2342383804EF26D63C3801E
:1053EC004DF6EC630381052343810B23838101225A
:1053FC000023C0E90423A36B00221D615A6138BD50
:10540C00A8E30320034613F8012B002AFBD1181A3A
:10541C00013870471D400D0059400D0085400D00AE
:10542C0089400D00000000005A45524F0A004F4EB3
:10543C00450A00000000000000000000C5450D00FA
:10544C00BB450D00B1450D00A7450D009B450D005A
:10545C008F450D0083450D007B450D0071450D00FA
:10546C0067450D0041490D000000000000000000E0
:10547C00E5450D002F460D0007460D00E7450D00D4
:10548C000F460D0017460D001F460D0027460D0058
:10549C00000000000000000079460D0069460D0078
:1054AC006B460D00626175640053657269616C0036
:1054BC0053657269616C310074797065007061724A
:1054CC00616D00636D6400696400686E64007374E0
:1054DC00726D0066696C74006C766C006164644873
:1054EC00616E646C65720072656D6F766548616E95
:1054FC00646C657200656E756D48616E646C657286
:10550C0073004A534F4E53747265616D4C6F67480C
:10551C00616E646C6572006170700025303130759D
:10552C0020005D20002564002C200028293A200052
:10553C00205B00636F6465203D2000256900646575
:10554C007461696C73203D20000D0A0066006C6E5E
:10555C0000666E00636F64650064657461696C005D
:10556C006E6F6E6500747261636500696E666F00C4
:10557C007761726E006572726F720070616E696332
:10558C0000616C6C000000000000000000000000D6
:10559C00BB470D00B1470D00A7470D009D470D00FF
:1055AC0091470D0085470D0079470D0071470D009F
:1055BC0067470D005D470D0041490D0000000000DC
:1055CC0000000000D9480D00E3480D00ED480D0027
:1055DC00F7480D0001490D000D490D0019490D004A
:1055EC0025490D002D490D0037490D0041490D008D
:1055FC005A00252B3033643A253032750025592D4D
:10560C00256D2D25645425483A254D3A2553257A88
:10561C000061736374696D65000000000000000098
:10562C0000000000CD4B0D001D4C0D002B4C0D004F
:10563C00214A0D00E14B0D00034C0D00EF4B0D000A
:10564C00174C0D00CF4B0D00D34B0D00000000008C
:10565C0000000000D54C0D00254D0D00334D0D0004
:10566C00214A0D00114D0D00D74C0D00ED4C0D00D5
:10567C001F4D0D00034D0D00D14C0D00000000001E
:10568C00000000003F4E0D00354E0D002B4E0D005E
:10569C00E14D0D001F4E0D00134E0D00074E0D0079
:1056AC00FF4D0D00F54D0D00EB4D0D0041490D006A
:1056BC0000000000000000000000000000000000DE
:1056CC0000000000000000000000000000000000CE
:1056DC0000000000000000000000000000000000BE
:1056EC0000000000000000000000000000000000AE
:1056FC00000000000000000000000000000000009E
:10570C00000000000000000000000000000000008D
:10571C0000000000430000006D410D002D450D0000
:10572C00D1450D004D470D0089480D000D4A0D0067
:10573C004D4B0D00854B0D00B94B0D00494E0D0026
:10574C00ED500D00B1510D0035520D00B9520D0048
:04575C000000000049
:045760000000000045
:10576400640000001D560D0000000000C0560D002E
:10577400E0560D0000570D0000000000000000007E
:10578400000000000000000020570D000000000091
:105794000000000000000000000000000000000005
:1057A40000000000000000000000000000000000F5
:1057B40000000000000000000000000000000000E5
:0C57C400000000000000000048E303208B
:1057D000FFFFFFFF00000102030405060708090A96
:1057E0000B0C0D0E0F101112131415161718191A91
:0857F0001B1C1D1E1F202800D8
:0457F8007856341299
:04000003D000401CCD
:00000001FF
