:02000002D0002C
:1040000000400D00F85A0D00000006000C000501EC
:084010000401E80500000000B6
:04401800D8560D0069
:10401C0009480A49884208B505D0094A824202D0AB
:10402C00121A01F00FFB0748074A0021121A01F07F
:10403C0014FB014808BD00BF28E10320645A0D00A1
:10404C0094E1032094E10320F0E7032070B501F024
:10405C00A3F8074C074BE41AA40800251E46A542FA
:10406C0004D056F8253098470135F8E770BD00BFED
:10407C005C5A0D001C5A0D0000F030B808B500F069
:10408C004BF8BDE8084001F049B800F079BB00F0EE
:10409C0077BB0078B0FA80F04009704701230370B9
:1040AC007047000010B5074C237883F00103237090
:1040BC0000F0B2FF2378044A0021BDE8104000F064
:1040CC0046BE00BFC0E30320EC560D0010B50446FD
:1040DC00006808B100F054FB204610BD10B500F08C
:1040EC009BFF4FF4165100F08BFF094C002112205E
:1040FC0001F0B4F80321052001F0B0F82046054981
:10410C0000F0DFF82046FA21BDE8104000F0D7B8E7
:10411C0048E30320B1400D0073B53048304C00F03B
:10412C0054F9122001F0BEF82E4B227818601D466F
:10413C006AB92D4B1B68984209DD00F095F92B4BA1
:10414C002B4A186001232370136801331360237802
:10415C00284C002B31D0244B2A681B689A422CDA4D
:10416C0000F082F9244B18601D4B00251D701F4B6D
:10417C001B68C01A214B1860031F022B0BD81C4E56
:10418C00336844F8235000F047FF336854F8232079
:10419C0000921B4A0EE0093802280ED8144E3368E0
:1041AC00012244F8232000F037FF336854F8232011
:1041BC000092144A294600F0CAFD134B62681A603B
:1041CC00124BA2681A60124BE2681A60114B2269FA
:1041DC001A606269104B1A6002B070BD48E303208C
:1041EC00B8E303209CE1032028E10320C8E303206B
:1041FC00B0E30320A0E1032044E3032040E30320C9
:10420C00FE560D001B570D00C4E3032030E30320C2
:10421C00B4E30320BCE3032098E1032070B50D4CFC
:10422C0000F02AF900254FF6FF7302206381256008
:10423C00A580A571258100F027FA074A0749204679
:10424C0001F088F82B462A4605210548BDE8704048
:10425C0000F008B834E3032094E10320D9400D00AA
:10426C0048E3032038B504460846322161604FF418
:10427C0016710025A1604FF47A71E1602575A56176
:10428C00E56125626562A562E56225636563A563E8
:10429C00E56325646564A56425656565A565E565C7
:1042AC0020600AB1256101E00122226180B20BB1CC
:1042BC00022100E0194600F0D1FF204638BD816094
:1042CC0070478161704770B504460D4600F0CCF81C
:1042DC00E36D1BB9002D77D0012347E0012B2AD1C8
:1042EC00226E821A45B963689A4201D200231AE001
:1042FC000223E365606670BDE1688A4215D92375B7
:10430C00236B606603B19847A36B03B19847E36BCB
:10431C000BB1206C9847236D03B19847636D0BB1BB
:10432C00A06D98470623E36570BD636B002B4BD0E3
:10433C00BDE870401847022B1BD1636A0BB9A36A06
:10434C0023B1236EA268C31A934207D9A36903B1A0
:10435C009847E369002BC9D0206A1AE0002D33D0AE
:10436C00636E6268C31A93422ED90323E3652066F9
:10437C0070BD032B0FD13DBB236E6268C31A9342F1
:10438C0022D9636A606603B19847A36A002BADD04B
:10439C00E06A9847AAE7062B16D14DB9636C2575D0
:1043AC00606603B19847A36C002B9FD0E06CF0E7DC
:1043BC0001232375236D606603B19847636D1BB1B0
:1043CC00A06DBDE87040184770BD10B5044600687C
:1043DC0000280BDB80B200F052FF21690B1A594206
:1043EC0020465941BDE81040FFF76DBF10BD00F0ED
:1043FC0043B8000008B500F03FF800F03DF8014B61
:10440C00186008BDCCE3032008B5024B1B689B6801
:10441C00019308BD4802030008B5024B1B681B69D9
:10442C00019308BD4802030008B5024B1B685B6989
:10443C00019308BD4802030008B5024B1B685B6C76
:10444C00019308BD4802030008B5024B1B689B6C26
:10445C00019308BD4802030008B5024B1B685B685A
:10446C00019308BD1802030008B5024B1B685B6979
:10447C00019308BD1802030008B5024B1B681B68AA
:10448C00019308BD2C02030008B5024B1B685B6846
:10449C00019308BD2C02030008B5024B1B689B68F6
:1044AC00019308BD2C02030008B5024B1B68DB68A6
:1044BC00019308BD2C02030008B5024B1B685B6915
:1044CC00019308BD2C02030008B5024B1B681B6B43
:1044DC00019308BD2C02030008B5024B1B681B6A34
:1044EC00019308BD2802030008B5024B1B685B6AE8
:1044FC00019308BD2802030008B5024B1B689B6A98
:10450C00019308BD2802030008B5024B1B68DB6A47
:10451C00019308BD2802030008B5024B1B681B6BF6
:10452C00019308BD2802030008B5024B1B685B6BA6
:10453C00019308BD2802030008B5024B1B681B6CD5
:10454C00019308BD2802030008B5024B1B685B6988
:10455C00019308BD6402030008B5024B1B689B68FD
:10456C00019308BD6802030008B5024B1B68DB68A9
:10457C00019308BD6802030008B5024B1B68DB6998
:10458C00019308BD3002030008B5024B1B681B6A7F
:10459C00019308BD3002030008B5024B1B681B6871
:1045AC00019308BD3C02030008B5024B1B68DB6895
:1045BC00019308BD3C02030008B5024B1B681B6944
:1045CC00019308BD3C02030008B5024B1B685B69F4
:1045DC00019308BD3C02030008B5024B1B689B69A4
:1045EC00019308BD3C02030008B5024B1B68DB6954
:1045FC00019308BD3C02030008B5024B1B681B6A03
:10460C00019308BD3C02030008B5024B1B689B6A72
:10461C00019308BD3C02030008B5024B1B681B68E4
:10462C00019308BD4C02030008B5024B1B685B6884
:10463C00019308BD4C02030008B5024B1B681B69B3
:10464C00019308BD4C02030008B5024B1B685B6963
:10465C00019308BD4C02030008B5024B1B689B6913
:10466C00019308BD4C02030008B5024B1B68DB69C3
:10467C00019308BD4C02030008B5024B1B681B6A72
:10468C00019308BD4C02030008B5024B1B685B6824
:10469C00019308BD2002030008B5034B1B68D3F837
:1046AC008830019308BD00002002030008B5034BBD
:1046BC001B68D3F89430019308BD0000200203005E
:1046CC0008B5024B1B68DB6B019308BD4402030069
:1046DC0008B5024B1B685B68019308BD40020300E0
:1046EC0008B5024B1B689B68019308BD4002030090
:1046FC0008B5024B1B68DB68019308BD4002030040
:10470C0008B5024B1B681B69019308BD40020300EE
:10471C0008B5024B1B685B69019308BD400203009E
:10472C0008B5024B1B689B69019308BD400203004E
:10473C0008B5024B1B68DB69019308BD40020300FE
:10474C0008B5024B1B681B6A019308BD40020300AD
:10475C0008B5024B1B681B6B019308BD400203009C
:10476C0008B5024B1B685B6B019308BD400203004C
:10477C0008B5024B1B681B68019308BD1C020300A3
:10478C0008B5024B1B685B68019308BD1C02030053
:10479C0008B5024B1B685B6A019308BD1C02030041
:1047AC0010B50446006808B1FFF74EFE204610BD58
:1047BC0010B5064C002320462360FFF73DFE204633
:1047CC00034A0449BDE8104000F0C4BDD0E3032007
:1047DC0094E10320AD470D0010B58368044613B176
:1047EC00032201469847204610BD0022114640681E
:1047FC00FFF7A6BF002211464068FFF7B1BF0022A9
:10480C004068FFF7A5BF002281F001014068FFF767
:10481C008FBF00231A4619464068FFF781BF00235B
:10482C001A4619464068FFF773BF002211464068CC
:10483C00FFF766BF002211464068FFF751BF002208
:10484C0002214068FFF754BF00231A464068FFF767
:10485C003FBF0000024B03225A60024A1A607047A5
:10486C00D4E3032040570D007047F8B506461546B3
:10487C000C468F18BC4206D0336814F8011B9B6899
:10488C0030469847F6E72846F8BD0022007CFFF733
:10489C0023BE0021007CFFF727BE0021007CFFF720
:1048AC002BBE0021007CFFF72FBE0021007CFFF700
:1048BC0033BE10B51421044600F051FD204610BD46
:1048CC0010B50446002363604FF47A73A360044B65
:1048DC002174084623601146FFF72EFE204610BDBA
:1048EC0074570D000021007CFFF71EBE704710B5F9
:1048FC001821044600F033FD204610BDF0B5037DB1
:10490C00062B8DB00E4600F104074FF0000402D0C8
:10491C0000F1080518E00CAD394605F8304D2F2391
:10492C002A460A20FFF710FE284600F0C7FE33681F
:10493C000246DB682946304698470FE024B12E2109
:10494C00304600F0D5F9044415F8011D0A22304612
:10495C0000F0DDF9BD420444F0D120460DB0F0BDAD
:10496C0010B5054B0446112240F8043B002100F021
:10497C0074FE204610BD00BF9C570D000346074A2D
:10498C0010B543F8042B01F1100251F8044B43F815
:10499C00044B9142F9D10A781A7010BD9C570D0046
:1049AC0010B59DF8084044EA032343EA024242EA68
:1049BC00016104234160037510BD37B50D788B7808
:1049CC004A78C97800912946FFF7EAFF03B030BD59
:1049DC00014B024A1A607047DCE303201B580D00A0
:1049EC00002211464068FFF7ABBE0022114640681A
:1049FC00FFF7B6BE00224068FFF7AABE002281F086
:104A0C0001014068FFF794BE00231A46012140685B
:104A1C00FFF786BE00231A4619464068FFF778BE9A
:104A2C00002211464068FFF76BBE00221146406819
:104A3C00FFF756BE002202214068FFF759BE002343
:104A4C001A464068FFF744BE38B5054688B104687D
:104A5C004CB1A3681BB10322214620469847102174
:104A6C00204600F07CFC28461421BDE8384000F0BC
:104A7C0076BC38BD10B103685B681847704710B539
:104A8C0003680446BBB15868FFF7BEFC78B92368CD
:104A9C005A7C12B95868FFF7BFFC23685868FFF7B7
:104AAC00C3FC20680023236028B1FFF7CDFF2068EA
:104ABC0008B1FFF7C9FF204610BD38B50446D0F841
:104ACC00C40108B1FFF7E3FAD4F8C00108B1FFF74D
:104ADC00BBFCD4F8BC5135B12846FFF7D0FF0421FC
:104AEC00284600F03CFC206808B1FFF7C3FF2046C5
:104AFC0038BD000010B5044B044640F8083BFFF7E6
:104B0C00DCFF204610BD00BF94580D0038B50E4C8C
:104B1C000E4B23600025022304F5E4706360A5604E
:104B2C00C4F8C451C4F8C851FFF786FC084BC4F84C
:104B3C00CC5184F8D05123602046064A0649BDE882
:104B4C00384000F007BC00BFE0E30320C8580D005C
:104B5C0094580D0094E10320014B0D0000231A46DC
:104B6C004068FFF7B5BD002202214068FFF7C0BDC9
:104B7C00002211464068FFF7B3BD00221146406881
:104B8C00FFF7BEBD00231A4619464068FFF7C0BDAB
:104B9C0000231A4619464068FFF7C2BD002281F077
:104BAC0001014068FFF7C4BD00224068FFF7D0BD8B
:104BBC00002211464068FFF7D3BD00221146406821
:104BCC00FFF7BEBD2DE9F043002495B016460D4607
:104BDC000746FFF7C5FE214620220CA8009400F0E2
:104BEC003CFD40230C9321466B460CAA3046FFF744
:104BFC00BBFC0446002844D1024601216868FFF73B
:104C0C007FFD0221804622466868FFF779FD009EF1
:104C1C0081462146002E34D0002932D17368022BF4
:104C2C0002D00A2B09D02AE0B8F1000F27D0716905
:104C3C0038460431FFF7C1FE20E0B9F1000F1ED059
:104C4C007469112201A800F008FD06238DF81430B8
:104C5C0001AD04F108031834186859682A4603C2D8
:104C6C000833A3421546F7D101A906A807ADFFF7F3
:104C7C0085FE0FCD3C1D0FC42B6823700121F669F6
:104C8C00C8E70098FFF768FC384615B0BDE8F0831C
:104C9C00024B034A1A6000225A607047B4E50320A5
:104CAC00C8580D00F8B506460D468F180024BD42B5
:104CBC000CD0336815F8011B9B68304698470028C8
:104CCC0001DB0444F3E7002C08BF04462046F8BD82
:104CDC0070B505460C46084649B100F0EFFC2B6850
:104CEC00024621462846DB68BDE87040184770BD77
:104CFC0003689B68184738B50D210546FFF7F8FF88
:104D0C000A2104462846FFF7F3FF204438BD30B58E
:104D1C008BB00B4600218DF82410012A98BF0A2273
:104D2C000DF12304B3FBF2F505FB123303F0FF0383
:104D3C00092B94BF30333733DBB2214604F80139E9
:104D4C002B46002DEED1FFF7C3FF0BB030BD0CB4DA
:104D5C002DE9F04387B000AF07F13804054654F84D
:104D6C00049B3C600E4623464A461421381DFFF72F
:104D7C000FFD132805D8391D2846FFF7A9FF044657
:104D8C0013E000F1080323F00703E846ADEB030D35
:104D9C00411C23464A4668463C60FFF7F9FC6946CD
:104DAC002846FFF795FF0446C5461EB12846FFF777
:104DBC00A2FF044420461C37BD46BDE8F04302B0B8
:104DCC00704710B50446FFF707FD204610BD0000E4
:104DDC000348044A04490023836000F0BBBA00BFB7
:104DEC00BCE5032094E10320CF4D0D0010B5044623
:104DFC0001700846FFF7C0FB00236360204610BD1E
:104E0C000078FFF7C1BB000010B5094C00204FF62D
:104E1C00FF732060A080A07120816381FFF734FCB8
:104E2C002046044A0449BDE8104000F093BA00BF84
:104E3C00CCE5032094E10320D9400D00024B1A6805
:104E4C00024B1A60704700BF2CE10320D8E5032009
:104E5C0070474174704708B5007CFFF7D5FB20EA1A
:104E6C00E07008BD08B5007CFFF7A6FB20EAE070F7
:104E7C0008BD08B5007CFFF7AFFB30EA200028BF67
:104E8C004FF0FF3008BD08B5007CFFF79DFB30EA02
:104E9C00200028BF4FF0FF3008BD007CFFF7A4BBFB
:104EAC0010B51421044600F05AFA204610BD70B516
:104EBC00457C04460E4625B9007CFFF7A5FB00286F
:104ECC0005DD3146207CBDE87040FFF76DBB284600
:104EDC0070BD000010B50446084611460022626001
:104EEC004FF47A72A260054A226001222074627427
:104EFC001A46FFF751FB204610BD00BF28590D0084
:104F0C00007CFFF779BB000038B50C4D296811F017
:104F1C00010411D12846FFF7BCF868B1084A094BC7
:104F2C0009482146FFF7D6FF2846FFF7B7F8074A8E
:104F3C000749054800F00EFA034838BD74E6032013
:104F4C0078E60320F0E50320DCE5032094E1032060
:104F5C005D4E0D0041747047704708B50021007C10
:104F6C00FFF77AFB30EA200028BF4FF0FF3008BD76
:104F7C0008B50121007CFFF76FFB30EA200028BF49
:104F8C004FF0FF3008BD08B5007CFFF75DFB20EA51
:104F9C00E07008BD08B5007CFFF74EFB20EAE0701E
:104FAC0008BD007CFFF768BB10B51421044600F067
:104FBC00D6F9204610BD38B50446007C0D46FFF7E7
:104FCC0043FB002801DC607C28B12946207CFFF7DC
:104FDC004BFB20EAE07038BD10B50446002363603B
:104FEC004FF47A73A360054B2360012308462174A8
:104FFC0063741146FFF710FB204610BD58590D0085
:10500C000022007CFFF710BB10B5142204460021CF
:10501C0000F023FB204610BD30B50E4D87B001A823
:10502C00FFF7F2FF296811F0010410D12846FFF7B1
:10503C0030F860B101AA21460748FFF7CDFF28469A
:10504C00FFF72CF8054A0649034800F083F902489B
:10505C0007B030BDFCE6032000E7032094E10320F9
:10506C00654F0D00002211464068FFF749BB002236
:10507C0011464068FFF764BB002211464068FFF7F9
:10508C006FBB00224068FFF763BB002281F0010177
:10509C004068FFF74DBB00231A4619464068FFF7DE
:1050AC003FBB00231A4619464068FFF731BB00226C
:1050BC0011464068FFF714BB002202214068FFF73D
:1050CC0017BB00231A464068FFF702BB024B0422B1
:1050DC005A60024A1A60704714E7032088590D0081
:1050EC0008B50C4B33B1FFF797FF03681B69984762
:1050FC00002809DC084B63B1FFF706FF03681B6946
:10510C009847002803DC08BDAFF30080F2E7AFF34B
:10511C00008008BD000000000000000008B5FFF78B
:10512C00DFFFFFF7A1F9014B186008BD30E7032042
:10513C000248034A0349121A00F084BA00F403200F
:10514C0004F40320605A0D0007B5002300931A469F
:10515C006FF07701FFF7AAFA03B05DF804FB0000CB
:10516C0007B543880A2B08D0502B09D1094B1B6873
:10517C003BB103B05DF804EB1847FFF7E5FF06E021
:10518C00002300931A466FF07701FFF78FFA03B0F4
:10519C005DF804FB1CE7032038B5104C104D236858
:1051AC00AB42104B0CBF012200221A7002D0FFF749
:1051BC00BFFF2560FFF750F9044600F057FA0A4B81
:1051CC0013B12046AFF3008000210748FFF778FAAF
:1051DC0000210648BDE83840FFF75EBA00F4032012
:1051EC001E1C279A20E70320000000006D510D00C3
:1051FC0070B5184E316811F0010504460AD13046DD
:10520C00FEF747FF30B129461348FFF7EFFD304654
:10521C00FEF744FF1048FFF7F3FD28B1A4F10B0390
:10522C00022B01D8002070BD00F06EF8FFF75AFB7E
:10523C0008B1012CF6D9FFF767FEFFF761FE18B134
:10524C00A4F10903012BEDD9232C8CBF00200120E4
:10525C0070BD00BF24E7032028E70320232838B5BE
:10526C0004460D460AD8FF2908D0FFF7C1FF28B124
:10527C0029462046BDE83840FFF70EB938BD10B5B9
:10528C000446FFF711F90438C0B2012808D92046AA
:10529C00FFF7AEFF20B12046BDE81040FFF70CB978
:1052AC00002010BD0D2810B504469CBF0E34A4B2CE
:1052BC002046FFF79DFF50B103212046FFF7E4F88D
:1052CC00032804D12046BDE81040FFF7FDB80020AC
:1052DC0010BD000070B5044614252A46094E002165
:1052EC0000F0BBF9258020253146A56025612846B4
:1052FC0000F04FF831466060284600F04AF8E06054
:10530C00204670BDB4590D0030B50E4D296811F012
:10531C00010487B013D12846FEF7BBFE78B101A873
:10532C00FFF7D8FF01AA21460748FFF7C9FA28461C
:10533C00FEF7B4FE054A0649034800F00BF8024894
:10534C0007B030BD34E7032038E7032094E1032095
:10535C0075480D000B460146184600F065B9FEF77E
:10536C0094BE0000024B1868BFF35F8F704700BFFC
:10537C004CE7032010B5002814BF04460124204636
:10538C00FFF7F6F920B9FFF7EDFF08B18047F6E714
:10539C0010BDFFF7EFBF0000244B1A68D0075CBFAD
:1053AC0001221A60224B1A68D1075CBF01221A60D5
:1053BC00204B1A68D2075CBF01221A601E4B1A6878
:1053CC00D0075CBF01221A601C4B1A68D1075CBF66
:1053DC0001221A601A4B1A68D2075CBF01221A60AC
:1053EC00184B1A68D0075CBF01221A60164B1A685A
:1053FC00D1075CBF01221A60144B1A68D2075CBF3C
:10540C0001221A60124B1A68D0075CBF01221A6085
:10541C00104B1A68D1075CBF01221A600E4B1A6838
:10542C00D2075CBF01221A60704700BF7CE70320E3
:10543C0078E7032074E7032070E703206CE7032070
:10544C0068E7032064E7032060E703205CE70320A0
:10545C0058E7032054E7032050E70320184B1A6841
:10546C00D1075CBF01221A60164B1A68D2075CBFC9
:10547C0001221A60144B1A68D0075CBF01221A6013
:10548C00124B1A68D1075CBF01221A60104B1A68C4
:10549C00D2075CBF01221A600E4B1A68D0075CBFA2
:1054AC0001221A600C4B1A68D1075CBF01221A60EA
:1054BC000A4B1A68D2075CBF01221A60704700BF02
:1054CC009CE7032098E7032094E7032090E7032050
:1054DC008CE7032088E7032084E7032080E7032080
:1054EC00184B1A68D1075CBF01221A60164B1A6858
:1054FC00D2075CBF01221A60144B1A68D0075CBF3C
:10550C0001221A60124B1A68D1075CBF01221A6083
:10551C00104B1A68D2075CBF01221A600E4B1A6836
:10552C00D0075CBF01221A600C4B1A68D1075CBF14
:10553C0001221A600A4B1A68D2075CBF01221A605A
:10554C00704700BFBCE70320B8E70320B4E7032093
:10555C00B0E70320ACE70320A8E70320A4E703206F
:10556C00A0E70320244B1A68D0075CBF01221A6005
:10557C00224B1A68D1075CBF01221A60204B1A68B3
:10558C00D2075CBF01221A601E4B1A68D0075CBFA1
:10559C0001221A601C4B1A68D1075CBF01221A60E9
:1055AC001A4B1A68D2075CBF01221A60184B1A6892
:1055BC00D0075CBF01221A60164B1A68D1075CBF7A
:1055CC0001221A60144B1A68D2075CBF01221A60C0
:1055DC00124B1A68D0075CBF01221A60104B1A6874
:1055EC00D1075CBF01221A600E4B1A68D2075CBF50
:1055FC0001221A60704700BFECE70320E8E70320A4
:10560C00E4E70320E0E70320DCE70320D8E70320EE
:10561C00D4E70320D0E70320CCE70320C8E703201E
:10562C00C4E70320C0E7032010B5054C13462CB18A
:10563C000A4601460220AFF3008010BD204610BD83
:10564C000000000010B5431E0A44914204D011F82A
:10565C00014B03F8014FF8E710BD02440346934297
:10566C0002D003F8011BFAE77047000038B5124B63
:10567C001C68A36B0546D3B91820FFF779F843F2E1
:10568C000E33A06303804AF6CD33438041F23423BA
:10569C0083804EF26D63C3804DF6EC63038105236A
:1056AC0043810B23838101220023C0E90423A36BD4
:1056BC0000221D615A6138BD90E10320034613F8A6
:1056CC00012B002AFBD1181A013870471D400D0020
:1056DC0059400D0085400D0089400D000000000070
:1056EC00427574746F6E2053746174653A20256929
:1056FC000A005A45524F2069203D202569204172ED
:10570C007261792056616C75653A2025690A004FE3
:10571C004E45202069203D20256920417272617917
:10572C002056616C75653A2025690A00000000005E
:10573C000000000055480D004B480D0041480D007D
:10574C0037480D002B480D001F480D0013480D0065
:10575C000B480D0001480D00F7470D00D14B0D0013
:10576C00000000000000000075480D00BF480D004F
:10577C0097480D0077480D009F480D00A7480D0075
:10578C00AF480D00B7480D000000000000000000FD
:10579C0009490D00F9480D00FB480D006261756464
:1057AC000053657269616C0053657269616C3100FC
:1057BC007479706500706172616D00636D6400696D
:1057CC006400686E64007374726D0066696C7400BA
:1057DC006C766C0061646448616E646C6572007216
:1057EC00656D6F766548616E646C657200656E758B
:1057FC006D48616E646C657273004A534F4E5374FE
:10580C007265616D4C6F6748616E646C65720061A6
:10581C00707000253031307520005D20002564004B
:10582C002C200028293A2000205B00636F6465203F
:10583C003D200025690064657461696C73203D200E
:10584C00000D0A0066006C6E00666E00636F646586
:10585C000064657461696C006E6F6E6500747261D2
:10586C00636500696E666F007761726E00657272B7
:10587C006F720070616E696300616C6C00000000F7
:10588C0000000000000000004B4A0D00414A0D00D2
:10589C00374A0D002D4A0D00214A0D00154A0D0006
:1058AC00094A0D00014A0D00F7490D00ED490D00A4
:1058BC00D14B0D000000000000000000694B0D00F2
:1058CC00734B0D007D4B0D00874B0D00914B0D0064
:1058DC009D4B0D00A94B0D00B54B0D00BD4B0D00A4
:1058EC00C74B0D00D14B0D005A00252B3033643AB9
:1058FC00253032750025592D256D2D2564542548EC
:10590C003A254D3A2553257A0061736374696D65A8
:10591C000000000000000000000000005D4E0D00C3
:10592C00AD4E0D00BB4E0D00B14C0D00714E0D0077
:10593C00934E0D007F4E0D00A74E0D005F4E0D00D7
:10594C00634E0D000000000000000000654F0D00CC
:10595C00B54F0D00C34F0D00B14C0D00A14F0D0004
:10596C00674F0D007D4F0D00AF4F0D00934F0D0095
:10597C00614F0D000000000000000000CF500D0032
:10598C00C5500D00BB500D0071500D00AF500D00F7
:10599C00A3500D0097500D008F500D0085500D0039
:1059AC007B500D00D14B0D000000000000000000EA
:1059BC0000000000000000000000000000000000DB
:1059CC0000000000000000000000000000000000CB
:1059DC0000000000000000000000000000000000BB
:1059EC0000000000000000000000000000000000AB
:1059FC00000000000000000000000000000000009B
:105A0C000000000000000000000000004300000047
:105A1C0029420D00FB430D0001440D00BD470D0054
:105A2C0061480D00DD490D00194B0D009D4C0D001A
:105A3C00DD4D0D00154E0D00494E0D00D9500D00D9
:105A4C00A5530D0069540D00ED540D0071550D005A
:045A5C000000000046
:045A60000000000042
:105A64000A00000015590D0000000000B8590D008F
:105A7400D8590D00F8590D00000000000000000086
:105A84000000000000000000185A0D000000000093
:105A94000000000000000000000000000000000002
:105AA40000000000000000000000000000000000F2
:105AB40000000000000000000000000000000000E2
:0C5AC400000000000000000030E10320A2
:105AD000FFFFFFFF00000102030405060708090A93
:105AE0000B0C0D0E0F101112131415161718191A8E
:085AF0001B1C1D1E1F202800D5
:045AF8007856341296
:04000003D000401CCD
:00000001FF
