:02000002D0002C
:1040000000400D0020580D00000006000C000501C6
:084010000401E80500000000B6
:0440180030540D0013
:10401C0009480A49884208B505D0094A824202D0AB
:10402C00121A01F0BBF90748074A0021121A01F0D5
:10403C00C0F9014808BD00BF3CE3032084570D00C4
:10404C00B0E30320B0E30320F0E7032070B500F0E9
:10405C0063FF074C074BE41AA40800251E46A54233
:10406C0004D056F8253098470135F8E770BD00BFED
:10407C0078570D0040570D0000F01BB808B500F044
:10408C0025F8BDE8084000F009BF00F035BA00F093
:10409C0033BA0078B0FA80F04009704701230370FE
:1040AC00704710B50446006808B100F025FA2046A8
:1040BC0010BD08B500F070FE4FF4165100F060FE14
:1040CC0000211220BDE8084000F088BF38B512204E
:1040DC0000F095FF174C184B184D18602A68236890
:1040EC009B1A174A1360174B1B68984203DD00F0AC
:1040FC007FF8206038BD1CDA00F07AF8236828605D
:10410C00181A114B1B68984203D200F045FE0F4A57
:10411C0006E00F4B1B6898420BD200F03DFE0D4A97
:10412C00002100F0D4FC4FF47A70BDE8384000F068
:10413C00F3B938BDCCE30320B4E30320BCE3032084
:10414C00B8E303203CE3032044E3032044540D0074
:10415C0040E303204F540D0010B50A4C00F050F80A
:10416C0000232360A380A371238102204FF6FF73E9
:10417C00638100F03DF92046034A0449BDE8104034
:10418C0000F094BFC0E30320B0E30320AF400D0068
:10419C0008B5024B1B689B68019308BD48020300DD
:1041AC0008B5024B1B681B69019308BD480203004C
:1041BC0008B5024B1B685B69019308BD48020300FC
:1041CC0008B5024B1B685B6C019308BD48020300E9
:1041DC0008B5024B1B689B6C019308BD4802030099
:1041EC0008B5024B1B685B68019308BD18020300FD
:1041FC0008B5024B1B685B69019308BD18020300EC
:10420C0008B5024B1B681B68019308BD2C02030008
:10421C0008B5024B1B685B68019308BD2C020300B8
:10422C0008B5024B1B689B68019308BD2C02030068
:10423C0008B5024B1B681B6B019308BD2C020300D5
:10424C0008B5024B1B681B6A019308BD28020300CA
:10425C0008B5024B1B685B6A019308BD280203007A
:10426C0008B5024B1B689B6A019308BD280203002A
:10427C0008B5024B1B68DB6A019308BD28020300DA
:10428C0008B5024B1B681B6B019308BD2802030089
:10429C0008B5024B1B685B6B019308BD2802030039
:1042AC0008B5024B1B681B6C019308BD2802030068
:1042BC0008B5024B1B685B69019308BD64020300DF
:1042CC0008B5024B1B689B68019308BD680203008C
:1042DC0008B5024B1B68DB68019308BD680203003C
:1042EC0008B5024B1B68DB69019308BD3002030063
:1042FC0008B5024B1B681B6A019308BD3002030012
:10430C0008B5024B1B681B68019308BD3C020300F7
:10431C0008B5024B1B68DB68019308BD3C02030027
:10432C0008B5024B1B681B69019308BD3C020300D6
:10433C0008B5024B1B685B69019308BD3C02030086
:10434C0008B5024B1B689B69019308BD3C02030036
:10435C0008B5024B1B68DB69019308BD3C020300E6
:10436C0008B5024B1B681B6A019308BD3C02030095
:10437C0008B5024B1B689B6A019308BD3C02030005
:10438C0008B5024B1B681B68019308BD4C02030067
:10439C0008B5024B1B685B68019308BD4C02030017
:1043AC0008B5024B1B681B69019308BD4C02030046
:1043BC0008B5024B1B685B69019308BD4C020300F6
:1043CC0008B5024B1B689B69019308BD4C020300A6
:1043DC0008B5024B1B68DB69019308BD4C02030056
:1043EC0008B5024B1B681B6A019308BD4C02030005
:1043FC0008B5024B1B685B68019308BD20020300E3
:10440C0008B5024B1B685B69019308BD20020300D1
:10441C0008B5034B1B68D3F88830019308BD000026
:10442C002002030008B5034B1B68D3F894300193AA
:10443C0008BD00002002030008B5024B1B68DB6BB3
:10444C00019308BD4402030008B5024B1B685B686E
:10445C00019308BD4002030008B5024B1B689B6822
:10446C00019308BD4002030008B5024B1B68DB68D2
:10447C00019308BD4002030008B5024B1B681B6981
:10448C00019308BD4002030008B5024B1B685B6931
:10449C00019308BD4002030008B5024B1B689B69E1
:1044AC00019308BD4002030008B5024B1B68DB6991
:1044BC00019308BD4002030008B5024B1B681B6A40
:1044CC00019308BD4002030008B5024B1B681B6B2F
:1044DC00019308BD4002030008B5024B1B685B6BDF
:1044EC00019308BD4002030008B5024B1B681B6812
:1044FC00019308BD1C02030008B5024B1B685B68E6
:10450C00019308BD1C02030008B5024B1B685B6AD3
:10451C00019308BD1C0203000021FFF771BF10B509
:10452C000446006808B1FFF753FE204610BD00009A
:10453C0010B5064C002320462360FFF741FE2046B1
:10454C00034A0449BDE8104000F0B0BDD0E303209D
:10455C00B0E303202B450D0010B58368044613B15E
:10456C00032201469847204610BD002211464068A0
:10457C00FFF7A2BF002211464068FFF7ADBF002233
:10458C004068FFF7A1BF002281F001014068FFF7EE
:10459C008BBF00231A4619464068FFF77DBF0023E6
:1045AC001A4619464068FFF76FBF00221146406853
:1045BC00FFF762BF002211464068FFF74DBF002293
:1045CC0002214068FFF750BF00231A464068FFF7EE
:1045DC003BBF0000024B03225A60024A1A6070472C
:1045EC00D4E3032064540D007047F8B50646154615
:1045FC000C468F18BC4206D0336814F8011B9B681C
:10460C0030469847F6E72846F8BD0022007CFFF7B5
:10461C0017BE0021007CFFF71BBE0021007CFFF7BA
:10462C001FBE0021007CFFF723BE0021007CFFF79A
:10463C0027BE10B51421044600F03DFD204610BDE8
:10464C0010B50446002363604FF47A73A360044BE7
:10465C002174084623601146FFF722FE204610BD48
:10466C0098540D000021007CFFF712BE704710B566
:10467C001821044600F01FFD204610BDF0B5037D47
:10468C00062B8DB00E4600F104074FF0000402D04B
:10469C0000F1080518E00CAD394605F8304D2F2314
:1046AC002A460A20FFF704FE284600F0B3FE3368C2
:1046BC000246DB682946304698470FE024B12E218C
:1046CC00304600F0D5F9044415F8011D0A22304695
:1046DC0000F0DDF9BD420444F0D120460DB0F0BD30
:1046EC0010B5054B0446112240F8043B002100F0A4
:1046FC0060FE204610BD00BFC0540D000346074AA3
:10470C0010B543F8042B01F1100251F8044B43F897
:10471C00044B9142F9D10A781A7010BDC0540D00A7
:10472C0010B59DF8084044EA032343EA024242EAEA
:10473C00016104234160037510BD37B50D788B788A
:10474C004A78C97800912946FFF7EAFF03B030BDDB
:10475C00014B024A1A607047DCE303203F550D0001
:10476C00002211464068FFF7A7BE002211464068A0
:10477C00FFF7B2BE00224068FFF7A6BE002281F010
:10478C0001014068FFF790BE00231A4601214068E2
:10479C00FFF782BE00231A4619464068FFF774BE25
:1047AC00002211464068FFF767BE002211464068A0
:1047BC00FFF752BE002202214068FFF755BE0023CE
:1047CC001A464068FFF740BE38B5054688B1046804
:1047DC004CB1A3681BB103222146204698471021F7
:1047EC00204600F068FC28461421BDE8384000F053
:1047FC0062BC38BD10B103685B681847704710B5D0
:10480C0003680446BBB15868FFF7C2FC78B923684B
:10481C005A7C12B95868FFF7C3FC23685868FFF735
:10482C00C7FC20680023236028B1FFF7CDFF206868
:10483C0008B1FFF7C9FF204610BD38B50446D0F8C3
:10484C00C40108B1FFF723FCD4F8C00108B1FFF78D
:10485C00BFFCD4F8BC5135B12846FFF7D0FF04217A
:10486C00284600F028FC206808B1FFF7C3FF20465B
:10487C0038BD000010B5044B044640F8083BFFF768
:10488C00DCFF204610BD00BFB8550D0038B50E4CEE
:10489C000E4B23600025022304F5E4706360A560D1
:1048AC00C4F8C451C4F8C851FFF78AFC084BC4F8CB
:1048BC00CC5184F8D05123602046064A0649BDE805
:1048CC00384000F0F3BB00BFE0E30320EC550D00D3
:1048DC00B8550D00B0E3032081480D0000231A46A3
:1048EC004068FFF7B1BD002202214068FFF7BCBD54
:1048FC00002211464068FFF7AFBD00221146406808
:10490C00FFF7BABD00231A4619464068FFF7BCBD35
:10491C0000231A4619464068FFF7BEBD002281F0FD
:10492C0001014068FFF7C0BD00224068FFF7CCBD15
:10493C00002211464068FFF7CFBD002211464068A7
:10494C00FFF7BABD2DE9F043002495B016460D468D
:10495C000746FFF7C5FE214620220CA8009400F064
:10496C0028FD40230C9321466B460CAA3046FFF7DA
:10497C00AFFC0446002844D1024601216868FFF7C9
:10498C007BFD0221804622466868FFF775FD009E7C
:10499C0081462146002E34D0002932D17368022B77
:1049AC0002D00A2B09D02AE0B8F1000F27D0716988
:1049BC0038460431FFF7C1FE20E0B9F1000F1ED0DC
:1049CC007469112201A800F0F4FC06238DF8143050
:1049DC0001AD04F108031834186859682A4603C25B
:1049EC000833A3421546F7D101A906A807ADFFF776
:1049FC0085FE0FCD3C1D0FC42B6823700121F66979
:104A0C00C8E70098FFF75CFC384615B0BDE8F083AA
:104A1C00024B034A1A6000225A607047B4E5032027
:104A2C00EC550D00F8B506460D468F180024BD4216
:104A3C000CD0336815F8011B9B683046984700284A
:104A4C0001DB0444F3E7002C08BF04462046F8BD04
:104A5C0070B505460C46084649B100F0DBFC2B68E6
:104A6C00024621462846DB68BDE87040184770BDF9
:104A7C0003689B68184738B50D210546FFF7F8FF0A
:104A8C000A2104462846FFF7F3FF204438BD30B511
:104A9C008BB00B4600218DF82410012A98BF0A22F6
:104AAC000DF12304B3FBF2F505FB123303F0FF0306
:104ABC00092B94BF30333733DBB2214604F801396C
:104ACC002B46002DEED1FFF7C3FF0BB030BD0CB45D
:104ADC002DE9F04387B000AF07F13804054654F8D0
:104AEC00049B3C600E4623464A461421381DFFF7B2
:104AFC000BFD132805D8391D2846FFF7A9FF0446DE
:104B0C0013E000F1080323F00703E846ADEB030DB7
:104B1C00411C23464A4668463C60FFF7F5FC694653
:104B2C002846FFF795FF0446C5461EB12846FFF7F9
:104B3C00A2FF044420461C37BD46BDE8F04302B03A
:104B4C00704710B50446FFF707FD204610BD000066
:104B5C000348044A04490023836000F0A7BA00BF4D
:104B6C00BCE50320B0E303204F4B0D0010B5044609
:104B7C0001700846FFF7B4FB00236360204610BDAC
:104B8C000078FFF7B5BB000010B5094C00204FF6BC
:104B9C00FF732060A080A07120816381FFF728FC47
:104BAC002046044A0449BDE8104000F07FBA00BF1B
:104BBC00CCE50320B0E30320AF400D00024B1A6894
:104BCC00024B1A60704700BF48E30320D8E503206E
:104BDC0070474174704708B5007CFFF7C9FB20EAA9
:104BEC00E07008BD08B5007CFFF79AFB20EAE07086
:104BFC0008BD08B5007CFFF7A3FB30EA200028BFF6
:104C0C004FF0FF3008BD08B5007CFFF791FB30EA90
:104C1C00200028BF4FF0FF3008BD007CFFF798BB89
:104C2C0010B51421044600F046FA204610BD70B5AC
:104C3C00457C04460E4625B9007CFFF799FB0028FD
:104C4C0005DD3146207CBDE87040FFF761BB28468E
:104C5C0070BD000010B50446084611460022626083
:104C6C004FF47A72A260054A2260012220746274A9
:104C7C001A46FFF745FB204610BD00BF4C560D00F1
:104C8C00007CFFF76DBB000038B50C4D296811F0A6
:104C9C00010411D12846FFF7FCF968B1084A094B09
:104CAC0009482146FFF7D6FF2846FFF7F7F9074AD0
:104CBC000749054800F0FAF9034838BD74E60320AB
:104CCC0078E60320F0E50320DCE50320B0E30320C5
:104CDC00DD4B0D0041747047704708B50021007C16
:104CEC00FFF76EFB30EA200028BF4FF0FF3008BD05
:104CFC0008B50121007CFFF763FB30EA200028BFD8
:104D0C004FF0FF3008BD08B5007CFFF751FB20EADF
:104D1C00E07008BD08B5007CFFF742FB20EAE070AC
:104D2C0008BD007CFFF75CBB10B51421044600F0F5
:104D3C00C2F9204610BD38B50446007C0D46FFF77D
:104D4C0037FB002801DC607C28B12946207CFFF76A
:104D5C003FFB20EAE07038BD10B5044600236360C9
:104D6C004FF47A73A360054B23600123084621742A
:104D7C0063741146FFF704FB204610BD7C560D00F2
:104D8C000022007CFFF704BB10B51422044600215E
:104D9C0000F00FFB204610BD30B50E4D87B001A8BA
:104DAC00FFF7F2FF296811F0010410D12846FFF734
:104DBC0070F960B101AA21460748FFF7CDFF2846DC
:104DCC00FFF76CF9054A0649034800F06FF90248F1
:104DDC0007B030BDFCE6032000E70320B0E303205E
:104DEC00E54C0D00002211464068FFF745BB002240
:104DFC0011464068FFF760BB002211464068FFF780
:104E0C006BBB00224068FFF75FBB002281F0010101
:104E1C004068FFF749BB00231A4619464068FFF764
:104E2C003BBB00231A4619464068FFF72DBB0022F6
:104E3C0011464068FFF710BB002202214068FFF7C3
:104E4C0013BB00231A464068FFF7FEBA024B04223C
:104E5C005A60024A1A60704714E70320AC560D00E2
:104E6C0008B50C4B33B1FFF797FF03681B699847E4
:104E7C00002809DC084B63B1FFF706FF03681B69C8
:104E8C009847002803DC08BDAFF30080F2E7AFF3CE
:104E9C00008008BD000000000000000008B5FFF70E
:104EAC00DFFFFFF7A5F9014B186008BD30E70320C1
:104EBC000248034A0349121A00F070BA00F40320A6
:104ECC0004F4032080570D0007B5002300931A4605
:104EDC006FF07701FFF7A6FA03B05DF804FB000052
:104EEC0007B543880A2B08D0502B09D1094B1B68F6
:104EFC003BB103B05DF804EB1847FFF7E5FF06E0A4
:104F0C00002300931A466FF07701FFF78BFA03B07A
:104F1C005DF804FB1CE7032038B5104C104D2368DA
:104F2C00AB42104B0CBF012200221A7002D0FFF7CB
:104F3C00BFFF2560FFF754F9044600F043FA0A4B13
:104F4C0013B12046AFF3008000210748FFF774FA35
:104F5C0000210648BDE83840FFF75ABA00F4032098
:104F6C001E1C279A20E7032000000000ED4E0D00C8
:104F7C0070B5184E316811F0010504460AD130465F
:104F8C00FFF787F830B129461348FFF7EFFD30469D
:104F9C00FFF784F81048FFF7F3FD28B1A4F10B03D9
:104FAC00022B01D8002070BD00F05AF8FFF75AFB15
:104FBC0008B1012CF6D9FFF767FEFFF761FE18B1B7
:104FCC00A4F10903012BEDD9232C8CBF0020012067
:104FDC0070BD00BF24E7032028E70320232838B541
:104FEC0004460D460AD8FF2908D0FFF7C1FF28B1A7
:104FFC0029462046BDE83840FFF712B938BD0D28C8
:10500C0010B504469CBF0E34A4B22046FFF7B0FF87
:10501C0050B103212046FFF7FBF8032804D12046AA
:10502C00BDE81040FFF704B9002010BD70B5044670
:10503C0014252A46094E002100F0BBF925802025B5
:10504C003146A5602561284600F04FF83146606076
:10505C00284600F04AF8E060204670BDD8560D0096
:10506C0030B50E4D296811F0010487B013D12846D4
:10507C00FFF70FF878B101A8FFF7D8FF01AA214676
:10508C000748FFF7DDFA2846FFF708F8054A0649F6
:10509C00034800F00BF8024807B030BD34E703209A
:1050AC0038E70320B0E30320F5450D000B4601461D
:1050BC00184600F065B9FEF7E8BF0000024B18680F
:1050CC00BFF35F8F704700BF4CE7032010B500287B
:1050DC0014BF044601242046FFF706FA20B9FFF757
:1050EC00EDFF08B18047F6E710BDFFF7EFBF0000FA
:1050FC00244B1A68D0075CBF01221A60224B1A6835
:10510C00D1075CBF01221A60204B1A68D2075CBF22
:10511C0001221A601E4B1A68D0075CBF01221A606C
:10512C001C4B1A68D1075CBF01221A601A4B1A6813
:10513C00D2075CBF01221A60184B1A68D0075CBFFB
:10514C0001221A60164B1A68D1075CBF01221A6043
:10515C00144B1A68D2075CBF01221A60124B1A68F2
:10516C00D0075CBF01221A60104B1A68D1075CBFD4
:10517C0001221A600E4B1A68D2075CBF01221A601A
:10518C00704700BF7CE7032078E7032074E7032017
:10519C0070E703206CE7032068E7032064E7032033
:1051AC0060E703205CE7032058E7032054E7032063
:1051BC0050E70320184B1A68D1075CBF01221A6014
:1051CC00164B1A68D2075CBF01221A60144B1A687E
:1051DC00D0075CBF01221A60124B1A68D1075CBF62
:1051EC0001221A60104B1A68D2075CBF01221A60A8
:1051FC000E4B1A68D0075CBF01221A600C4B1A6860
:10520C00D1075CBF01221A600A4B1A68D2075CBF37
:10521C0001221A60704700BF9CE7032098E7032027
:10522C0094E7032090E703208CE7032088E7032012
:10523C0084E7032080E70320184B1A68D1075CBF72
:10524C0001221A60164B1A68D2075CBF01221A6041
:10525C00144B1A68D0075CBF01221A60124B1A68F3
:10526C00D1075CBF01221A60104B1A68D2075CBFD1
:10527C0001221A600E4B1A68D0075CBF01221A601B
:10528C000C4B1A68D1075CBF01221A600A4B1A68D2
:10529C00D2075CBF01221A60704700BFBCE7032035
:1052AC00B8E70320B4E70320B0E70320ACE7032002
:1052BC00A8E70320A4E70320A0E70320244B1A68E7
:1052CC00D0075CBF01221A60224B1A68D1075CBF61
:1052DC0001221A60204B1A68D2075CBF01221A60A7
:1052EC001E4B1A68D0075CBF01221A601C4B1A684F
:1052FC00D1075CBF01221A601A4B1A68D2075CBF37
:10530C0001221A60184B1A68D0075CBF01221A6080
:10531C00164B1A68D1075CBF01221A60144B1A682D
:10532C00D2075CBF01221A60124B1A68D0075CBF0F
:10533C0001221A60104B1A68D1075CBF01221A6057
:10534C000E4B1A68D2075CBF01221A60704700BF6F
:10535C00ECE70320E8E70320E4E70320E0E7032081
:10536C00DCE70320D8E70320D4E70320D0E70320B1
:10537C00CCE70320C8E70320C4E70320C0E70320E1
:10538C0010B5054C13462CB10A4601460220AFF36A
:10539C00008010BD204610BD0000000010B5431E5B
:1053AC000A44914204D011F8014B03F8014FF8E77D
:1053BC0010BD02440346934202D003F8011BFAE7E6
:1053CC007047000038B5124B1C68A36B0546D3B967
:1053DC001820FFF789F843F20E33A06303804AF6D6
:1053EC00CD33438041F2342383804EF26D63C3800E
:1053FC004DF6EC630381052343810B23838101224A
:10540C000023C0E90423A36B00221D615A6138BD3F
:10541C00ACE30320034613F8012B002AFBD1181A26
:10542C00013870471D400D0059400D0085400D009E
:10543C0089400D00000000005A65726F2054696DA0
:10544C00650A004F6E652054696D650A0000000006
:10545C000000000000000000D5450D00CB450D00FC
:10546C00C1450D00B7450D00AB450D009F450D0026
:10547C0093450D008B450D0081450D0077450D00C2
:10548C0051490D000000000000000000F5450D0022
:10549C003F460D0017460D00F7450D001F460D0049
:1054AC0027460D002F460D0037460D00000000006A
:1054BC000000000089460D0079460D007B460D006A
:1054CC00626175640053657269616C005365726941
:1054DC00616C31007479706500706172616D00638C
:1054EC006D6400696400686E64007374726D0066AC
:1054FC00696C74006C766C0061646448616E646CF9
:10550C0065720072656D6F766548616E646C65726C
:10551C0000656E756D48616E646C657273004A53FC
:10552C004F4E53747265616D4C6F6748616E646C5D
:10553C0065720061707000253031307520005D207F
:10554C00002564002C200028293A2000205B0063F1
:10555C006F6465203D200025690064657461696C89
:10556C0073203D20000D0A0066006C6E00666E0014
:10557C00636F64650064657461696C006E6F6E6561
:10558C0000747261636500696E666F007761726E9C
:10559C00006572726F720070616E696300616C6C91
:1055AC00000000000000000000000000CB470D00D0
:1055BC00C1470D00B7470D00AD470D00A1470D00C9
:1055CC0095470D0089470D0081470D0077470D0069
:1055DC006D470D0051490D00000000000000000057
:1055EC00E9480D00F3480D00FD480D0007490D007A
:1055FC0011490D001D490D0029490D0035490D00BB
:10560C003D490D0047490D0051490D005A00252B0D
:10561C003033643A253032750025592D256D2D25F2
:10562C00645425483A254D3A2553257A0061736315
:10563C0074696D65000000000000000000000000AF
:10564C00DD4B0D002D4C0D003B4C0D00314A0D0077
:10565C00F14B0D00134C0D00FF4B0D00274C0D00B2
:10566C00DF4B0D00E34B0D000000000000000000BC
:10567C00E54C0D00354D0D00434D0D00314A0D002C
:10568C00214D0D00E74C0D00FD4C0D002F4D0D0074
:10569C00134D0D00E14C0D00000000000000000057
:1056AC004F4E0D00454E0D003B4E0D00F14D0D00C3
:1056BC002F4E0D00234E0D00174E0D000F4E0D00FA
:1056CC00054E0D00FB4D0D0051490D000000000072
:1056DC0000000000000000000000000000000000BE
:1056EC0000000000000000000000000000000000AE
:1056FC00000000000000000000000000000000009E
:10570C00000000000000000000000000000000008D
:10571C00000000000000000000000000000000007D
:10572C00000000000000000000000000000000006D
:10573C004300000065410D003D450D00E1450D00A5
:10574C005D470D0099480D001D4A0D005D4B0D0085
:10575C00954B0D00C94B0D00594E0D00FD500D0021
:10576C00C1510D0045520D00C9520D000000000042
:04577C000000000029
:045780000000000025
:10578400BC020000102700008813000039560D00E9
:1057940000000000DC560D00FC560D001C570D00E7
:1057A40000000000000000000000000000000000F5
:1057B4003C570D0000000000000000000000000045
:1057C40000000000000000000000000000000000D5
:1057D40000000000000000000000000000000000C5
:1057E40000000000000000000000000000000000B5
:0457F4004CE303205F
:1057F800FFFFFFFF00000102030405060708090A6E
:105808000B0C0D0E0F101112131415161718191A68
:085818001B1C1D1E1F202800AF
:045820007856341270
:04000003D000401CCD
:00000001FF
