:02000002D0002C
:1040000000400D0068520D00000006000C00050184
:084010000401D80700000000C4
:0440180010500D0037
:10401C0009480A49884208B505D0094A824202D0AB
:10402C00121A00F0ADFF0748074A0021121A00F0DF
:10403C00B5FF014808BD00BFA4E50320C4510D0025
:10404C0020E6032020E60320F0E7032070B5074E9E
:10405C00074C00F0A5FEA41BA4080025A54200D126
:10406C0070BD56F8043B98470135F7E79C510D009D
:10407C00C0510D0000F02AB808B500F03FF8BDE8BB
:10408C00084000F04FBE00F033BA00F039BA0078A7
:10409C00B0FA80F04009704701230370704710B5E7
:1040AC000446006808B100F02BFA204610BD0EB48F
:1040BC0003B503AB002153F8042B019300F055FC1E
:1040CC0002B05DF804EB03B07047000008B500F0D7
:1040DC009FFD4FF4165100F08FFD00210E2000F0D3
:1040EC00CFFE4FF47A7000F023FA00F091FD0249F4
:1040FC00FFF7DDFF08BD00BF24500D0070B50E208A
:10410C001C4C1D4D1D4E00F0CCFE2278286042B98F
:10411C003368984221DD00F077F8194B18600123C1
:10412C0023702A6833689A4217DA00F06DF8154B41
:10413C00186000232370124B1B68C01A124B1860B6
:10414C00124B1B68984209D9114B1B68984205D237
:10415C0000F05EFD0F49FFF7AAFF70BD0E4B1B6808
:10416C009842FAD90D4B1B689842F6D200F050FDDC
:10417C000B49F0E740E6032030E60320ACE50320D2
:10418C003CE6032038E6032034E60320B4E50320A4
:10419C00B0E5032034500D00A8E50320A4E503206E
:1041AC0039500D0010B5094C00232360A380A37176
:1041BC000220A3F58033A36000F01EF92046044AC8
:1041CC000449BDE8104000F0C3BE00BF24E6032044
:1041DC0020E60320AB400D0008B5024B1B685B6C5E
:1041EC00019308BD4802030008B5024B1B689B6C89
:1041FC00019308BD4802030008B5024B1B685B68BD
:10420C00019308BD1802030008B5024B1B685B69DB
:10421C00019308BD1802030008B5024B1B685B68CC
:10422C00019308BD2C02030008B5024B1B689B6868
:10423C00019308BD2C02030008B5024B1B681B6BD5
:10424C00019308BD2C02030008B5024B1B681B6AC6
:10425C00019308BD2802030008B5024B1B685B6A7A
:10426C00019308BD2802030008B5024B1B689B6A2A
:10427C00019308BD2802030008B5024B1B68DB6ADA
:10428C00019308BD2802030008B5024B1B681B6B89
:10429C00019308BD2802030008B5024B1B685B6B39
:1042AC00019308BD2802030008B5024B1B681B6C68
:1042BC00019308BD2802030008B5024B1B685B691B
:1042CC00019308BD6402030008B5024B1B689B6890
:1042DC00019308BD6802030008B5024B1B68DB683C
:1042EC00019308BD6802030008B5024B1B68DB692B
:1042FC00019308BD3002030008B5024B1B681B6A12
:10430C00019308BD3002030008B5024B1B681B6803
:10431C00019308BD3C02030008B5024B1B68DB6827
:10432C00019308BD3C02030008B5024B1B681B69D6
:10433C00019308BD3C02030008B5024B1B685B6986
:10434C00019308BD3C02030008B5024B1B689B6936
:10435C00019308BD3C02030008B5024B1B68DB69E6
:10436C00019308BD3C02030008B5024B1B681B6A95
:10437C00019308BD3C02030008B5024B1B689B6A05
:10438C00019308BD3C02030008B5024B1B681B6877
:10439C00019308BD4C02030008B5024B1B685B6817
:1043AC00019308BD4C02030008B5024B1B681B6946
:1043BC00019308BD4C02030008B5024B1B685B69F6
:1043CC00019308BD4C02030008B5024B1B689B69A6
:1043DC00019308BD4C02030008B5024B1B68DB6956
:1043EC00019308BD4C02030008B5024B1B681B6A05
:1043FC00019308BD4C02030008B5024B1B685B68B7
:10440C00019308BD2002030008B5024B1B685B69D1
:10441C00019308BD2002030008B5034B1B68D3F8B9
:10442C008830019308BD00002002030008B5034B3F
:10443C001B68D3F89430019308BD000020020300E0
:10444C0008B5024B1B68DB6B019308BD44020300EB
:10445C0008B5024B1B685B68019308BD4002030062
:10446C0008B5024B1B689B68019308BD4002030012
:10447C0008B5024B1B68DB68019308BD40020300C2
:10448C0008B5024B1B681B69019308BD4002030071
:10449C0008B5024B1B685B69019308BD4002030021
:1044AC0008B5024B1B689B69019308BD40020300D1
:1044BC0008B5024B1B68DB69019308BD4002030081
:1044CC0008B5024B1B681B6A019308BD4002030030
:1044DC0008B5024B1B681B6B019308BD400203001F
:1044EC0008B5024B1B685B6B019308BD40020300CF
:1044FC0008B5024B1B681B68019308BD1C02030026
:10450C0008B5024B1B685B68019308BD1C020300D5
:10451C0008B5024B1B685B6A019308BD1C020300C3
:10452C0008B5024B1B685B6C019308BD1C020300B1
:10453C000021FFF769BF10B50446006808B1FFF70A
:10454C0053FE204610BD000010B5064C002320463B
:10455C002360FFF741FE2046034A0449BDE81040A2
:10456C0000F0F6BC44E6032020E6032043450D0092
:10457C0010B58368044613B10322014698472046C0
:10458C0010BD002240681146FFF79ABF0022406818
:10459C001146FFF7A5BF40680022FFF799BF40689E
:1045AC00002281F00101FFF783BF002340681A4607
:1045BC001946FFF775BF002340681A461946FFF7E6
:1045CC0067BF002240681146FFF75ABF00224068BF
:1045DC001146FFF745BF406800220221FFF748BF94
:1045EC00002340681A46FFF733BF0000024B03223A
:1045FC005A60024A1A60704748E6032048500D0082
:10460C007047F8B5064615460C468F18BC4206D0C6
:10461C00336814F8011B9B6830469847F6E7284628
:10462C00F8BD007C0022FFF70FBE007C0021FFF7D5
:10463C0013BE007C0021FFF717BE007C0021FFF7A2
:10464C001BBE007C0021FFF71FBE10B514210446D1
:10465C0000F083FC204610BD10B54FF47A7304466D
:10466C0008460021C4E90113034B23602074114652
:10467C00FFF71AFE204610BD7C500D00704710B598
:10468C001821044600F069FC204610BDF0B5037DEE
:10469C00062B8DB00E4600F104074FF0000412D02B
:1046AC0000F1080515F8011D0A22304600F03FF90B
:1046BC00AF42044419D0002CF4D02E21304600F027
:1046CC0027F90444EEE72F236A4639460A208DF871
:1046DC000040FFF7F1FD684600F08CFC33680246A1
:1046EC00DB68694630469847044620460DB0F0BD5D
:1046FC0010B5054B0446112240F8043B002100F094
:10470C004DFC204610BD00BFA4500D000346074AC7
:10471C0010B543F8042B01F1100251F8044B43F887
:10472C00044B9142F9D10A781A7010BDA4500D00B7
:10473C0010B59DF8084044EA032343EA024242EADA
:10474C00016104234160037510BD13B5CB78009350
:10475C008B784A780978FFF7EBFF02B010BD0000A8
:10476C00014B024A1A60704750E60320B0500D000E
:10477C00002340681A46FFF76BBE406800220221F6
:10478C00FFF776BE002240681146FFF769BE002293
:10479C0040681146FFF774BE002340681A4619465C
:1047AC00FFF776BE002340681A461946FFF778BE1D
:1047BC004068002281F00101FFF77ABE40680022B8
:1047CC00FFF786BE002240681146FFF789BE002223
:1047DC0040681146FFF774BE2DE9F043002495B0F4
:1047EC0016460D460746FFF783FF214618220EA8F2
:1047FC00009400F0D3FB4023CDE90C3421466B46EA
:10480C000CAA3046FFF768FD0446002846D1024644
:10481C0001216868FFF734FE022180462246686851
:10482C00FFF72EFE009E81462146002E36D0002931
:10483C0034D17368022B03D00A2B0BD0F669F4E742
:10484C00B8F1000F04D0716938460431FFF77DFFD1
:10485C004146F3E7B9F1000F01D14946EEE774691F
:10486C00102201A800F09AFB06238DF8143001AD3C
:10487C0004F108031834186859682A4603C208332F
:10488C00A3421546F7D101A906A807ADFFF73EFFD5
:10489C000FCD3C1D0FC42B682370DEE70098FFF78B
:1048AC0013FD384615B0BDE8F0830000024B034AF7
:1048BC001A6000225A60704754E60320BC500D0069
:1048CC00F8B506460D468F180024BD420CD033684F
:1048DC0015F8011B9B6830469847031E01DB1C44EE
:1048EC00F3E7002C08BF1C462046F8BD13B5044660
:1048FC00084659B1019100F07DFB23680199DB68F2
:10490C000246204602B0BDE81040184702B010BD68
:10491C0003689B68184738B50D210546FFF7F8FF6B
:10492C000A2104462846FFF7F3FF204438BD30B572
:10493C008BB000238DF82430012A98BF0A2209ACD1
:10494C000D46B1FBF2F101FB125303F0FF03092BEF
:10495C0094BF30333733DBB2AA4204F8013DEFD9B0
:10496C002146FFF7C3FF0BB030BD2DE9F04186B0F7
:10497C0000AF05460E46381D142114463B60FFF768
:10498C00C7FD13280ED8391D2846FFF7AFFF044684
:10499C001EB12846FFF7BFFF044420461837BD461A
:1049AC00BDE8F08100F1080323F00703E846ADEB06
:1049BC00030D2246411C3B686846FFF7A9FD69467A
:1049CC002846FFF793FF0446C546E1E710B50446B9
:1049DC00FFF7CEFD204610BD0348044A04490023CE
:1049EC00836000F0B5BA00BF5CE6032020E603202C
:1049FC00D9490D0010B5044608462170FFF774FC28
:104A0C0000236360204610BD10B5094B094C0222EF
:104A1C0000201A60084B2060A080A071A360FFF7F3
:104A2C00EBFC2046054A0649BDE8104000F090BA60
:104A3C0078E603206CE603200000FFFF20E603204D
:104A4C00AB400D00024B1A68024B1A60704700BF56
:104A5C00B8E503207CE6032070474174704708B525
:104A6C00007CFFF789FC20EAE07008BD08B5007CEB
:104A7C00FFF75AFC20EAE07008BD08B5007CFFF790
:104A8C0063FC40EAE07008BD08B5007CFFF754FCFD
:104A9C0040EAE07008BD007CFFF75EBC37B5457C92
:104AAC0004462DB1207C03B0BDE83040FFF734BC88
:104ABC00007C0191FFF760FC00280199F2DC28468C
:104ACC0003B030BD10B51421044600F046FA204660
:104ADC0010BD000010B54FF0000C044608461146FE
:104AEC004FF47A72C4E901C2044A22600122207494
:104AFC0062741A46FFF708FC204610BD0C510D00DD
:104B0C0013B50E4C2178BFF35B8F11F0010112D15C
:104B1C0020460191FFF7BBFA019960B1084A094B95
:104B2C000948FFF7D7FF2046FFF7B6FA074A0849AE
:104B3C00054800F00DFA044802B010BD80E60320D1
:104B4C0084E6032008E703208CE7032020E60320FB
:104B5C00654A0D0041747047704708B50021007C10
:104B6C00FFF732FC40EAE07008BD08B50121007C7B
:104B7C00FFF72AFC40EAE07008BD08B5007CFFF79F
:104B8C001BFC20EAE07008BD08B5007CFFF70CFCAC
:104B9C0020EAE07008BD13B50446007C0191FFF7D4
:104BAC000BFC0028019901DC607C20B1207CFFF714
:104BBC0013FC20EAE07002B010BD007CFFF714BCBF
:104BCC0010B51421044600F0C8F9204610BD0000B1
:104BDC0010B54FF47A73044608460021C4E901135A
:104BEC00044B23600123207463741146FFF7CCFB44
:104BFC00204610BD3C510D00007C0022FFF7CCBBC1
:104C0C0010B514220446002100F0C8F9204610BD4E
:104C1C0010B5104C88B003A8FFF7F2FF2178BFF352
:104C2C005B8F11F0010111D120460191FFF72FFA92
:104C3C00019958B103AA0848FFF7CAFF2046FFF7AD
:104C4C002BFA064A0649044800F082F9024808B0DB
:104C5C0010BD00BFA0E70320A4E7032020E603203B
:104C6C00654B0D00002240681146FFF709BC00227D
:104C7C0040681146FFF724BC002240681146FFF73C
:104C8C002FBC40680022FFF723BC4068002281F053
:104C9C000101FFF70DBC002340681A461946FFF7C7
:104CAC00FFBB002340681A461946FFF7F1BB0022F0
:104CBC0040681146FFF7D4BB406800220221FFF781
:104CCC00D7BB002340681A46FFF7C2BB024B042235
:104CDC005A60024A1A607047B8E703206C510D0005
:104CEC00014B1860704700BFBCE5032008B50B4BA7
:104CFC0043B1FFF78DFF03681B699847002801DD5E
:104D0C00AFF30080064B43B1FFF7FAFE03681B6953
:104D1C009847002801DDAFF3008008BD00000000BB
:104D2C000000000008B5FFF7E1FFFFF76DFA014B3B
:104D3C00186008BDD4E703200248034A0349121A3D
:104D4C0000F01EB900F4032004F40320C0510D0040
:104D5C0007B5002300931A466FF07701FFF766FB47
:104D6C0003B05DF804FB000007B543880A2B08D09C
:104D7C00502B0BD1094B1B684BB103B05DF804EB06
:104D8C001847FFF7E5FF03B05DF804FB0023009321
:104D9C001A466FF07701FFF749FBF4E7C4E70320ED
:104DAC0038B5124C1248134D0021FFF7B9FB23689C
:104DBC00AB42114B0CBF012200221A7002D0FFF73C
:104DCC00BBFF2560FFF718FA044600F0EFF80B4B19
:104DDC0013B12046AFF3008000210848FFF730FBE9
:104DEC00BDE8384006480021FFF716BB00F403204D
:104DFC00ED4C0D001E1C279AC0E70320000000009C
:104E0C00754D0D00232813B502D9002002B010BD3A
:104E1C00A0F10B03022B1AD8174C2178BFF35B8F30
:104E2C0011F001010BD120460191FFF730F90199E6
:104E3C0028B11248FFF7DEFD2046FFF72DF90F4B86
:104E4C001878FFF759FA0028DFD10120DEE7012896
:104E5C0009D800F055F80021007CFFF71DFA80F00E
:104E6C000100C0B2D2E709380128EED8FFF748FE9E
:104E7C00007CFFF779FAF2E7C8E70320CCE70320C0
:104E8C00232838B504460D460AD8FF2908D0FFF769
:104E9C00B9FF28B129462046BDE83840FFF7C4B910
:104EAC0038BD0D2810B504469CBF0E34A4B2204664
:104EBC00FFF7A8FF50B103212046FFF7ADF90328F7
:104ECC0004D12046BDE81040FFF7B6B9002010BD54
:104EDC0038B50023202543801423044603808560C5
:104EEC0005610649284600F03AF8044960602846F6
:104EFC0000F035F8E060204638BD00BF98510D0039
:104F0C0030B50F4D2978BFF35B8F11F0010487B0DA
:104F1C0013D12846FFF7BBF878B101A8FFF7D8FFEB
:104F2C0001AA21460748FFF797FB2846FFF7B4F87C
:104F3C00054A0649034800F00BF8024807B030BD9B
:104F4C00D8E70320DCE7032020E603200D460D0004
:104F5C000B460146184600F005B8FFF796B8FFF768
:104F6C0092B8000010B5054C13462CB10A46014608
:104F7C000220AFF3008010BD2046FCE700000000CB
:104F8C000A44914200F1FF3300D1704710B511F87B
:104F9C00014B03F8014F9142F9D110BD0244034675
:104FAC00934200D1704703F8011BF9E738B50D4B5C
:104FBC001D68AB6B04467BB91820FFF799FA0A4AB7
:104FCC000A4BA863C0E90023094B83600B23838140
:104FDC0001220023C0E90423AB6B00221C615A613F
:104FEC0038BD00BFBCE503200E33CDAB34126DE6EB
:104FFC00ECDE0500034613F8012B002AFBD1181A2E
:10500C00013870471D400D0059400D0081400D00C6
:10501C0085400D000000000053797374656D2052BB
:10502C00656164792E2E2E005A65726F004F6E6585
:10503C00000000000000000000000000ED450D0025
:10504C00E3450D00D9450D00CF450D00C3450D00BE
:10505C00B7450D00AB450D00A3450D0099450D005E
:10506C008F450D00E5470D0000000000000000001A
:10507C000D460D0057460D002F460D000F460D0036
:10508C0037460D003F460D0047460D004F460D00BC
:10509C00000000000000000099460D0089460D003C
:1050AC008B460D00617070000000000000000000D5
:1050BC007D470D0087470D0091470D009B470D0064
:1050CC00A5470D00B1470D00BD470D00C9470D00A8
:1050DC00D1470D00DB470D00E5470D0025592D2567
:1050EC006D2D25645425483A254D3A2553257A00D3
:1050FC0061736374696D65000000000000000000BE
:10510C00654A0D00D14A0D00A94A0D00CD480D008D
:10511C00794A0D00954A0D00874A0D00A34A0D00EF
:10512C00674A0D006B4A0D000000000000000000F3
:10513C00654B0D00CD4B0D00A34B0D00CD480D0064
:10514C00954B0D00674B0D00774B0D00C74B0D00B9
:10515C00874B0D00614B0D000000000000000000AB
:10516C00CF4C0D00C54C0D00BB4C0D00714C0D000F
:10517C00AF4C0D00A34C0D00974C0D008F4C0D0047
:10518C00854C0D007B4C0D00E5470D000000000028
:10519C00B1410D0055450D00F9450D006D470D0051
:1051AC00B9480D00E5490D00154A0D00514A0D0096
:0451BC00D94C0D00BD
:0451C00000000000EB
:1051C4000C000000080000000A00000007000000B6
:1051D40003000000FC500D00C0E5032000000000A7
:1051E40000000000000000000000000000000000BB
:1051F40000000000000000000000000000000000AB
:10520400000000000000000000000000000000009A
:10521400000000000000000000000000000000008A
:10522400000000000000000000000000000000007A
:0C5234000000000000000000000000006E
:10524000FFFFFFFF00000102030405060708090A2B
:105250000B0C0D0E0F101112131415161718191A26
:085260001B1C1D1E1F2028006D
:04526800785634122E
:04000003D000401CCD
:00000001FF
