:02000002D0002C
:1040000000400D00685B0D00000006000C0005017B
:084010000401E80500000000B6
:0440180050570D00F0
:10401C0009480A49884208B505D0094A824202D0AB
:10402C00121A01F04BFB0748074A0021121A01F043
:10403C0050FB014808BD00BF44E20320A45A0D0008
:10404C00E0E20320E0E20320F0E7032070B501F08A
:10405C00DDF8074C074BE41AA40800251E46A542C0
:10406C0004D056F8253098470135F8E770BD00BFED
:10407C00A05A0D005C5A0D0000F02CB808B500F0E9
:10408C0091F8BDE8084001F083B800F0AFBB00F038
:10409C00ADBB0078B0FA80F0400970470123037083
:1040AC0070470000024A137883F0010313707047C5
:1040BC00E8E20320024A137883F00103137070477F
:1040CC00C8E3032010B50446006808B100F08EFB6D
:1040DC00204610BD10B500F0D9FF4FF4165100F07A
:1040EC00C9FF01210E2001F0F3F80121122001F08B
:1040FC00EFF80321052001F0EBF80E4C032106200C
:10410C0001F0E6F80121122001F0E2F820460A49FC
:10411C0000F00DF92046094CFA2100F006F9204672
:10412C00074900F004F92046FA21BDE8104000F0E0
:10413C00FCB800BF60E30320B1400D00ECE20320AB
:10414C00C1400D0008B501210E2001F0D2F8074B3B
:10415C00186800F05BFB0E20002101F0CAF8044B3C
:10416C001868BDE8084000F051BB00BF5CE20320BA
:10417C0058E2032008B501210E2001F0BAF8074BD4
:10418C00186800F043FB0E20002101F0B2F8044B3C
:10419C001868BDE8084000F039BB00BF74E203208A
:1041AC0058E203202DE9F8432A482B4C00F043F940
:1041BC002A4800F040F90121122001F09AF800F091
:1041CC0065FF2378264A002100F0FBFD2378264664
:1041DC00002B3DD0234CDFF8989000232360A046A1
:1041EC0027462368042B16DC0023C8F800301D4634
:1041FC002368042B0CDC59F823300BB9FFF7A2FF12
:10420C002368032B03F10103D8BF35702360EFE75C
:10421C0001333B60E5E7144E3378CBB1114A134FB1
:10422C00002313601D462368042B11DC57F8233040
:10423C0013B9FFF787FF03E0012B01D1FFF79AFFBA
:10424C002368032B03F10103D8BF35702360EAE721
:10425C00BDE8F88360E30320E8E20320ECE20320EE
:10426C0064570D00E4E20320C8E3032044E203207A
:10427C0060E2032070B5104D00F034F900244FF6C5
:10428C00FF7302206B812C60AC80AC712C8100F030
:10429C0029FA0A4A0A49284601F098F82346224688
:1042AC000521084800F014F823462246062106484A
:1042BC00BDE8704000F00CB854E30320E0E20320AA
:1042CC00D1400D0060E30320ECE2032000F00AB9BA
:1042DC0038B504460846322161604FF4167100254A
:1042EC00A1604FF47A71E1602575A561E5612562E5
:1042FC006562A562E56225636563A563E563256474
:10430C006564A56425656565A565E56520600AB1EC
:10431C00256101E00122226180B20BB1022100E093
:10432C00194600F0D5FF204638BD81607047816189
:10433C00704770B504460D4600F0CCF8E36D1BB920
:10434C00002D77D0012347E0012B2AD1226E821A4F
:10435C0045B963689A4201D200231AE00223E3654F
:10436C00606670BDE1688A4215D92375236B60665F
:10437C0003B19847A36B03B19847E36B0BB1206C67
:10438C009847236D03B19847636D0BB1A06D9847A7
:10439C000623E36570BD636B002B4BD0BDE870400A
:1043AC001847022B1BD1636A0BB9A36A23B1236E86
:1043BC00A268C31A934207D9A36903B19847E3696A
:1043CC00002BC9D0206A1AE0002D33D0636E6268CE
:1043DC00C31A93422ED90323E365206670BD032BC9
:1043EC000FD13DBB236E6268C31A934222D9636A14
:1043FC00606603B19847A36A002BADD0E06A98477A
:10440C00AAE7062B16D14DB9636C2575606603B10E
:10441C009847A36C002B9FD0E06CF0E70123237529
:10442C00236D606603B19847636D1BB1A06DBDE849
:10443C007040184770BD10B50446006800280BDBAF
:10444C0080B200F06FFF21690B1A59422046594186
:10445C00BDE81040FFF76DBF10BD00F043B8000081
:10446C0008B500F03FF800F03DF8014B186008BDAE
:10447C00D8E3032008B5024B1B689B68019308BD69
:10448C004802030008B5024B1B681B69019308BD69
:10449C004802030008B5024B1B685B69019308BD19
:1044AC004802030008B5024B1B685B6C019308BD06
:1044BC004802030008B5024B1B689B6C019308BDB6
:1044CC004802030008B5024B1B685B68019308BDEA
:1044DC001802030008B5024B1B685B69019308BD09
:1044EC001802030008B5024B1B681B68019308BD3A
:1044FC002C02030008B5024B1B689B68019308BD96
:10450C002C02030008B5024B1B68DB68019308BD45
:10451C002C02030008B5024B1B681B69019308BDF4
:10452C002C02030008B5024B1B685B69019308BDA4
:10453C002C02030008B5024B1B681B6A019308BDD3
:10454C002802030008B5024B1B685B6A019308BD87
:10455C002802030008B5024B1B689B6A019308BD37
:10456C002802030008B5024B1B68DB6A019308BDE7
:10457C002802030008B5024B1B681B6B019308BD96
:10458C002802030008B5024B1B685B6B019308BD46
:10459C002802030008B5024B1B681B6C019308BD75
:1045AC002802030008B5024B1B685B69019308BD28
:1045BC006402030008B5024B1B689B68019308BD9D
:1045CC006802030008B5024B1B68DB68019308BD49
:1045DC006802030008B5024B1B68DB69019308BD38
:1045EC003002030008B5024B1B681B6A019308BD1F
:1045FC003002030008B5024B1B681B68019308BD11
:10460C003C02030008B5024B1B68DB68019308BD34
:10461C003C02030008B5024B1B681B69019308BDE3
:10462C003C02030008B5024B1B685B69019308BD93
:10463C003C02030008B5024B1B689B69019308BD43
:10464C003C02030008B5024B1B68DB69019308BDF3
:10465C003C02030008B5024B1B681B6A019308BDA2
:10466C003C02030008B5024B1B689B6A019308BD12
:10467C003C02030008B5024B1B681B68019308BD84
:10468C004C02030008B5024B1B685B68019308BD24
:10469C004C02030008B5024B1B681B69019308BD53
:1046AC004C02030008B5024B1B685B69019308BD03
:1046BC004C02030008B5024B1B689B69019308BDB3
:1046CC004C02030008B5024B1B68DB69019308BD63
:1046DC004C02030008B5024B1B681B6A019308BD12
:1046EC004C02030008B5024B1B685B68019308BDC4
:1046FC002002030008B5024B1B685B69019308BDDF
:10470C002002030008B5034B1B68D3F888300193D3
:10471C0008BD00002002030008B5034B1B68D3F84A
:10472C009430019308BD00002002030008B5024B31
:10473C001B68DB6B019308BD4402030008B5024BF8
:10474C001B685B68019308BD4002030008B5024B6F
:10475C001B689B68019308BD4002030008B5024B1F
:10476C001B68DB68019308BD4002030008B5024BCF
:10477C001B681B69019308BD4002030008B5024B7E
:10478C001B685B69019308BD4002030008B5024B2E
:10479C001B689B69019308BD4002030008B5024BDE
:1047AC001B68DB69019308BD4002030008B5024B8E
:1047BC001B681B6A019308BD4002030008B5024B3D
:1047CC001B681B6B019308BD4002030008B5024B2C
:1047DC001B685B6B019308BD4002030008B5024BDC
:1047EC001B681B68019308BD1C02030008B5024B33
:1047FC001B685B68019308BD1C02030008B5024BE3
:10480C001B685B6A019308BD1C0203000021FFF7C3
:10481C0071BF10B50446006808B1FFF74BFE204687
:10482C0010BD000010B5064C002320462360FFF796
:10483C0039FE2046034A0449BDE8104000F0C6BDCD
:10484C00DCE30320E0E203201F480D0010B5836871
:10485C00044613B1032201469847204610BD00229E
:10486C0011464068FFF7A2BF002211464068FFF7CF
:10487C00ADBF00224068FFF7A1BF002281F001010B
:10488C004068FFF78BBF00231A4619464068FFF7B4
:10489C007DBF00231A4619464068FFF76FBF002200
:1048AC0011464068FFF762BF002211464068FFF7CF
:1048BC004DBF002202214068FFF750BF00231A466B
:1048CC004068FFF73BBF0000024B03225A60024ACC
:1048DC001A607047E0E3032080570D007047F8B56D
:1048EC00064615460C468F18BC4206D0336814F8A1
:1048FC00011B9B6830469847F6E72846F8BD002216
:10490C00007CFFF717BE0021007CFFF71BBE0021C7
:10491C00007CFFF71FBE0021007CFFF723BE0021A7
:10492C00007CFFF727BE10B51421044600F053FDA0
:10493C00204610BD10B50446002363604FF47A7313
:10494C00A360044B2174084623601146FFF722FE36
:10495C00204610BDB4570D000021007CFFF712BE9D
:10496C00704710B51821044600F035FD204610BDE7
:10497C00F0B5037D062B8DB00E4600F104074FF009
:10498C00000402D000F1080518E00CAD394605F81A
:10499C00304D2F232A460A20FFF704FE284600F04C
:1049AC00C9FE33680246DB682946304698470FE05B
:1049BC0024B12E21304600F0D5F9044415F8011D20
:1049CC000A22304600F0DDF9BD420444F0D1204605
:1049DC000DB0F0BD10B5054B0446112240F8043B58
:1049EC00002100F076FE204610BD00BFDC570D0004
:1049FC000346074A10B543F8042B01F1100251F895
:104A0C00044B43F8044B9142F9D10A781A7010BD4B
:104A1C00DC570D0010B59DF8084044EA032343EA27
:104A2C00024242EA016104234160037510BD37B5AF
:104A3C000D788B784A78C97800912946FFF7EAFF00
:104A4C0003B030BD014B024A1A607047E8E3032003
:104A5C005B580D00002211464068FFF7A7BE0022EC
:104A6C0011464068FFF7B2BE00224068FFF7A6BEB1
:104A7C00002281F001014068FFF790BE00231A4626
:104A8C0001214068FFF782BE00231A461946406890
:104A9C00FFF774BE002211464068FFF767BE002284
:104AAC0011464068FFF752BE002202214068FFF712
:104ABC0055BE00231A464068FFF740BE38B5054680
:104ACC0088B104684CB1A3681BB10322214620466F
:104ADC0098471021204600F07EFC28461421BDE8A2
:104AEC00384000F078BC38BD10B103685B681847DB
:104AFC00704710B503680446BBB15868FFF7BAFCA1
:104B0C0078B923685A7C12B95868FFF7BBFC236844
:104B1C005868FFF7BFFC20680023236028B1FFF71B
:104B2C00CDFF206808B1FFF7C9FF204610BD38B58E
:104B3C000446D0F8C40108B1FFF7A9FAD4F8C001B3
:104B4C0008B1FFF7B7FCD4F8BC5135B12846FFF7D4
:104B5C00D0FF0421284600F03EFC206808B1FFF786
:104B6C00C3FF204638BD000010B5044B044640F886
:104B7C00083BFFF7DCFF204610BD00BFD4580D00EA
:104B8C0038B50E4C0E4B23600025022304F5E4705F
:104B9C006360A560C4F8C451C4F8C851FFF782FC27
:104BAC00084BC4F8CC5184F8D05123602046064AF7
:104BBC000649BDE8384000F009BC00BFECE3032017
:104BCC0008590D00D4580D00E0E20320754B0D0080
:104BDC0000231A464068FFF7B1BD0022022140684D
:104BEC00FFF7BCBD002211464068FFF7AFBD0022A5
:104BFC0011464068FFF7BABD00231A4619464068B3
:104C0C00FFF7BCBD00231A4619464068FFF7BEBD2E
:104C1C00002281F001014068FFF7C0BD002240680E
:104C2C00FFF7CCBD002211464068FFF7CFBD002234
:104C3C0011464068FFF7BABD2DE9F043002495B04A
:104C4C0016460D460746FFF7C5FE214620220CA846
:104C5C00009400F03EFD40230C9321466B460CAAB9
:104C6C003046FFF7AFFC0446002844D10246012130
:104C7C006868FFF77BFD0221804622466868FFF7D3
:104C8C0075FD009E81462146002E34D0002932D17C
:104C9C007368022B02D00A2B09D02AE0B8F1000F5E
:104CAC0027D0716938460431FFF7C1FE20E0B9F115
:104CBC00000F1ED07469112201A800F00AFD062312
:104CCC008DF8143001AD04F10803183418685968D4
:104CDC002A4603C20833A3421546F7D101A906A8F8
:104CEC0007ADFFF785FE0FCD3C1D0FC42B6823705D
:104CFC000121F669C8E70098FFF75CFC384615B04F
:104D0C00BDE8F083024B034A1A6000225A607047D8
:104D1C00C0E5032008590D00F8B506460D468F185E
:104D2C000024BD420CD0336815F8011B9B6830463B
:104D3C009847002801DB0444F3E7002C08BF044625
:104D4C002046F8BD70B505460C46084649B100F042
:104D5C00F1FC2B68024621462846DB68BDE8704012
:104D6C00184770BD03689B68184738B50D21054678
:104D7C00FFF7F8FF0A2104462846FFF7F3FF20440B
:104D8C0038BD30B58BB00B4600218DF82410012AAC
:104D9C0098BF0A220DF12304B3FBF2F505FB123385
:104DAC0003F0FF03092B94BF30333733DBB22146BA
:104DBC0004F801392B46002DEED1FFF7C3FF0BB0E1
:104DCC0030BD0CB42DE9F04387B000AF07F13804C7
:104DDC00054654F8049B3C600E4623464A46142173
:104DEC00381DFFF70BFD132805D8391D2846FFF792
:104DFC00A9FF044613E000F1080323F00703E8467B
:104E0C00ADEB030D411C23464A4668463C60FFF758
:104E1C00F5FC69462846FFF795FF0446C5461EB1CA
:104E2C002846FFF7A2FF044420461C37BD46BDE8C8
:104E3C00F04302B0704710B50446FFF707FD20465B
:104E4C0010BD00000348044A04490023836000F0AD
:104E5C00BDBA00BFC8E50320E0E20320434E0D00BD
:104E6C0010B5044601700846FFF7B4FB00236360DD
:104E7C00204610BD0078FFF7B5BB000010B5094CFB
:104E8C0000204FF6FF732060A080A0712081638109
:104E9C00FFF728FC2046044A0449BDE8104000F006
:104EAC0095BA00BFD8E50320E0E20320D1400D0005
:104EBC00024B1A68024B1A60704700BF78E203205D
:104ECC00E4E5032070474174704708B5007CFFF798
:104EDC00C9FB20EAE07008BD08B5007CFFF79AFB1F
:104EEC0020EAE07008BD08B5007CFFF7A3FB30EAB0
:104EFC00200028BF4FF0FF3008BD08B5007CFFF73D
:104F0C0091FB30EA200028BF4FF0FF3008BD007C39
:104F1C00FFF798BB10B51421044600F05CFA20464C
:104F2C0010BD70B5457C04460E4625B9007CFFF7D4
:104F3C0099FB002805DD3146207CBDE87040FFF769
:104F4C0061BB284670BD000010B5044608461146EA
:104F5C00002262604FF47A72A260054A226001223C
:104F6C00207462741A46FFF745FB204610BD00BF43
:104F7C0068590D00007CFFF76DBB000038B50C4D77
:104F8C00296811F0010411D12846FFF782F868B1A5
:104F9C00084A094B09482146FFF7D6FF2846FFF778
:104FAC007DF8074A0749054800F010FA034838BD58
:104FBC0080E6032084E60320FCE50320E8E50320DB
:104FCC00E0E20320D14E0D0041747047704708B5E4
:104FDC000021007CFFF76EFB30EA200028BF4FF069
:104FEC00FF3008BD08B50121007CFFF763FB30EAF8
:104FFC00200028BF4FF0FF3008BD08B5007CFFF73C
:10500C0051FB20EAE07008BD08B5007CFFF742FBBD
:10501C0020EAE07008BD007CFFF75CBB10B51421E2
:10502C00044600F0D8F9204610BD38B50446007C83
:10503C000D46FFF737FB002801DC607C28B12946C0
:10504C00207CFFF73FFB20EAE07038BD10B504462A
:10505C00002363604FF47A73A360054B2360012334
:10506C000846217463741146FFF704FB204610BDFB
:10507C0098590D000022007CFFF704BB10B51422D8
:10508C000446002100F025FB204610BD30B50E4D26
:10509C0087B001A8FFF7F2FF296811F0010410D1C5
:1050AC002846FEF7F6FF60B101AA21460748FFF734
:1050BC00CDFF2846FEF7F2FF054A0649034800F0EB
:1050CC0085F9024807B030BD08E703200CE7032040
:1050DC00E0E20320D94F0D00002211464068FFF793
:1050EC0045BB002211464068FFF760BB0022114609
:1050FC004068FFF76BBB00224068FFF75FBB0022E4
:10510C0081F001014068FFF749BB00231A4619469C
:10511C004068FFF73BBB00231A4619464068FFF76F
:10512C002DBB002211464068FFF710BB0022022164
:10513C004068FFF713BB00231A464068FFF7FEBA1E
:10514C00024B04225A60024A1A60704720E703207F
:10515C00C8590D0008B50C4B33B1FFF797FF036826
:10516C001B699847002809DC084B63B1FFF706FF61
:10517C0003681B699847002803DC08BDAFF3008067
:10518C00F2E7AFF3008008BD000000000000000053
:10519C0008B5FFF7DFFFFFF79DF9014B186008BD5D
:1051AC0030E703200248034A0349121A00F086BA7A
:1051BC0000F4032004F40320A05A0D0007B50023CB
:1051CC0000931A466FF07701FFF7A6FA03B05DF86B
:1051DC0004FB000007B543880A2B08D0502B09D1DB
:1051EC00094B1B683BB103B05DF804EB1847FFF7A4
:1051FC00E5FF06E0002300931A466FF07701FFF7F6
:10520C008BFA03B05DF804FB28E7032038B5104C8B
:10521C00104D2368AB42104B0CBF012200221A70B8
:10522C0002D0FFF7BFFF2560FFF74CF9044600F0F2
:10523C0059FA0A4B13B12046AFF3008000210748FE
:10524C00FFF774FA00210648BDE83840FFF75ABA58
:10525C0000F403201E1C279A2CE7032000000000FA
:10526C00E1510D0070B5184E316811F0010504467E
:10527C000AD13046FEF70DFF30B129461348FFF72F
:10528C00EFFD3046FEF70AFF1048FFF7F3FD28B19B
:10529C00A4F10B03022B01D8002070BD00F070F8B4
:1052AC00FFF75AFB08B1012CF6D9FFF767FEFFF7A1
:1052BC0061FE18B1A4F10903012BEDD9232C8CBF8D
:1052CC000020012070BD00BFCCE30320D0E30320FD
:1052DC00232838B504460D460AD8FF2908D0FFF715
:1052EC00C1FF28B129462046BDE83840FFF702B976
:1052FC0038BD38B504460D46FFF704F9FF2810D029
:10530C00062804D84D2323FA00F0C30709D42046FD
:10531C00FFF7A8FF28B129462046BDE83840FFF723
:10532C00F9B838BD10B50446FFF7ECF80438C0B234
:10533C00012808D92046FFF795FF20B12046BDE88B
:10534C001040FFF7EFB8002010BD000070B5044608
:10535C0014252A46094E002100F0BBF92580202592
:10536C003146A5602561284600F04FF83146606053
:10537C00284600F04AF8E060204670BDF4590D0054
:10538C0030B50E4D296811F0010487B013D12846B1
:10539C00FEF77FFE78B101A8FFF7D8FF01AA2146DE
:1053AC000748FFF7C7FA2846FEF778FE054A064974
:1053BC00034800F00BF8024807B030BD34E7032077
:1053CC0038E70320E0E20320E9480D000B460146D4
:1053DC00184600F065B9FEF758BE0000024B18687D
:1053EC00BFF35F8F704700BF4CE7032010B5002858
:1053FC0014BF044601242046FFF7F0F920B9FFF74B
:10540C00EDFF08B18047F6E710BDFFF7EFBF0000D6
:10541C00244B1A68D0075CBF01221A60224B1A6811
:10542C00D1075CBF01221A60204B1A68D2075CBFFF
:10543C0001221A601E4B1A68D0075CBF01221A6049
:10544C001C4B1A68D1075CBF01221A601A4B1A68F0
:10545C00D2075CBF01221A60184B1A68D0075CBFD8
:10546C0001221A60164B1A68D1075CBF01221A6020
:10547C00144B1A68D2075CBF01221A60124B1A68CF
:10548C00D0075CBF01221A60104B1A68D1075CBFB1
:10549C0001221A600E4B1A68D2075CBF01221A60F7
:1054AC00704700BF7CE7032078E7032074E70320F4
:1054BC0070E703206CE7032068E7032064E7032010
:1054CC0060E703205CE7032058E7032054E7032040
:1054DC0050E70320184B1A68D1075CBF01221A60F1
:1054EC00164B1A68D2075CBF01221A60144B1A685B
:1054FC00D0075CBF01221A60124B1A68D1075CBF3F
:10550C0001221A60104B1A68D2075CBF01221A6084
:10551C000E4B1A68D0075CBF01221A600C4B1A683C
:10552C00D1075CBF01221A600A4B1A68D2075CBF14
:10553C0001221A60704700BF9CE7032098E7032004
:10554C0094E7032090E703208CE7032088E70320EF
:10555C0084E7032080E70320184B1A68D1075CBF4F
:10556C0001221A60164B1A68D2075CBF01221A601E
:10557C00144B1A68D0075CBF01221A60124B1A68D0
:10558C00D1075CBF01221A60104B1A68D2075CBFAE
:10559C0001221A600E4B1A68D0075CBF01221A60F8
:1055AC000C4B1A68D1075CBF01221A600A4B1A68AF
:1055BC00D2075CBF01221A60704700BFBCE7032012
:1055CC00B8E70320B4E70320B0E70320ACE70320DF
:1055DC00A8E70320A4E70320A0E70320244B1A68C4
:1055EC00D0075CBF01221A60224B1A68D1075CBF3E
:1055FC0001221A60204B1A68D2075CBF01221A6084
:10560C001E4B1A68D0075CBF01221A601C4B1A682B
:10561C00D1075CBF01221A601A4B1A68D2075CBF13
:10562C0001221A60184B1A68D0075CBF01221A605D
:10563C00164B1A68D1075CBF01221A60144B1A680A
:10564C00D2075CBF01221A60124B1A68D0075CBFEC
:10565C0001221A60104B1A68D1075CBF01221A6034
:10566C000E4B1A68D2075CBF01221A60704700BF4C
:10567C00ECE70320E8E70320E4E70320E0E703205E
:10568C00DCE70320D8E70320D4E70320D0E703208E
:10569C00CCE70320C8E70320C4E70320C0E70320BE
:1056AC0010B5054C13462CB10A4601460220AFF347
:1056BC00008010BD204610BD0000000010B5431E38
:1056CC000A44914204D011F8014B03F8014FF8E75A
:1056DC0010BD02440346934202D003F8011BFAE7C3
:1056EC007047000038B5124B1C68A36B0546D3B944
:1056FC001820FFF773F843F20E33A06303804AF6C9
:10570C00CD33438041F2342383804EF26D63C380EA
:10571C004DF6EC630381052343810B238381012226
:10572C000023C0E90423A36B00221D615A6138BD1C
:10573C00DCE20320034613F8012B002AFBD1181AD4
:10574C00013870471D400D0059400D0085400D007B
:10575C0089400D0000000000427574746F6E205378
:10576C00746174653A2025690A000000000000008D
:10577C0000000000C9480D00BF480D00B5480D00E1
:10578C00AB480D009F480D0093480D0087480D0055
:10579C007F480D0075480D006B480D00454C0D0001
:1057AC000000000000000000E9480D0033490D0026
:1057BC000B490D00EB480D0013490D001B490D0062
:1057CC0023490D002B490D000000000000000000D3
:1057DC007D490D006D490D006F490D0062617564C6
:1057EC000053657269616C0053657269616C3100BC
:1057FC007479706500706172616D00636D6400692D
:10580C006400686E64007374726D0066696C740079
:10581C006C766C0061646448616E646C65720072D5
:10582C00656D6F766548616E646C657200656E754A
:10583C006D48616E646C657273004A534F4E5374BD
:10584C007265616D4C6F6748616E646C6572006166
:10585C00707000253031307520005D20002564000B
:10586C002C200028293A2000205B00636F646520FF
:10587C003D200025690064657461696C73203D20CE
:10588C00000D0A0066006C6E00666E00636F646546
:10589C000064657461696C006E6F6E650074726192
:1058AC00636500696E666F007761726E0065727277
:1058BC006F720070616E696300616C6C00000000B7
:1058CC000000000000000000BF4A0D00B54A0D00AA
:1058DC00AB4A0D00A14A0D00954A0D00894A0D00F6
:1058EC007D4A0D00754A0D006B4A0D00614A0D0092
:1058FC00454C0D000000000000000000DD4B0D00C9
:10590C00E74B0D00F14B0D00FB4B0D00054C0D0052
:10591C00114C0D001D4C0D00294C0D00314C0D008F
:10592C003B4C0D00454C0D005A00252B3033643A8E
:10593C00253032750025592D256D2D2564542548AB
:10594C003A254D3A2553257A0061736374696D6568
:10595C00000000000000000000000000D14E0D000F
:10596C00214F0D002F4F0D00254D0D00E54E0D0064
:10597C00074F0D00F34E0D001B4F0D00D34E0D00C5
:10598C00D74E0D000000000000000000D94F0D00A4
:10599C0029500D0037500D00254D0D0015500D00F0
:1059AC00DB4F0D00F14F0D0023500D0007500D0083
:1059BC00D54F0D00000000000000000043510D0009
:1059CC0039510D002F510D00E5500D0023510D00E4
:1059DC0017510D000B510D0003510D00F9500D0026
:1059EC00EF500D00454C0D000000000000000000C1
:1059FC00000000000000000000000000000000009B
:105A0C00000000000000000000000000000000008A
:105A1C00000000000000000000000000000000007A
:105A2C00000000000000000000000000000000006A
:105A3C00000000000000000000000000000000005A
:105A4C000000000000000000000000004300000007
:105A5C0081420D00D9420D0067440D006D440D00CC
:105A6C0031480D00D5480D00514A0D008D4B0D00ED
:105A7C00114D0D00514E0D00894E0D00BD4E0D0007
:105A8C004D510D001D540D00E1540D0065550D00D8
:045A9C00E9550D00BB
:045AA0000000000002
:105AA40000000000010000000000000001000000F0
:105AB400010000000A0000000500000001000000D1
:105AC40000000000010000000000000000000000D1
:105AD4000A00000055590D0000000000F8590D009F
:105AE400185A0D00385A0D00000000000000000094
:105AF4000000000000000000585A0D0000000000E3
:105B04000000000000000000000000000000000091
:105B14000000000000000000000000000000000081
:105B24000000000000000000000000000000000071
:0C5B340000000000000000007CE20320E4
:105B4000FFFFFFFF00000102030405060708090A22
:105B50000B0C0D0E0F101112131415161718191A1D
:085B60001B1C1D1E1F20280064
:045B68007856341225
:04000003D000401CCD
:00000001FF
