:02000002D0002C
:1040000000400D0038740D00000006000C00050192
:084010000401E80500000000B6
:044018001C660D0015
:10401C0009480A49884208B505D0094A824202D0AB
:10402C00121A02F0B1FA0748074A0021121A02F0DC
:10403C00B6FA014808BD00BFBCDE0320846F0D003A
:10404C0048E3032048E30320F0E7032070B501F0B8
:10405C00F7FF074C074BE41AA40800251E46A5429F
:10406C0004D056F8253098470135F8E770BD00BFED
:10407C007C6F0D00386F0D0000F02CB808B500F007
:10408C0003F9BDE8084001F09DBF01F083B901F0D0
:10409C0081B9000008B5034A00210C2001F0EEF8AC
:1040AC00FEE700BF594F0D000078B0FA80F04009D0
:1040BC007047012303707047704710B504460068C1
:1040CC0008B101F067F9204610BD0A46002101F045
:1040DC006CBC000013B501F0F3FE4FF4165101F067
:1040EC00E3FE0024B4234FF40872019300944FF4C0
:1040FC0016630521184801F0F7FC21460E20174CD9
:10410C0002F000F80121072001F0FCFF3C22022103
:10411C00204600F097FD204600F066FE204600F099
:10412C0029FD2046022100F03DFB0121204600F034
:10413C003EFB4FF47A7001F049F901F0C1FE0849D9
:10414C00FFF7C3FF07492046FFF7BFFF204602B029
:10415C00BDE8104000F048BE50E3032098E3032074
:10416C0030660D0040660D0010B5104C204600F076
:10417C0001FD00221146204600F011FB0C4920469F
:10418C00FFF7A3FF204600F02FFE6421094801F041
:10419C006CFCFF21072001F0F6FF01F091FE0649AF
:1041AC00FFF793FF054B01221A7010BD98E3032013
:1041BC0053660D0050E303206D660D00C9E3032028
:1041CC0010B5104C204600F0D5FC002211462046BC
:1041DC0000F0E5FA0C492046FFF777FF204600F087
:1041EC0003FE3221094801F040FC1421072001F0A4
:1041FC00CAFF01F065FE0649FFF767FF054B012278
:10420C001A7010BD98E303207A660D0050E303206A
:10421C0097660D00C9E30320154B1B6893B9154B2A
:10422C001B6823BB144B1B68012B20D1134B1B6841
:10423C00EBB9134B1B68012B19D1124B1B78B3B97B
:10424C00FFF7BEBF012B12D10A4B1B68012B0ED1FD
:10425C00094B1B685BB9094B1B68012B07D1084B39
:10426C001B6823B9074B1B780BB9FFF77DBF704751
:10427C00C4E3032080E303204CE30320CCE30320BE
:10428C0060E30320C9E3032073B53A4C3A4D0E208A
:10429C0001F062FF23682860052B01D1FFF7BCFFFA
:1042AC002368052B05DD334B01221A60334B0022AA
:1042BC001A70334E33786BB9324B2A681B689A42AA
:1042CC0008DD00F04BFE304B18600123337023687F
:1042DC000133236033782D4E002B3AD0294B2A68BA
:1042EC001B689A4235DA00F039FE294B1860244BD2
:1042FC0000251D70244B1B68C01A264B1860264BDA
:10430C001B6898420FD9254B1B6898420BD2236827
:10431C0046F8235001F0D4FD236856F82320009270
:10432C0029461F4A13E01F4B1B68984211D91E4B9C
:10433C001B6898420DD22368012246F8232001F015
:10434C00BFFD236856F823200092184A002101F083
:10435C002CFB174B72681A60164BB2681A60164B1E
:10436C00F2681A60154B32691A607269144B1A6044
:10437C0002B070BDC0E3032064E30320C9E3032053
:10438C00C8E30320C4DE0320BCE3032068E303205E
:10439C0094E3032090E30320CCDE0320BCDE032057
:1043AC00A6660D00C8DE0320C0DE0320C3660D0028
:1043BC00C4E3032080E303204CE30320CCE303207D
:1043CC0060E3032010B52421044601F06AFF204667
:1043DC0010BD000038B5114C114D00F0C7FD002385
:1043EC002360A380A37123814FF6FF7363810220A6
:1043FC0000F04CFF20460B4C0B492A4601F04CFFB9
:10440C000421204600F0A0FB2A462046074901F073
:10441C0043FF0748BDE8384001F052BB84E303205A
:10442C0048E3032098E30320C7400D00C5400D006E
:10443C0050E303202DE9F04F85B01E46BDF938300E
:10444C00BDF83CA015469A1A002AB8BF52420092F9
:10445C00721A002AB8BF524201920C46009A019976
:10446C008A42814605DD32461E46134622462C46BC
:10447C001546B44205DD2A461D46134622463446EF
:10448C0016465A1B002AB8BF5242C4EB06089D427E
:10449C00B4BF01234FF0FF331FFA88F80293039245
:1044AC000FFA88F7022297FBF2F7B4421FDC019A4D
:1044BC00009B9342D9F80030C8BF2246D3F810B005
:1044CC00C8BF29465346DCBF2A4621464846D84732
:1044DC00039BFF1ABBB21FB2002F05DA029A08EB3E
:1044EC00030715442DB23FB2013424B2DDE705B009
:1044FC00BDE8F08F2DE9F347BDF82C600768BDF9D6
:10450C0028A000960446FF6991460D469846B84788
:10451C00236800960AF1FF324A44DF692946434674
:10452C00204612B2B847236800969F694A46534604
:10453C0029462046B84723680A9608F1FF312944DA
:10454C009D694A46534609B22046AC4602B0BDE8C6
:10455C00F047604737B5013B13440468BDF8185069
:10456C0001951BB2009364690B46A04703B030BDA4
:10457C0037B5BDF8185004688DE82400013B0B4496
:10458C0064691BB2A04703B030BD2DE9F347BDF9F8
:10459C002880BDF82C90054617460C4601EB030A03
:1045AC0054450BDA2B68CDF800909E6921464346A2
:1045BC003A4628460134B04724B2F1E702B0BDE8D0
:1045CC00F08713B5B0F90E20046801910092002217
:1045DC00B0F90C30646A1146A04702B010BD7047A8
:1045EC0030B501810024084D42818181C2814FF692
:1045FC00FF71012244600560447604824482027695
:10460C00C1828182827630BDE8660D002DE9F04FC3
:10461C008FB005460691BDF860100791BDF8641087
:10462C000891B0F90C1006989DF8688081427CDDE9
:10463C00B5F90E10914278DD062111FB0800002817
:10464C0073DD02EBC80000286FDD03EB830396B229
:10465C000C9306F108039BB2099100240D93052CD1
:10466C001CBF334B0C9A059616BF1B194FF0000953
:10467C0013F8029004961FFA88F30393039ABDF87B
:10468C00183004FB023213FA84F312B21BB20A92F2
:10469C0037460FFA88FA0B9319F0010F11D0B8F1C5
:1046AC00010F2B6803D1D3F810B0079B14E0079AC5
:1046BC000192CDF800A0D3F824B0BDF910205346D8
:1046CC0018E0079B089A934217D0B8F1010F2B689A
:1046DC0007D1D3F810B013463AB20B992846D847F5
:1046EC000BE0089A0192CDF800A0BDF91420D3F884
:1046FC0024B053460A992846D847049B039A13447E
:10470C009BB20493059B13449BB2013705930D9BFD
:10471C00BFB29F424FEA5909BED1099B013B0134FC
:10472C0013F0FF0364B2099399D10FB0BDE8F08F79
:10473C0018670D0030B50A2985B004460B4604D124
:10474C00027E438A03EBC20323E00D2924D0057EAD
:10475C00B0F91220B0F910100295C58A0195858A1E
:10476C000095FFF753FF227E238A91B201EB4100A3
:10477C0003EB4003A07E1BB2238268B1B4F90C009A
:10478C006FF0050505FB0202934205DD638A03EB1E
:10479C00C103638200232382012005B030BD018256
:1047AC0042827047002908BF012101767047C182FF
:1047BC0081827047407E7047B0F90C007047B0F9A9
:1047CC000E00704700F0D2BBF0B5447EBDF814501B
:1047DC00022C08D0032C0FD0012C70D10489013C81
:1047EC00A21A12B20CE04489013CA21A0489E41A00
:1047FC00611A12B209B262E04489E41A611A09B270
:10480C00002A5BDBB0F90840944240F39080002909
:10481C00BEBF5B181BB20021B0F90A00CC18844251
:10482C00C4BF431A1BB2002B40F38180C9B2C80825
:10483C003F4F02EBC01211F00701DBB207EB020491
:10484C0017D0C1F10801C8B23A4983420E5C3FBF90
:10485C00C3EB000EFF2141FA0EF10E40B95C012DA5
:10486C000CBF3143B1438342B95460D3181AC3B25D
:10487C008034072B17D9012D0CBFFF20002004F129
:10488C0080011A46083AD2B2072A01F8800C01F1CD
:10489C008001F7D8A3F10802C2F3C402013204EB81
:1048AC00C21403F00703002B41D0234AD25C2378B7
:1048BC00012D0CBF134393432370F0BDF0BD002AB0
:1048CC0035DBB0F90A40944231DD0029BCBFC91870
:1048DC000BB2B0F90870B8BF0021CE18BE42C4BFED
:1048EC00631A1BB2002B22DDD01001EBC011104853
:1048FC0002F007020144012000FA02F28542D2B212
:10490C0009D1013B1BB25C1C11D011F8010B1043F7
:10491C0001F8010CF5E7D243D2B2013B1BB2581C93
:10492C0005D011F8010B104001F8010CF5E7F0BDB2
:10493C00E0DE0320D8DE0320D0DE0320F0B5447E79
:10494C00BDF81450022C08D0032C0FD0012C12D11E
:10495C000489E41AA21A12B26DE00489013C611AAE
:10496C004489E41AA21A09B212B204E04489013C47
:10497C00611A09B25FE000295CDBB0F908408C4297
:10498C0040F39180002ABCBFD21813B2B0F90A00D0
:10499C00B8BF0022D4188442C4BF831A1BB2002BA8
:1049AC0040F38180D4B2404EDAB2E30801EBC3117C
:1049BC0014F0070406EB010317D0C4F10804E0B2AD
:1049CC003A4C8242275C3FBFC2EB000EFF2444FAF4
:1049DC000EF42740745C012D0CBF3C43BC43824257
:1049EC00745460D3101AC2B28033072A17D9012D20
:1049FC000CBFFF24002403F1800011460839C9B212
:104A0C00072900F8804C00F18000F7D8A2F10801CA
:104A1C00C1F3C401013103EBC11302F00702002AF8
:104A2C0041D02349895C1A78012D0CBF0A438A4373
:104A3C001A70F0BDF0BD002935DBB0F90A408C428C
:104A4C0031DD002ABCBFD21813B2B0F90870B8BF60
:104A5C000022D618BE42C4BFA31A1BB2002B22DD03
:104A6C00C81002EBC012104801F0070110440122DB
:104A7C0002FA01F19542C9B209D15A1E13B25C1C5B
:104A8C0011D010F8012B0A4300F8012CF5E7C943AB
:104A9C00C9B25A1E13B25A1C05D010F8012B0A4089
:104AAC0000F8012CF5E7F0BDE0DE0320D8DE032092
:104ABC00D0DE0320F8B50D1E064614461F463FDB1C
:104ACC00FFF77AFE85423BDA002C39DB3046FFF7E4
:104ADC0076FE844234DA3046FFF76CFE022827D18A
:104AEC003189708901390138491B001B0DB204B2A0
:104AFC0006E0012804D13389013B1B1B2C461DB257
:104B0C000820012F94FBF0F000B20E4B04F00702CA
:104B1C0005EBC01104D197405A5C17435F54F8BDA4
:104B2C00585C012707FA02F220EA02025A54F8BD37
:104B3C000328DED17389013B5B1B25461CB2DFE7E2
:104B4C00F8BD00BFE0DE032038B5402204460D4618
:104B5C008021FFF745FD064B2360FF23637784F824
:104B6C002130E377A37784F82050204638BD00BF6E
:104B7C001C6C0D004FF480620021014801F00FBD48
:104B8C00E0DE032038B5094D296811F001040AD183
:104B9C002846FFF789FA30B12146054800F0D5FFC9
:104BAC002846FFF786FA024838BD00BFD0E3032041
:104BBC00D4E3032038B590F91D30013304460D467B
:104BCC0028D090F92100012180B201F0ACFA94F9BF
:104BDC001F00002180B201F0A6FA94F921000021F7
:104BEC0080B201F0A0FA94F822302BB1FFF7CAFF83
:104BFC00294601F053F805E02B460122A17F607F86
:104C0C0001F0E7FA94F92100012180B2BDE83840A7
:104C1C0001F089BA01F01AFB94F91B1000F086FC24
:104C2C0001F014FB036800219B68984701F00EFB10
:104C3C00036829469B68984701F008FBBDE838409B
:104C4C0000F07BBC38B504460D46217790F91D3039
:104C5C00C276013337D090F91F00012180B201F0E8
:104C6C0051FA94F92100012180B201F04BFA94F829
:104C7C0022305BB994F91D00012180B201F042FA97
:104C8C0094F91E00012180B201F03CFA94F8223014
:104C9C00EBB194F92100012180B201F044FAFFF745
:104CAC0071FF012100F06CFFFFF76CFF102100F089
:104CBC00D1FFFFF767FF002100F073FFFFF762FFE2
:104CCC0000F04DFF03E001F0C1FA00F025FC94F96F
:104CDC002000012180B201F015FA94F92000012185
:104CEC0080B201F020FA012000F070FB94F9200052
:104CFC00002180B201F017FA0A2000F067FB94F94A
:104D0C002000012180B201F00EFA2046AE21FFF7FF
:104D1C0051FF2046D521FFF74DFF20468021FFF79C
:104D2C0049FF2046A821FFF745FF20463F21FFF70A
:104D3C0041FF2046D321FFF73DFF20460021FFF71E
:104D4C0039FF20464021FFF735FF8D212046FFF724
:104D5C0031FF012D0CBF102114212046FFF72AFF33
:104D6C0020462021FFF726FF20460021FFF722FFD7
:104D7C002046A121FFF71EFF2046C821FFF71AFF8E
:104D8C002046DA21FFF716FF20461221FFF712FF0B
:104D9C0081212046FFF70EFF012D0CBF9F21CF2153
:104DAC002046FFF707FFD9212046FFF703FF012D0F
:104DBC000CBF2221F1212046FFF7FCFE2046DB210F
:104DCC00FFF7F8FE20464021FFF7F4FE2046A42111
:104DDC00FFF7F0FE2046A621FFF7ECFE2046AF21A0
:104DEC00BDE83840FFF7E6BE2DE9F041212104462D
:104DFC00FFF7E0FE00212046FFF7DCFE7F21204676
:104E0C00FFF7D8FE22212046FFF7D4FE00212046D2
:104E1C00FFF7D0FE07212046FFF7CCFE94F91D309A
:104E2C00DFF8BC80013335D094F92100012180B228
:104E3C0001F079F994F91F00012180B201F073F9A6
:104E4C0094F92100002180B201F06DF9012000F0ED
:104E5C007DF8002594F8223018F805602BB1FFF787
:104E6C0091FE314600F01AFF05E033460122A17F86
:104E7C00607F01F0AEF90135B5F5806FEAD1012004
:104E8C0000F064F894F92100012180B2BDE8F041F2
:104E9C0001F049B9002501F0D9F994F91B1000F083
:104EAC0045FB01F0D3F9036840219B689847002625
:104EBC0001F0CCF9AF190368BFB29B6818F8071062
:104ECC0001369847102EF3D1103501F0BFF9ADB271
:104EDC0000F033FBB5F5806FDDD1BDE8F08100BF8C
:104EEC00E0DE032000F042B800F040B808B5024BF9
:104EFC001B689B68019308BD4802030008B5024B70
:104F0C001B681B69019308BD4802030008B5024BDE
:104F1C001B685B69019308BD4802030008B5024B8E
:104F2C001B685B6C019308BD4802030008B5024B7B
:104F3C001B689B6C019308BD4802030008B5024B2B
:104F4C001B685B68019308BD1802030008B5024B8F
:104F5C001B68DB68019308BD1802030008B5024BFF
:104F6C001B685B69019308BD1802030008B5024B6E
:104F7C001B681B68019308BD2C02030008B5024B8B
:104F8C001B685B68019308BD2C02030008B5024B3B
:104F9C001B689B68019308BD2C02030008B5024BEB
:104FAC001B68DB68019308BD2C02030008B5024B9B
:104FBC001B681B69019308BD2C02030008B5024B4A
:104FCC001B689B6A019308BD2C02030008B5024BB9
:104FDC001B681B6B019308BD2C02030008B5024B28
:104FEC001B689B6F019308BD2C02030008B5024B94
:104FFC001B68DB68019308BD2802030008B5024B4F
:10500C001B689B69019308BD2802030008B5024B7D
:10501C001B68DB69019308BD2802030008B5024B2D
:10502C001B681B6A019308BD2802030008B5024BDC
:10503C001B685B6A019308BD2802030008B5024B8C
:10504C001B689B6A019308BD2802030008B5024B3C
:10505C001B68DB6A019308BD2802030008B5024BEC
:10506C001B681B6B019308BD2802030008B5024B9B
:10507C001B685B6B019308BD2802030008B5024B4B
:10508C001B681B6C019308BD2802030008B5024B7A
:10509C001B685B69019308BD6402030008B5024BF1
:1050AC001B689B68019308BD6802030008B5024B9E
:1050BC001B68DB68019308BD6802030008B5024B4E
:1050CC001B681B69019308BD2402030008B5024B41
:1050DC001B685B69019308BD2402030008B5024BF1
:1050EC001B689B69019308BD2402030008B5024BA1
:1050FC001B681B68019308BD3002030008B5024B06
:10510C001B689B68019308BD3002030008B5024B75
:10511C001B68DB68019308BD3002030008B5024B25
:10512C001B681B69019308BD3002030008B5024BD4
:10513C001B685B69019308BD3002030008B5024B84
:10514C001B68DB69019308BD3002030008B5024BF4
:10515C001B681B6A019308BD3002030008B5024BA3
:10516C001B685B6A019308BD3002030008B5024B53
:10517C001B681B6C019308BD3002030008B5024B81
:10518C001B685B6C019308BD3002030008B5024B31
:10519C001B681B68019308BD3C02030008B5024B59
:1051AC001B68DB68019308BD3C02030008B5024B89
:1051BC001B681B69019308BD3C02030008B5024B38
:1051CC001B685B69019308BD3C02030008B5024BE8
:1051DC001B689B69019308BD3C02030008B5024B98
:1051EC001B68DB69019308BD3C02030008B5024B48
:1051FC001B681B6A019308BD3C02030008B5024BF7
:10520C001B689B6A019308BD3C02030008B5024B66
:10521C001B681B68019308BD4C02030008B5024BC8
:10522C001B685B68019308BD4C02030008B5024B78
:10523C001B681B69019308BD4C02030008B5024BA7
:10524C001B685B69019308BD4C02030008B5024B57
:10525C001B689B69019308BD4C02030008B5024B07
:10526C001B68DB69019308BD4C02030008B5024BB7
:10527C001B681B6A019308BD4C02030008B5024B66
:10528C001B685B6B019308BD6002030008B5024B01
:10529C001B685B68019308BD2002030008B5024B34
:1052AC001B685B69019308BD2002030008B5034B22
:1052BC001B68D3F88830019308BD0000200203005E
:1052CC0008B5034B1B68D3F89430019308BD00005C
:1052DC002002030008B5024B1B68DB6B019308BD71
:1052EC004402030008B5024B1B685B68019308BDC0
:1052FC004002030008B5024B1B689B68019308BD74
:10530C004002030008B5024B1B68DB68019308BD23
:10531C004002030008B5024B1B681B69019308BDD2
:10532C004002030008B5024B1B685B69019308BD82
:10533C004002030008B5024B1B689B69019308BD32
:10534C004002030008B5024B1B68DB69019308BDE2
:10535C004002030008B5024B1B681B6A019308BD91
:10536C004002030008B5024B1B681B6B019308BD80
:10537C004002030008B5024B1B685B6B019308BD30
:10538C004002030008B5024B1B681B68019308BD63
:10539C001C02030008B5024B1B685B68019308BD37
:1053AC001C02030008B5024B1B685B6A019308BD25
:1053BC001C0203008A4230B507D0039D441AED1A33
:1053CC006C43521A94FBF2F4E01830BD0021FFF745
:1053DC0065BF10B50446006808B1FFF7A7FD20466D
:1053EC0010BD000010B5064C002320462360FFF7CB
:1053FC0095FD2046034A0449BDE8104000F04CBF1F
:10540C00DCE3032048E30320DF530D0010B5836871
:10541C00044613B1032201469847204610BD0022D2
:10542C0011464068FFF796BF002211464068FFF70F
:10543C00A1BF00224068FFF795BF002281F0010157
:10544C004068FFF77FBF00231A4619464068FFF7F4
:10545C0071BF00231A4619464068FFF763BF00224C
:10546C0011464068FFF756BF002211464068FFF70F
:10547C0041BF002202214068FFF744BF00231A46B7
:10548C004068FFF72FBF0000024B03225A60024A0C
:10549C001A607047E0E30320546C0D007047F8B5B8
:1054AC00064615460C468F18BC4206D0336814F8D5
:1054BC00011B9B6830469847F6E72846F8BD00224A
:1054CC00007CFFF7ABBD0021007CFFF7AFBD0021D6
:1054DC00007CFFF7B3BD0021007CFFF7B7BD0021B6
:1054EC00007CFFF7BBBD10B51421044600F0D9FEBB
:1054FC00204610BD10B50446002363604FF47A7348
:10550C00A360044B2174084623601146FFF7B6FDD7
:10551C00204610BD886C0D0000231A461946007CED
:10552C00FFF764BD0022007CFFF768BDC9B2FFF72E
:10553C00F9BF0022007CFFF769BD0121FFF7F9BF1D
:10554C000021007CFFF792BD704710B5182104466E
:10555C0000F0A7FE204610BDF0B5037D062B8DB0E4
:10556C000E4600F104074FF0000402D000F10805CC
:10557C0018E00CAD394605F8304D2F232A460A2089
:10558C00FFF784FD284601F03BF833680246DB68E0
:10559C002946304698470FE024B12E21304600F0C2
:1055AC00D5F9044415F8011D0A22304600F0DDF946
:1055BC00BD420444F0D120460DB0F0BD10B5054BF2
:1055CC000446112240F8043B002100F0E8FF20467D
:1055DC0010BD00BFB06C0D000346074A10B543F870
:1055EC00042B01F1100251F8044B43F8044B914287
:1055FC00F9D10A781A7010BDB06C0D0010B59DF879
:10560C00084044EA032343EA024242EA01610423CC
:10561C004160037510BD37B50D788B784A78C97821
:10562C0000912946FFF7EAFF03B030BD014B024A57
:10563C001A607047E8E303202F6D0D00002211461D
:10564C004068FFF787BE002211464068FFF792BE04
:10565C0000224068FFF786BE002281F001014068FD
:10566C00FFF770BE00231A4601214068FFF762BEA7
:10567C0000231A4619464068FFF754BE0022114613
:10568C004068FFF747BE002211464068FFF732BE64
:10569C00002202214068FFF735BE00231A464068FD
:1056AC00FFF720BE38B5054688B104684CB1A36835
:1056BC001BB103222146204698471021204600F0BA
:1056CC00F0FD28461421BDE8384000F0EABD38BD95
:1056DC0010B103685B681847704710B5036804463F
:1056EC00BBB15868FFF702FC78B923685A7C12B931
:1056FC005868FFF703FC23685868FFF707FC20681D
:10570C000023236028B1FFF7CDFF206808B1FFF715
:10571C00C9FF204610BD38B50446D0F8C40108B105
:10572C00FEF7B5FCD4F8C00108B1FFF7FFFBD4F8C5
:10573C00BC5135B12846FFF7D0FF0421284600F0B4
:10574C00B0FD206808B1FFF7C3FF204638BD00004C
:10575C0010B5044B044640F8083BFFF7DCFF20462D
:10576C0010BD00BFA86D0D0038B50E4C0E4B23605C
:10577C000025022304F5E4706360A560C4F8C451ED
:10578C00C4F8C851FFF7CAFB084BC4F8CC5184F8D5
:10579C00D05123602046064A0649BDE8384000F047
:1057AC007BBD00BFECE30320DC6D0D00A86D0D008C
:1057BC0048E303205D570D0000231A464068FFF7AD
:1057CC0091BD002202214068FFF79CBD00221146CA
:1057DC004068FFF78FBD002211464068FFF79ABD65
:1057EC0000231A4619464068FFF79CBD00231A4651
:1057FC0019464068FFF79EBD002281F00101406808
:10580C00FFF7A0BD00224068FFF7ACBD0022114697
:10581C004068FFF7AFBD002211464068FFF79ABD04
:10582C002DE9F043002495B016460D460746FFF7C8
:10583C00C5FE214620220CA8009400F0B0FE4023A7
:10584C000C9321466B460CAA3046FFF72FFC0446FE
:10585C00002844D1024601216868FFF75BFD022154
:10586C00804622466868FFF755FD009E814621461A
:10587C00002E34D0002932D17368022B02D00A2BAF
:10588C0009D02AE0B8F1000F27D0716938460431ED
:10589C00FFF7C1FE20E0B9F1000F1ED07469112290
:1058AC0001A800F07CFE06238DF8143001AD04F144
:1058BC0008031834186859682A4603C20833A342EF
:1058CC001546F7D101A906A807ADFFF785FE0FCD48
:1058DC003C1D0FC42B6823700121F669C8E70098A2
:1058EC00FFF7DCFB384615B0BDE8F083024B034AEA
:1058FC001A6000225A607047C0E50320DC6D0D0071
:10590C00F8B506460D468F180024BD420CD03368FE
:10591C0015F8011B9B6830469847002801DB0444AE
:10592C00F3E7002C08BF04462046F8BD70B50546C9
:10593C000C46084649B100F063FE2B68024621462E
:10594C002846DB68BDE87040184770BD03689B684B
:10595C00184738B50D210546FFF7F8FF0A21044614
:10596C002846FFF7F3FF204438BD30B58BB00B460B
:10597C0000218DF82410012A98BF0A220DF123046E
:10598C00B3FBF2F505FB123303F0FF03092B94BFB5
:10599C0030333733DBB2214604F801392B46002D66
:1059AC00EED1FFF7C3FF0BB030BD0CB42DE9F043C3
:1059BC0087B000AF07F13804054654F8049B3C60EF
:1059CC000E4623464A461421381DFFF7EBFC1328DC
:1059DC0005D8391D2846FFF7A9FF044613E000F14E
:1059EC00080323F00703E846ADEB030D411C2346E7
:1059FC004A4668463C60FFF7D5FC69462846FFF7E7
:105A0C0095FF0446C5461EB12846FFF7A2FF044485
:105A1C0020461C37BD46BDE8F04302B0704710B5B8
:105A2C000446FFF7F3FC204610BD00000348044A6F
:105A3C0004490023836000F02FBC00BFC8E503209D
:105A4C0048E303202B5A0D00B0F90020531C0BD057
:105A5C00438880888B4203D88842034628BF0B4674
:105A6C00194690B2FFF73ABB704737B50446084663
:105A7C00B4F90610B4F90820814203DC9042A8BFA7
:105A8C00104600E00846A58863880095FFF792FC55
:105A9C00E168014489B2204603B0BDE83040FFF70D
:105AAC00D3BFB4224FF6FF7302814FF40872038008
:105ABC00428000234FF41662C3808280C36070471B
:105ACC0008B5FFF7EEFF08BD10B50446B0F90000AD
:105ADC00431C07D080B2FFF7F9FA2046FFF7E1FF2D
:105AEC00012010BD002010BD2DE9F0410D460446EB
:105AFC000221284690461F46FFF740FA022801D0A3
:105B0C00002619E0284600F0C7FA06460028F7D010
:105B1C00B4F90030013302D02046FFF7D5FFBDF9B0
:105B2C001830E380BDF91C302580A4F80280A780D2
:105B3C0023812846FFF7C2FA3046BDE8F0810021E8
:105B4C00FFF714BB0021FFF719BB10B50446017019
:105B5C000846FFF7F3FA00236360204610BD10B52A
:105B6C0004460078FFF7EBFF48B920784FF6FF7139
:105B7C00FFF7BCFA2078BDE81040FFF7E3BF10BD7B
:105B8C0038B5044600780D46FFF7D9FF40B92078A8
:105B9C002946FFF7B3FA2078BDE83840FFF7D2BFAB
:105BAC0038BD38B5044600780D46FFF7C8FF40B93C
:105BBC0020782946FFF7AAFA2078BDE83840FFF78D
:105BCC00C1BF38BD400830B5186000241868884241
:105BDC00E5B206D90134082C02D040081860F5E76C
:105BEC000725024B5B5D137030BD00BF086E0D00C6
:105BFC002DE9F04188B000230446007802930E464C
:105C0C001746FFF79CFF054600BB94F80080014641
:105C1C00142203A800F0C3FC0B232A4603A9404618
:105C2C00ADF80C30FFF79AFA02AB0DF1070207FB47
:105C3C0006F104988DF80750FFF7C4FF20789DF803
:105C4C000710FFF76BFA2078FFF77CFF029808B07B
:105C5C00BDE8F08138B5044600780D46FFF76FFFBC
:105C6C00C8B9616871B10C4BC25CAA4202D0013058
:105C7C000828F9D10130C0B2C14001222046FFF7FB
:105C8C00B7FF03E029462078FFF748FA2078BDE8F3
:105C9C003840FFF757BF38BD086E0D0008B50078C7
:105CAC00FFF744FAC0B208BD0078FFF74FBA000006
:105CBC0010B5094C00204FF6FF732060A080A07136
:105CCC0020816381FFF7E2FA2046044A0449BDE8CB
:105CDC00104000F0E1BA00BFD8E5032048E30320F0
:105CEC00C7400D00024B1A68024B1A60704700BF88
:105CFC00E0E20320E4E5032070474174704708B5E7
:105D0C00007CFFF77BFA20EAE07008BD08B5007C48
:105D1C00FFF74CFA20EAE07008BD08B5007CFFF7ED
:105D2C0055FA30EA200028BF4FF0FF3008BD08B507
:105D3C00007CFFF743FA30EA200028BF4FF0FF3019
:105D4C0008BD007CFFF74ABA10B51421044600F0D8
:105D5C00A8FA204610BD70B5457C04460E4625B900
:105D6C00007CFFF74BFA002805DD3146207CBDE8AE
:105D7C007040FFF713BA284670BD000010B50446FA
:105D8C0008461146002262604FF47A72A260054AFE
:105D9C0022600122207462741A46FFF7F7F920463C
:105DAC0010BD00BF446E0D00007CFFF71FBA000051
:105DBC0038B50C4D296811F0010411D12846FEF7B5
:105DCC0073F968B1084A094B09482146FFF7D6FF19
:105DDC002846FEF76EF9074A0749054800F05CFAB9
:105DEC00034838BD80E6032084E60320FCE503204D
:105DFC00E8E5032048E30320055D0D00417470477E
:105E0C00704708B50021007CFFF720FA30EA20002B
:105E1C0028BF4FF0FF3008BD08B50121007CFFF70B
:105E2C0015FA30EA200028BF4FF0FF3008BD08B546
:105E3C00007CFFF703FA20EAE07008BD08B5007C8F
:105E4C00FFF7F4F920EAE07008BD007CFFF70EBA0A
:105E5C0010B51421044600F024FA204610BD38B5C4
:105E6C000446007C0D46FFF7E9F9002801DC607C54
:105E7C0028B12946207CFFF7F1F920EAE07038BD03
:105E8C0010B50446002363604FF47A73A360054B8E
:105E9C00236001230846217463741146FFF7B6F999
:105EAC00204610BD746E0D000022007CFFF7B6B9C1
:105EBC0010B514220446002100F071FB204610BDE1
:105ECC0030B50E4D87B001A8FFF7F2FF296811F02D
:105EDC00010410D12846FEF7E7F860B101AA21466B
:105EEC000748FFF7CDFF2846FEF7E3F8054A0649B9
:105EFC00034800F0D1F9024807B030BD08E7032091
:105F0C000CE7032048E303200D5E0D000022114630
:105F1C004068FFF7FFB9002211464068FFF71ABA34
:105F2C00002211464068FFF725BA00224068FFF7AF
:105F3C0019BA002281F001014068FFF703BA00236F
:105F4C001A4619464068FFF7F5B900231A46194658
:105F5C004068FFF7E7B9002211464068FFF7CAB95D
:105F6C00002202214068FFF7CDB900231A46406891
:105F7C00FFF7B8B9024B04225A60024A1A60704704
:105F8C0020E70320A46E0D0008B50C4B33B1FFF7CE
:105F9C0097FF03681B699847002809DC084B63B11D
:105FAC00FFF706FF03681B699847002803DC08BD50
:105FBC00AFF30080F2E7AFF3008008BD00000000F3
:105FCC000000000008B5FFF7DFFFFEF7C7FF014B2D
:105FDC00186008BD30E703200248034A0349121A2F
:105FEC0000F0D2BA00F4032004F40320806F0D00FB
:105FFC0007B5002300931A466FF07701FFF760F99D
:10600C0003B05DF804FB000007B543880A2B08D0E9
:10601C00502B09D1094B1B683BB103B05DF804EB65
:10602C001847FFF7E5FF06E0002300931A466FF0D0
:10603C007701FFF745F903B05DF804FB28E703206F
:10604C0038B5104C104D2368AB42104B0CBF0122DD
:10605C0000221A7002D0FFF7BFFF2560FEF76EFF1B
:10606C00044600F0A5FA0A4B13B12046AFF30080AA
:10607C0000210748FFF72EF900210648BDE83840FB
:10608C00FFF714B900F403201E1C279A2CE70320F9
:10609C000000000015600D0070B5184E316811F04D
:1060AC00010504460AD13046FDF7FEFF30B1294602
:1060BC001348FFF74AFD3046FDF7FBFF1048FFF78A
:1060CC00F3FD28B1A4F10B03022B01D8002070BD05
:1060DC0000F0BCF8FFF734FA08B1012CF6D9FFF741
:1060EC0067FEFFF761FE18B1A4F10903012BEDD98E
:1060FC00232C8CBF0020012070BD00BFD0E30320F7
:10610C00D4E30320232838B504460D460AD8FF29CA
:10611C0008D0FFF7C1FF28B129462046BDE838401A
:10612C00FEF734BF38BD38B504460D46FEF736FFD2
:10613C00FF2810D0062804D84D2323FA00F0C307FB
:10614C0009D42046FFF7A8FF28B129462046BDE810
:10615C003840FEF72BBF38BD0D2810B504469CBF48
:10616C000E34A4B22046FFF797FF50B1032120460E
:10617C00FEF704FF032804D12046BDE81040FEF7CB
:10618C0025BF002010BD38B504460D46FFF784FF2F
:10619C00F0B104212046FEF7F1FE042805D1A9B286
:1061AC002046BDE83840FEF709BF02212046FEF725
:1061BC00E5FE02280CD12046FEF7F0FE012801D0A6
:1061CC00042805D129462046BDE83840FEF706BF15
:1061DC0038BD2DE9F04190461E46072407460D4672
:1061EC00B8F1000F04D1C4F1070146FA01F101E046
:1061FC0046FA04F101F001013846FFF794FF012142
:10620C002846FFF790FF00212846FFF78CFF14F17A
:10621C00FF34E5D2BDE8F08170B5044614252A465A
:10622C00094E002100F0BBF9258020253146A560E0
:10623C002561284600F04FF831466060284600F092
:10624C004AF8E060204670BDD06E0D0030B50E4DA2
:10625C00296811F0010487B013D12846FDF724FFFB
:10626C0078B101A8FFF7D8FF01AA21460748FFF72C
:10627C0041F92846FDF71DFF054A0649034800F081
:10628C000BF8024807B030BD34E7032038E7032091
:10629C0048E30320A9540D000B460146184600F0B4
:1062AC0065B9FDF7F2BE0000024B1868BFF35F8FB3
:1062BC00704700BF4CE7032010B5002814BF0446FC
:1062CC0001242046FFF75EF820B9FFF7EDFF08B177
:1062DC008047F6E710BDFFF7EFBF0000244B1A68AC
:1062EC00D0075CBF01221A60224B1A68D1075CBF31
:1062FC0001221A60204B1A68D2075CBF01221A6077
:10630C001E4B1A68D0075CBF01221A601C4B1A681E
:10631C00D1075CBF01221A601A4B1A68D2075CBF06
:10632C0001221A60184B1A68D0075CBF01221A6050
:10633C00164B1A68D1075CBF01221A60144B1A68FD
:10634C00D2075CBF01221A60124B1A68D0075CBFDF
:10635C0001221A60104B1A68D1075CBF01221A6027
:10636C000E4B1A68D2075CBF01221A60704700BF3F
:10637C007CE7032078E7032074E7032070E7032011
:10638C006CE7032068E7032064E7032060E7032041
:10639C005CE7032058E7032054E7032050E7032071
:1063AC00184B1A68D1075CBF01221A60164B1A6889
:1063BC00D2075CBF01221A60144B1A68D0075CBF6D
:1063CC0001221A60124B1A68D1075CBF01221A60B5
:1063DC00104B1A68D2075CBF01221A600E4B1A6868
:1063EC00D0075CBF01221A600C4B1A68D1075CBF46
:1063FC0001221A600A4B1A68D2075CBF01221A608C
:10640C00704700BF9CE7032098E7032094E7032024
:10641C0090E703208CE7032088E7032084E7032020
:10642C0080E70320184B1A68D1075CBF01221A6061
:10643C00164B1A68D2075CBF01221A60144B1A68FB
:10644C00D0075CBF01221A60124B1A68D1075CBFDF
:10645C0001221A60104B1A68D2075CBF01221A6025
:10646C000E4B1A68D0075CBF01221A600C4B1A68DD
:10647C00D1075CBF01221A600A4B1A68D2075CBFB5
:10648C0001221A60704700BFBCE70320B8E7032065
:10649C00B4E70320B0E70320ACE70320A8E7032010
:1064AC00A4E70320A0E70320244B1A68D0075CBFA5
:1064BC0001221A60224B1A68D1075CBF01221A60B4
:1064CC00204B1A68D2075CBF01221A601E4B1A6857
:1064DC00D0075CBF01221A601C4B1A68D1075CBF45
:1064EC0001221A601A4B1A68D2075CBF01221A608B
:1064FC00184B1A68D0075CBF01221A60164B1A6839
:10650C00D1075CBF01221A60144B1A68D2075CBF1A
:10651C0001221A60124B1A68D0075CBF01221A6064
:10652C00104B1A68D1075CBF01221A600E4B1A6817
:10653C00D2075CBF01221A60704700BFECE7032052
:10654C00E8E70320E4E70320E0E70320DCE703208F
:10655C00D8E70320D4E70320D0E70320CCE70320BF
:10656C00C8E70320C4E70320C0E7032010B5054C9F
:10657C0013462CB10A4601460220AFF3008010BD31
:10658C00204610BD0000000010B5431E0A44914285
:10659C0004D011F8014B03F8014FF8E710BD024489
:1065AC000346934202D003F8011BFAE77047000040
:1065BC0038B5124B1C68A36B0546D3B91820FEF7EF
:1065CC00E1FE43F20E33A06303804AF6CD334380E1
:1065DC0041F2342383804EF26D63C3804DF6EC633D
:1065EC000381052343810B23838101220023C0E90E
:1065FC000423A36B00221D615A6138BD44E30320C0
:10660C00034613F8012B002AFBD1181A01387047E6
:10661C001D400D0059400D0085400D0089400D00B6
:10662C000000000053797374656D205265616479C4
:10663C002E2E2E00414C41524D0A53595354454D68
:10664C000A524541445900434F44452054414B455F
:10665C004E53595354454D0A44495341524D4544A8
:10666C0000426C756520427574746F6E0A00494E59
:10667C00434F525245435420434F44450A535953B8
:10668C0054454D0A4C4F434B45440059656C6C6F57
:10669C007720627574746F6E0A005A45524F2069E8
:1066AC00203D2025692041727261792056616C75FC
:1066BC00653A2025690A004F4E45202069203D206F
:1066CC0025692041727261792056616C75653A209A
:1066DC0025690A0000000000000000000000000016
:1066EC000000000041470D000D590D00A1400D00A8
:1066FC0041440D0061450D007D450D0001450D0027
:10670C0097450D00CF450D00EB450D000000000036
:10671C00003E5B4F5B3E3E6B4F6B3E1C3E7C3E1C1B
:10672C00183C7E3C181C577D571C1C5E7F5E1C0061
:10673C00183C1800FFE7C3E7FF0018241800FFE718
:10674C00DBE7FF30483A060E2629792926407F05DB
:10675C000507407F05253F5A3CE73C5A7F3E1C1CF1
:10676C0008081C1C3E7F14227F22145F5F005F5FB1
:10677C0006097F017F006689956A6060606060949D
:10678C00A2FFA29408047E040810207E20100808A2
:10679C002A1C08081C2A08081E101010100C1E0CAD
:1067AC001E0C30383E3830060E3E0E06000000003F
:1067BC000000005F00000007000700147F147F1426
:1067CC00242A7F2A1223130864623649562050006B
:1067DC0008070300001C2241000041221C002A1C57
:1067EC007F1C2A08083E0808008070300008080842
:1067FC000808000060600020100804023E51494562
:10680C003E00427F400072494949462141494D337F
:10681C001814127F1027454545393C4A49493141E6
:10682C00211109073649494936464949291E0000B4
:10683C001400000040340000000814224114141409
:10684C001414004122140802015909063E415D59F5
:10685C004E7C1211127C7F494949363E41414122FE
:10686C007F4141413E7F494949417F090909013E28
:10687C00414151737F0808087F00417F410020404F
:10688C00413F017F081422417F404040407F021C61
:10689C00027F7F0408107F3E4141413E7F09090978
:1068AC00063E4151215E7F09192946264949493244
:1068BC0003017F01033F4040403F1F2040201F3F0A
:1068CC004038403F6314081463030478040361598F
:1068DC00494D43007F4141410204081020004141D1
:1068EC00417F04020102044040404040000307087D
:1068FC000020545478407F28444438384444442879
:10690C00384444287F385454541800087E0902181F
:10691C00A4A49C787F0804047800447D40002040A7
:10692C00403D007F1028440000417F40007C0478EB
:10693C0004787C080404783844444438FC18242433
:10694C001818242418FC7C080404084854545424B3
:10695C0004043F44243C4040207C1C2040201C3C30
:10696C004030403C44281028444C9090907C446427
:10697C00544C4400083641000000770000004136BA
:10698C00080002010204023C2623263C1EA1A16140
:10699C00123A4040207A3854545559215555794172
:1069AC002154547841215554784020545579400C49
:1069BC001E5272123955555559395454545939552A
:1069CC005454580000457C410002457D420001456D
:1069DC007C40F0292429F0F0282528F07C545545DA
:1069EC00002054547C547C0A097F4932494949326D
:1069FC003248484832324A4848303A4141217A3A82
:106A0C0042402078009DA0A07D39444444393D404B
:106A1C0040403D3C24FF2424487E4943662B2FFCF8
:106A2C002F2BFF0929F620C0887E090320545479A6
:106A3C00410000447D413048484A32384040227A77
:106A4C00007A0A0A727D0D19317D2629292F2826F4
:106A5C002929292630484D402038080808080808FC
:106A6C000808382F10C8ACBA2F102834FA00007B55
:106A7C00000008142A142222142A1408AA00550013
:106A8C00AAAA55AA55AA000000FF00101010FF007A
:106A9C00141414FF001010FF00FF1010F010F0146D
:106AAC001414FC001414F700FF0000FF00FF141472
:106ABC00F404FC141417101F10101F101F141414BE
:106ACC001F00101010F0000000001F101010101FFD
:106ADC0010101010F010000000FF1010101010100B
:106AEC00101010FF10000000FF140000FF00FF004A
:106AFC00001F10170000FC04F414141710171414C2
:106B0C00F404F40000FF00F714141414141414F714
:106B1C0000F7141414171410101F101F141414F46D
:106B2C00141010F010F000001F101F0000001F14B4
:106B3C00000000FC140000F010F01010FF10FF1407
:106B4C001414FF141010101F00000000F010FFFFB1
:106B5C00FFFFFFF0F0F0F0F0FFFFFF00000000007F
:106B6C00FFFF0F0F0F0F0F38444438447C2A2A3E86
:106B7C00147E02020606027E027E026355494163C0
:106B8C003844443C04407E201E2006027E020299BA
:106B9C00A5E7A5991C2A492A1C4C7201724C304A53
:106BAC004D4D303048784830BC625A463D3E4949DC
:106BBC0049007E0101017E2A2A2A2A2A44445F4484
:106BCC004440514A444040444A51400000FF0103B4
:106BDC00E080FF000008086B6B083612362436067E
:106BEC000F090F06000018180000001010003040AC
:106BFC00FF0101001F01011E00191D1712003C3C72
:106C0C003C3C000000000000000000000000000000
:106C1C00C5400D00D1430D0041470D000D590D002D
:106C2C00C14A0D0041440D0049490D00D5470D00E6
:106C3C0001450D0097450D00CF450D00EB450D00AE
:106C4C00000000000000000089540D007F540D006E
:106C5C0075540D006B540D005F540D0053540D0012
:106C6C0047540D003F540D0035540D002B540D00AE
:106C7C002D580D000000000000000000A9540D006C
:106C8C00F3540D00CB540D00AB540D00D3540D0038
:106C9C00DB540D00E3540D00EB540D00000000001C
:106CAC000000000065550D0055550D0057550D00A1
:106CBC00626175640053657269616C005365726939
:106CCC00616C31007479706500706172616D006384
:106CDC006D6400696400686E64007374726D0066A4
:106CEC00696C74006C766C0061646448616E646CF1
:106CFC0065720072656D6F766548616E646C657265
:106D0C0000656E756D48616E646C657273004A53F4
:106D1C004F4E53747265616D4C6F6748616E646C55
:106D2C0065720061707000253031307520005D2077
:106D3C00002564002C200028293A2000205B0063E9
:106D4C006F6465203D200025690064657461696C81
:106D5C0073203D20000D0A0066006C6E00666E000C
:106D6C00636F64650064657461696C006E6F6E6559
:106D7C0000747261636500696E666F007761726E94
:106D8C00006572726F720070616E696300616C6C89
:106D9C00000000000000000000000000A7560D00DD
:106DAC009D560D0093560D0089560D007D560D0015
:106DBC0071560D0065560D005D560D0053560D00B5
:106DCC0049560D002D580D00000000000000000079
:106DDC00C5570D00CF570D00D9570D00E3570D00C7
:106DEC00ED570D00F9570D0005580D0011580D0009
:106DFC0019580D0023580D002D580D0000081018BF
:106E0C00202830385A00252B3033643A253032751F
:106E1C000025592D256D2D25645425483A254D3ACC
:106E2C002553257A0061736374696D650000000059
:106E3C000000000000000000055D0D00555D0D0018
:106E4C00635D0D000D590D00195D0D003B5D0D00CE
:106E5C00275D0D004F5D0D00075D0D000B5D0D00F6
:106E6C0000000000000000000D5E0D005D5E0D00D6
:106E7C006B5E0D000D590D00495E0D000F5E0D008F
:106E8C00255E0D00575E0D003B5E0D00095E0D008A
:106E9C000000000000000000775F0D006D5F0D002A
:106EAC00635F0D00195F0D00575F0D004B5F0D0008
:106EBC003F5F0D00375F0D002D5F0D00235F0D0050
:106ECC002D580D0000000000000000000000000024
:106EDC0000000000000000000000000000000000A6
:106EEC000000000000000000000000000000000096
:106EFC000000000000000000000000000000000086
:106F0C000000000000000000000000000000000075
:106F1C000000000000000000000000000000000065
:106F2C00000000000000000043000000E1430D00E1
:106F3C00D1470D00F14E0D00F54E0D00F1530D0033
:106F4C0095540D0039560D0075570D00F9580D006C
:106F5C00395A0D00BD5C0D00F15C0D00815F0D0018
:106F6C00E9620D00AD630D0031640D00B5640D00D8
:046F7C000000000011
:046F8000000000000D
:106F8400DC050000C40900002C01000040060000DC
:106F9400F4010000000103070F1F3F7F0080C0E0E1
:106FA400F0F8FCFE000000000000000000000000FB
:106FB40000000000000000000000000000000000CD
:106FC40000000000000000000000000000000000BD
:106FD40000000000000000000000000000000000AD
:106FE400000000808080000000000000000000001D
:106FF40000000000008080C0C0000000000000000D
:10700400000000000000000000000000000000007C
:10701400000000000000000000000000000000006C
:10702400000000000000000000000000000000005C
:10703400000000000000000080C0E0F0F8FCF8E070
:10704400000000000000000000000000000000003C
:10705400008080808080008080000000008080802C
:10706400808000FFFFFF000000008080808000001F
:107074008080000080FFFF8080008080008080800E
:10708400800080800000000000808000008C8E84DE
:10709400000080F8F8F88000000000000000000004
:1070A40000000000F0F0F0F0F0F0F0F0F0F0F0F09C
:1070B400E0E0C08000E0FCFEFFFFFF7FFFFFFFFF7A
:1070C400FF0000000000000000000000000000FEBF
:1070D400FFC70101010183FFFF00007CFEC701011E
:1070E400010183FFFFFF0038FEC78301010183C74D
:1070F400FFFF000001FFFF010100FFFF0701010185
:1071040000007FFF80000000FFFF7F0000FFFFFF03
:10711400000001FFFFFF010000000000000000006C
:1071240000000000030F3F7F7FFFFFFFFFFFFFFF13
:10713400E7C7C78F8F9FBFFFFFC3C0F0FFFFFFFFED
:10714400FFFCFCFCFCFCFCFCFCF8F8F0F0E0C000EC
:10715400010303030303010303000000000103030D
:107164000303010103010000000103030303010100
:1071740003030000000303000000030300000000F9
:1071840000000001030303030301000000010301E5
:1071940000000003030100000000000000000000E4
:1071A4000000000000000080C0E0F0F9FFFFFFFFD6
:1071B400FF3F1F0F87C7F7FFFF1F1F3DFCF8F8F8BD
:1071C400F87C7DFFFFFFFFFFFFFFFF7F3F0F0700FE
:1071D400303000000000000000000000000000004B
:1071E4000000000000000000FEFEFC0000000000A3
:1071F400000000000000000000000000000000008B
:1072040000E0C0000000000000000000000030307A
:10721400000000000000000000000000000000006A
:107224000000000000C0FEFFFFFFFFFFFFFFFFFFA5
:107234007F7F3F1F0F071F7FFFFFF8F8FFFFFFFF50
:10724400FFFEF8E000000001000000000000000064
:10725400FEFE000000FCFEFC0C06060EFCF800001E
:10726400F0F81C0E0606060CFFFFFF0000FEFE00F1
:10727400000000FCFEFC00183C7E66E6CE840000A4
:1072840006FFFF0606FCFEFC0C0606060000FEFEDA
:107294000000C0F8FC4E4646464E7C7840183C76CA
:1072A400E6CECC80000000000000000000000000DA
:1072B400000000000000000001070F1F1F3F3F3FB8
:1072C4003F1F0F030000000000000000000000004A
:1072D4000F0F0000000F0F0F000000000F0F000041
:1072E40003070E0C18180C060F0F0F0000010F0EE9
:1072F4000C180C0F070100040E0C180C0F070000EB
:10730400000F0F00000F0F0F0000000000000F0F10
:1073140000000007070C0C181C0C060600040E0CD9
:10732400180C0F070000000000000000000000001F
:107334000000000000000000000000000000000049
:107344000000000000000000000000000000000039
:107354000000000000000000000000000000000029
:107364000000000000000000000000000000000019
:107374000000000000000000000000000000000009
:1073840000000000000000000000000000000000F9
:1073940000000000000000000000000000000000E9
:1073A40000000000316E0D0000000000D46E0D00DE
:1073B400F46E0D00146F0D000000000000000000CA
:1073C4000000000000000000346F0D000000000009
:1073D40000000000000000000000000000000000A9
:1073E4000000000000000000000000000000000099
:1073F4000000000000000000000000000000000089
:0C7404000000000000000000E4E2032093
:10741000FFFFFFFF00000102030405060708090A39
:107420000B0C0D0E0F101112131415161718191A34
:087430001B1C1D1E1F2028007B
:04743800785634123C
:04000003D000401CCD
:00000001FF
