:02000002D0002C
:1040000000400D0088750D00000006000C00050141
:084010000401E80500000000B6
:04401800AC700D007B
:10401C0009480A49884208B505D0094A824202D0AB
:10402C00121A02F0DDFF0748074A0021121A02F0AB
:10403C00E2FF014808BD00BF08E20320EC740D004C
:10404C007CE203207CE20320F0E7032070B501F052
:10405C0027FF074C074BE41AA40800251E46A5426F
:10406C0004D056F8253098470135F8E770BD00BFED
:10407C00DC740D0098740D0000F05CB808B500F00D
:10408C0005F9BDE8084001F0CDBE00F081BF00F09D
:10409C007FBF0078B0FA80F04009704701230370AD
:1040AC0070470000024A137883F0010313707047C5
:1040BC0072E30320024A137883F0010313707047F4
:1040CC0084E3032008B501F0F1FD044901F079FA0D
:1040DC0000210720BDE8084001F081BFC0700D0031
:1040EC001FB501F0E3FD0C4901F06BFAC821072064
:1040FC0001F075FF01F0DAFD08490446684601F04D
:10410C0077FC6B46064A0021204601F084FA68468B
:10411C0001F0E8FB04B010BDD8700D0080E2032064
:10412C00F1700D0010B50446006808B100F030FFC6
:10413C00204610BD10B501F0B9FD4FF4165101F039
:10414C00A9FD76211E481F4C00F0A8FC01210E2071
:10415C0001F008FF0321052001F004FF03210620D4
:10416C0001F000FF0121122001F0FCFE01210720CB
:10417C0001F0F8FE2046144900F0CCFC204613490F
:10418C0000F0CAFC2046124900F0C8FC2046114C35
:10419C00FA2100F0BDFC20460F4900F0BBFCFA21CF
:1041AC00204600F0B5FC4FF4FA6000F009FF01F076
:1041BC007DFD0A4A0021BDE8104001F02CBA00BF79
:1041CC0088E303209CE20320B1400D00ED400D007C
:1041DC00D1400D0004E30320C1400D0002710D001D
:1041EC0008B501210E2001F0CEFE074B186800F037
:1041FC00E7FE0E20002101F0C6FE044B1868BDE856
:10420C00084000F0DDBE00BF10E2032008E20320EE
:10421C0008B501210E2001F0B6FE074B186800F01E
:10422C00CFFE0E20002101F0AEFE044B1868BDE855
:10423C00084000F0C5BE00BF0CE2032008E20320DA
:10424C0070B50F4C0646002323602368072B15DC42
:10425C00F55C35B9FFF7C4FF01F028FD094A294682
:10426C0007E0012D07D1FFF7D3FF01F01FFD064A30
:10427C00002101F0D0F923680133E5E770BD00BFE0
:10428C0074E3032013710D0019710D002DE9F04139
:10429C002F48304D304E8AB000F0AEF9062106A8FA
:1042AC0001F0CAFB06A92D4801F0ADFB06A801F0F0
:1042BC0019FB274800F0A0F90023062228492748BB
:1042CC008DED050A01F0D2FB01F0F0FC9DED050A25
:1042DC00044610EE100A02F0B7F9224ACDE90001AB
:1042EC0020460021204C01F096F9002323602F4634
:1042FC002368042B29DC0023DFF864802B603A68E8
:10430C00072A1BDC236818F80330134103F0010360
:10431C00B35401F0CBFC2A6821680192B25C18F806
:10432C000130029100920021104A01F074F90A2028
:10433C0000F046FE2B6801332B60E0E70648FFF7E0
:10434C007FFF236801332360D2E70AB0BDE8F08118
:10435C0088E3032074E3032078E3032080E2032046
:10436C006CE303201E710D0080E3032031710D00FE
:10437C0070B5194D194E00F017FC00244FF6FF7361
:10438C0002206B812C60AC80AC712C8100F074FD30
:10439C0032461349284601F089FE2146012000F0DF
:1043AC007BFD2346224605210E4800F084FB224665
:1043BC00234606210C4C0D4800F07DFB0C4800F008
:1043CC0049F80C49204601F0D4FA324620460A49F5
:1043DC00BDE8704001F06ABE90E203207CE203204D
:1043EC0031410D009CE2032080E2032004E3032012
:1043FC0088E30320C3720D00F1580D007FB502460F
:10440C0008461379956833B13DB90C4904B0BDE841
:10441C00704001F0C3B80A4B00E00A4B167B0A4C03
:10442C000A49527B0292012E08BF21460191009548
:10443C00074A002101F0EFF804B070BD75710D0052
:10444C00C3720D0064710D006D710D0071710D0062
:10445C008B710D00FF22027442748274C274704717
:10446C0038B5094D296811F001040AD12846FFF727
:10447C0010FE30B12146054801F022F92846FFF71D
:10448C000DFE024838BD00BFCCE30320D0E303206F
:10449C002DE9F04190F91330013305460F4606D152
:1044AC00FFF7DEFF3946BDE8F04101F0ADB9072654
:1044BC0000244FF0010895F91300002180B201F09F
:1044CC0062FD95F9110008FA06F1394080B201F04D
:1044DC005AFD95F91300012180B201F054FD95F9B4
:1044EC001200640080B2E4B201F066FD08B144F041
:1044FC00010416F1FF36DED22046BDE8F08108B586
:10450C00FFF7AEFFBDE8084001F0F5B810B5044662
:10451C00FFF7A6FF2146BDE8104001F005B90000E9
:10452C0030B590F91030013385B004460D4621D1D9
:10453C000179006800F021FE2068036829469B6819
:10454C009847206800F021FE03222179206800F0B2
:10455C0011FE206803685B699847050220680368B0
:10456C005B69984728430502206803685B69984794
:10457C00054339E090F9133001330ED11C4B1D4A21
:10458C00009302920023012268468DF804308DF8C6
:10459C000C208DF80D30FFF7B9FF94F910000021B5
:1045AC0080B201F0F0FC45F080012046FFF770FF6F
:1045BC0000212046FFF76CFF002105022046FFF783
:1045CC0067FF2843050200212046FFF761FF0543E2
:1045DC0094F91000012180B201F0D5FC94F913304C
:1045EC00013301D1FFF78BFF284605B030BD00BF6A
:1045FC0060710D0020A1070010B5FA210446FFF7E9
:10460C008FFFB0F5000F1ED0A28A9FED107AC2EB7F
:10461C0020235200C2EBE010B4F916205B43504348
:10462C00B4F918201B1353439B1303EBE020E060F9
:10463C0000EB80008030001207EE900AF8EEE77A6B
:10464C0087EE870A10BD9FED020A10BD0000C8421C
:10465C000000C07F30B590F91030013385B00446AE
:10466C000D461DD10179006800F087FD20680368B4
:10467C0029469B689847206800F087FD0222217923
:10468C00206800F077FD206803685B699847054651
:10469C00206803685B69984740EA052085B235E0DD
:1046AC0090F9133001330ED11A4B1B4A009302922E
:1046BC000023012268468DF804308DF80C208DF80B
:1046CC000D30FFF723FF94F91000002180B201F0A8
:1046DC005AFC45F080012046FFF7DAFE0021204607
:1046EC00FFF7D6FE002105462046FFF7D1FE40EA33
:1046FC00052085B294F91000012180B201F043FC31
:10470C0094F91330013301D1FFF7F9FE284605B0B7
:10471C0030BD00BF60710D0020A1070008B5FFF788
:10472C0099FF40BA80B208BD30B590F91030013312
:10473C0085B004460D4616D10179006800F01DFDC8
:10474C002068036829469B689847206800F01DFD87
:10475C0001222179206800F00DFD206803685B6957
:10476C009847C5B22EE090F9133001330ED1174B98
:10477C00174A009302920023012268468DF80430F8
:10478C008DF80C208DF80D30FFF7C0FE94F9100059
:10479C00002180B201F0F7FB45F080012046FFF7C5
:1047AC0077FE00212046FFF773FE054694F91000B2
:1047BC00012180B201F0E7FB94F91330013301D1F0
:1047CC00FFF79DFE284605B030BD00BF60710D009F
:1047DC0020A1070008B5F321FFF7A6FF00F00100A8
:1047EC0008BD38B588210446FFF798FF8A21A082BE
:1047FC002046FFF793FF8C21E0822046FFF78EFFC7
:10480C008E2120832046FFF789FF9021608320466C
:10481C00FFF784FF9221A0832046FFF77FFF9421AE
:10482C00E0832046FFF77AFF962120842046FFF78D
:10483C0075FF982160842046FFF770FF9A21A084B1
:10484C002046FFF76BFF9C21E0842046FFF766FFB4
:10485C009E2120852046FFF761FFA121608520461F
:10486C00FFF762FFE12184F82C002046FFF756FF8A
:10487C00E321E0852046FFF757FFE42184F8300060
:10488C002046FFF751FFE52105462046FFF74CFF78
:10489C0000F00F0040EA05106086E6212046FFF785
:1048AC0043FFE52105462046FFF73EFF001140EA95
:1048BC000510A086E7212046FFF736FF84F8360066
:1048CC0038BD00007FB590F91030013304460E4618
:1048DC00154611D10179006800F04FFC206803687F
:1048EC0031469B6898472068036829469B6898471F
:1048FC00206800F04AFC2DE090F9133001330ED102
:10490C00154B164A009302920023012268468DF83B
:10491C0004308DF80C208DF80D30FFF7F7FD94F96D
:10492C001000002180B201F02EFB06F07F01204622
:10493C00FFF7AEFD29462046FFF7AAFD94F91000BB
:10494C00012180B201F01FFB94F91330013301D126
:10495C00FFF7D5FD04B070BD60710D0020A10700FC
:10496C00F8B590F83C509DF818609DF81CE09DF847
:10497C00207061F3871562F3020563F3C50590F8A7
:10498C00403080F83C5066F3471380F8403090F884
:10499C0038306EF3C503044667F3020380F83830F1
:1049AC0006F00702F221FFF78DFF94F83820C2F3CE
:1049BC00C20302F007019B0043EA411343EAD212FF
:1049CC002046F521FFF77EFF94F83C20C2F3C2038A
:1049DC0002F007019B0043EA411343EA921220467E
:1049EC00F421BDE8F840FFF76DBF30B5044690F9EF
:1049FC001000421C85B003D1206800F087FB22E038
:104A0C00012180B201F0BFFA94F91000012180B2AB
:104A1C0001F0A8FA94F91300431C04D1FFF720FD10
:104A2C0000F058FE0FE0012180B201F09BFA94F9DE
:104A3C001100012180B201F095FA94F912000021C5
:104A4C0080B201F08FFAD0212046FFF76DFE60286E
:104A5C00A06020D12046B622E021FFF733FF4FF4AF
:104A6C00967000F0ADFA2046FFF7B4FE054608B18B
:104A7C006420F6E72046FFF7B4FE052300931A46A0
:104A8C000321204602950195FFF76AFF642000F090
:104A9C0097FA012000E0002005B030BD10B501717F
:104AAC00044601F0DDFA20602046BDE81040FFF717
:104ABC009CBF00F079B838B50446084632216160D5
:104ACC004FF416710025A1604FF47A71E1602575E1
:104ADC00A561E56125626562A562E5622563656392
:104AEC00A563E56325646564A56425656565A565B1
:104AFC00E56520600AB1256101E00122226180B2E6
:104B0C000BB1022100E0194601F02CFA204638BD09
:104B1C008160704781617047816370474164704761
:104B2C0000F042B808B500F03FF800F03DF8014B3A
:104B3C00186008BDD8E3032008B5024B1B689B68BE
:104B4C00019308BD4802030008B5024B1B681B69A2
:104B5C00019308BD4802030008B5024B1B685B6952
:104B6C00019308BD4802030008B5024B1B685B6C3F
:104B7C00019308BD4802030008B5024B1B689B6CEF
:104B8C00019308BD4802030008B5024B1B685B6823
:104B9C00019308BD1802030008B5024B1B685B6942
:104BAC00019308BD1802030008B5024B1B681B6873
:104BBC00019308BD2C02030008B5024B1B685B680F
:104BCC00019308BD2C02030008B5024B1B689B68BF
:104BDC00019308BD2C02030008B5024B1B68DB686F
:104BEC00019308BD2C02030008B5024B1B681B691E
:104BFC00019308BD2C02030008B5024B1B685B69CE
:104C0C00019308BD2C02030008B5024B1B689B6A7C
:104C1C00019308BD2C02030008B5024B1B689B6F67
:104C2C00019308BD2C02030008B5024B1B68DB681E
:104C3C00019308BD2802030008B5024B1B689B6951
:104C4C00019308BD2802030008B5024B1B68DB6901
:104C5C00019308BD2802030008B5024B1B681B6AB0
:104C6C00019308BD2802030008B5024B1B685B6A60
:104C7C00019308BD2802030008B5024B1B689B6A10
:104C8C00019308BD2802030008B5024B1B68DB6AC0
:104C9C00019308BD2802030008B5024B1B681B6B6F
:104CAC00019308BD2802030008B5024B1B685B6B1F
:104CBC00019308BD2802030008B5024B1B681B6C4E
:104CCC00019308BD2802030008B5024B1B681B6D3D
:104CDC00019308BD2802030008B5024B1B685B69F1
:104CEC00019308BD6402030008B5024B1B689B6866
:104CFC00019308BD6802030008B5024B1B68DB6812
:104D0C00019308BD6802030008B5024B1B681B68C1
:104D1C00019308BD3002030008B5024B1B685B69A8
:104D2C00019308BD3002030008B5024B1B68DB6918
:104D3C00019308BD3002030008B5024B1B681B6AC7
:104D4C00019308BD3002030008B5024B1B685B6A77
:104D5C00019308BD3002030008B5024B1B68DB6BE6
:104D6C00019308BD3002030008B5024B1B681B6C95
:104D7C00019308BD3002030008B5024B1B685B6C45
:104D8C00019308BD3002030008B5024B1B681B6879
:104D9C00019308BD3C02030008B5024B1B68DB689D
:104DAC00019308BD3C02030008B5024B1B681B694C
:104DBC00019308BD3C02030008B5024B1B685B69FC
:104DCC00019308BD3C02030008B5024B1B689B69AC
:104DDC00019308BD3C02030008B5024B1B68DB695C
:104DEC00019308BD3C02030008B5024B1B681B6A0B
:104DFC00019308BD3C02030008B5024B1B689B6A7B
:104E0C00019308BD3C02030008B5024B1B681B68EC
:104E1C00019308BD4C02030008B5024B1B685B688C
:104E2C00019308BD4C02030008B5024B1B681B69BB
:104E3C00019308BD4C02030008B5024B1B685B696B
:104E4C00019308BD4C02030008B5024B1B689B691B
:104E5C00019308BD4C02030008B5024B1B68DB69CB
:104E6C00019308BD4C02030008B5024B1B681B6A7A
:104E7C00019308BD4C02030008B5024B1B685B682C
:104E8C00019308BD2002030008B5024B1B685B6947
:104E9C00019308BD2002030008B5024B1B68DB6AB6
:104EAC00019308BD2002030008B5034B1B68D3F81F
:104EBC008830019308BD00002002030008B5034BA5
:104ECC001B68D3F89430019308BD00002002030046
:104EDC0008B5024B1B68DB6B019308BD4402030051
:104EEC0008B5024B1B685B68019308BD40020300C8
:104EFC0008B5024B1B689B68019308BD4002030078
:104F0C0008B5024B1B68DB68019308BD4002030027
:104F1C0008B5024B1B681B69019308BD40020300D6
:104F2C0008B5024B1B685B69019308BD4002030086
:104F3C0008B5024B1B689B69019308BD4002030036
:104F4C0008B5024B1B68DB69019308BD40020300E6
:104F5C0008B5024B1B681B6A019308BD4002030095
:104F6C0008B5024B1B681B6B019308BD4002030084
:104F7C0008B5024B1B685B6B019308BD4002030034
:104F8C0008B5024B1B681B68019308BD1C0203008B
:104F9C0008B5024B1B685B68019308BD1C0203003B
:104FAC0008B5024B1B689B68019308BD1C020300EB
:104FBC0008B5024B1B685B6A019308BD1C02030019
:104FCC000021FFF761BF10B50446006808B1FFF778
:104FDC00D3FD204610BD000010B5064C0023204622
:104FEC002360FFF7C1FD2046034A0449BDE8104089
:104FFC0001F05CB8DCE303207CE20320D34F0D000E
:10500C0010B58368044613B1032201469847204625
:10501C0010BD002211464068FFF79ABF00221146CE
:10502C004068FFF7A5BF00224068FFF799BF002238
:10503C0081F001014068FFF783BF00231A4619462F
:10504C004068FFF775BF00231A4619464068FFF702
:10505C0067BF002211464068FFF75ABF0022114675
:10506C004068FFF745BF002202214068FFF748BFA8
:10507C0000231A464068FFF733BF0000024B03229F
:10508C005A60024A1A607047E0E30320B4710D00C5
:10509C007047F8B5064615460C468F18BC4206D02C
:1050AC00336814F8011B9B6830469847F6E728468E
:1050BC00F8BD0022007CFFF7CFBD0021007CFFF77C
:1050CC00D3BD0021007CFFF7D7BD0021007CFFF78A
:1050DC00DBBD0021007CFFF7DFBD10B514210446B9
:1050EC0000F0E9FF204610BD10B5044600236360B4
:1050FC004FF47A73A360044B217408462360114665
:10510C00FFF7DAFD204610BDE8710D0000231A46AA
:10511C001946007CFFF788BD70B50C4686B0142587
:10512C0006462A46002101A801F065FF23788DF878
:10513C00083063680393E36804930022237A307C7D
:10514C00ADF8045001A90593FFF7BEFD06B070BD84
:10515C001FB500338DF800104FF06401039118BF98
:10516C000123694601928DF80830FFF7D5FF05B091
:10517C005DF804FB0123FFF7EBBF0022007CFFF777
:10518C005BBD0022007CFFF75FBD0121FFF7F9BF7B
:10519C000021007CFFF788BD704710B5182104462C
:1051AC0000F089FF204610BDF0B5037D062B8DB0B5
:1051BC000E4600F104074FF0000402D000F1080580
:1051CC0018E00CAD394605F8304D2F232A460A203D
:1051DC00FFF782FD284601F047FF33680246DB6883
:1051EC002946304698470FE024B12E21304600F076
:1051FC00D9F9044415F8011D0A22304600F0EBF9E8
:10520C00BD420444F0D120460DB0F0BD10B5054BA5
:10521C000446112240F8043B002101F0ECFE20462C
:10522C0010BD00BF10720D000346074A10B543F8BD
:10523C00042B01F1100251F8044B43F8044B91423A
:10524C00F9D10A781A7010BD10720D0010B59DF8C6
:10525C00084044EA032343EA024242EA0161042380
:10526C004160037510BD37B50D788B784A78C978D5
:10527C0000912946FFF7EAFF03B030BD014B024A0B
:10528C001A607047E8E303208F720D00002211466C
:10529C004068FFF75DBE002211464068FFF768BE0C
:1052AC0000224068FFF75CBE002281F001014068DB
:1052BC00FFF746BE00231A4601214068FFF738BEAF
:1052CC0000231A4619464068FFF72ABE00221146F1
:1052DC004068FFF71DBE002211464068FFF708BE6C
:1052EC00002202214068FFF70BBE00231A464068DB
:1052FC00FFF7F6BD38B5054688B104684CB1A36814
:10530C001BB103222146204698471021204600F06D
:10531C00D2FE28461421BDE8384000F0CCBE38BD82
:10532C0010B103685B681847704710B503680446F2
:10533C00BBB15868FFF700FC78B923685A7C12B9E6
:10534C005868FFF701FC23685868FFF705FC2068D4
:10535C000023236028B1FFF7CDFF206808B1FFF7C9
:10536C00C9FF204610BD38B50446D0F8C40108B1B9
:10537C00FEF78DFED4F8C00108B1FFF7FDFBD4F8A1
:10538C00BC5135B12846FFF7D0FF0421284600F068
:10539C0092FE206808B1FFF7C3FF204638BD00001D
:1053AC0010B5044B044640F8083BFFF7DCFF2046E1
:1053BC0010BD00BF08730D0038B50E4C0E4B2360AA
:1053CC000025022304F5E4706360A560C4F8C451A1
:1053DC00C4F8C851FFF7C8FB084BC4F8CC5184F88B
:1053EC00D05123602046064A0649BDE8384000F0FB
:1053FC005DBE00BFECE303203C730D0008730D0091
:10540C007CE20320AD530D0000231A464068FFF7E1
:10541C0067BD002202214068FFF772BD00221146D1
:10542C004068FFF765BD002211464068FFF770BD6C
:10543C0000231A4619464068FFF772BD00231A462E
:10544C0019464068FFF774BD002281F001014068E5
:10545C00FFF776BD00224068FFF782BD002211469F
:10546C004068FFF785BD002211464068FFF770BD0C
:10547C002DE9F043002495B016460D460746FFF77C
:10548C00C5FE214620220CA8009401F0B4FD402357
:10549C000C9321466B460CAA3046FFF72DFC0446B4
:1054AC00002844D1024601216868FFF731FD022132
:1054BC00804622466868FFF72BFD009E81462146F8
:1054CC00002E34D0002932D17368022B02D00A2B63
:1054DC0009D02AE0B8F1000F27D0716938460431A1
:1054EC00FFF7C1FE20E0B9F1000F1ED07469112244
:1054FC0001A801F080FD06238DF8143001AD04F1F4
:10550C0008031834186859682A4603C20833A342A2
:10551C001546F7D101A906A807ADFFF785FE0FCDFB
:10552C003C1D0FC42B6823700121F669C8E7009855
:10553C00FFF7DAFB384615B0BDE8F083024B034A9F
:10554C001A6000225A607047C0E503203C730D00BE
:10555C00F8B506460D468F180024BD420CD03368B2
:10556C0015F8011B9B6830469847002801DB044462
:10557C00F3E7002C08BF04462046F8BD70B505467D
:10558C000C46084649B101F06FFD2B6802462146D6
:10559C002846DB68BDE87040184770BD08B5FFF7BA
:1055AC00EDFF08BD03689B68184738B50D2105460B
:1055BC00FFF7F8FF0A2104462846FFF7F3FF2044C3
:1055CC0038BD38B50546FFF7D9FF04462846FFF726
:1055DC00ECFF204438BD30B58BB00B4600218DF864
:1055EC002410012A98BF0A220DF12304B3FBF2F513
:1055FC0005FB123303F0FF03092B94BF3033373311
:10560C00DBB2214604F801392B46002DEED1FFF711
:10561C00B5FF0BB030BD0CB42DE9F04387B000AF33
:10562C0007F13804054654F8049B3C600E462346AB
:10563C004A461421381DFFF7BBFC132805D8391D29
:10564C002846FFF79BFF044613E000F1080323F004
:10565C000703E846ADEB030D411C23464A4668465A
:10566C003C60FFF7A5FC69462846FFF787FF044618
:10567C00C5461EB12846FFF798FF044420461C3748
:10568C00BD46BDE8F04302B0704710B50446FFF7C5
:10569C00B7FC204610BD00000348044A044900230F
:1056AC00836000F003BD00BFC8E503207CE203204B
:1056BC0097560D000021FFF757BB0021FFF75CBB8D
:1056CC0010B5044601700846FFF72EFB00236360FB
:1056DC00204610BD10B504460078FFF7EBFF48B923
:1056EC0020784FF6FF71FFF70FFB2078BDE81040D4
:1056FC00FFF7E3BF10BD0078FFF7DFBF400830B500
:10570C001860002418688842E5B206D90134082CC8
:10571C0002D040081860F5E70725024B5B5D13705B
:10572C0030BD00BF68730D002DE9F04307468FB004
:10573C0000780E46FFF7BEFF002862DB3C7814228F
:10574C00002109A801F057FC0B232046002209A9CF
:10575C00ADF82430FFF7F8FA9DF82D4054B19DF8C0
:10576C002C5035B9DDF830809DF834909DF83540DB
:10577C0003E00024A146A0460125337905B1BBB94D
:10578C009D420BD1B268424508D18DF820908DF81E
:10579C002140BDF82010B289914209D053B10024A8
:1057AC00387801940094234622460121FFF7D4FA5D
:1057BC00002026E08DF80F30B1680A9804AB0DF18B
:1057CC000F02FFF79BFF317905B1B1B9A94208D09F
:1057DC00002438780194747B337B9DF80F2000945F
:1057EC00E4E7B3684345F3D38DF820908DF821405E
:1057FC00BDF82020B3899A42EAD1049B4345E7D1F6
:10580C00D6E70FB0BDE8F08308B50078FFF784FA4F
:10581C00C0B208BD0078FFF78FBA00002DE9F14F38
:10582C0059EC108B07460E460022002310EE100A8E
:10583C00494601F0CFF928B109F1004399462D23CF
:10584C0033700136002301240A22D9B28F4202D9C7
:10585C0054430133F9E7204600F0E4FE42464B4640
:10586C0000F046FF82468B4601F014FA80468946CA
:10587C0000F008FF02460B465046594600F084FDE6
:10588C000022174B01F0BAF918B118F1010849F1CF
:10589C000009E51722462B464046494601F0E2F93D
:1058AC0001230A22314600F076FAAFB1304601F0FE
:1058BC00DBFB2E2333540130064422462B46404654
:1058CC00494601F0CFF93B46104631460A2201B059
:1058DC00BDE8F04F00F05FBA01B0BDE8F08F00BF3B
:1058EC000000E03F10B504460068FFF751FB20466E
:1058FC0010BD10B50446006808B1FFF749FB002342
:10590C002360A360636010BD38B504460D46006883
:10591C000131FFF745FB10B184E82100012038BDAF
:10592C0010B50368044613B143688B4207D2204676
:10593C00FFF7EAFF20B1A3680BB9226813700120AE
:10594C0010BD70B50E46114604461546FFF7E8FF2C
:10595C0018B92046FFF7CDFF09E02A463146A5606D
:10596C00206801F03DFB2268A3680021D154204639
:10597C0070BD38B500230446036043608360037335
:10598C000D4639B1084601F06FFB29460246204608
:10599C00FFF7D7FF204638BD38B5054600680C46E2
:1059AC0060B16A688B689A4206D3096801F054FBAF
:1059BC00A368AB6000230AE0FFF7EAFA23682B60C8
:1059CC0063686B60A368AB60002323606360A360B3
:1059DC0038BD884210B50B46044607D0096819B18A
:1059EC009A68FFF7AEFF01E0FFF783FF204610BD7A
:1059FC0010B5002304460360436083600373FFF714
:105A0C00E8FF204610BD884210B5044601D0FFF7D0
:105A1C00C3FF204610BD38B505460C4641B10846BB
:105A2C0001F022FB214602462846FFF78AFF01E0DF
:105A3C00FFF75FFF284638BD30B500238BB00360FD
:105A4C00436083600373044610EE100ACDB200F07D
:105A5C00FBFD41EC100B01A92846FFF7DFFE01A965
:105A6C002046FFF7D8FF20460BB030BD70B50E4670
:105A7C009AB191B185689D4202D800230B7070BD1C
:105A8C00541EED1A0168AC4228BF2C46194422461C
:105A9C00304601F0F1FA0023335570BD10B5094CB6
:105AAC0000204FF6FF732060A080A07120816381DD
:105ABC00FFF7E2F92046044A0449BDE8104000F023
:105ACC00F5BA00BFD8E503207CE2032031410D007C
:105ADC00024B1A68024B1A60704700BF14E2032095
:105AEC00E4E5032070474174704708B5007CFFF76C
:105AFC0083F920EAE07008BD08B5007CFFF754F983
:105B0C0020EAE07008BD08B5007CFFF75DF930EACB
:105B1C00200028BF4FF0FF3008BD08B5007CFFF710
:105B2C004BF930EA200028BF4FF0FF3008BD007C55
:105B3C00FFF752B910B51421044600F0BCFA204608
:105B4C0010BD70B5457C04460E4625B9007CFFF7A8
:105B5C0053F9002805DD3146207CBDE87040FFF785
:105B6C001BB9284670BD000010B504460846114606
:105B7C00002262604FF47A72A260054A2260012210
:105B8C00207462741A46FFF7FFF8204610BD00BF60
:105B9C00A4730D00007CFFF727B9000038B50C4D3D
:105BAC00296811F0010411D12846FEF772FA68B188
:105BBC00084A094B09482146FFF7D6FF2846FEF74D
:105BCC006DFA074A0749054800F070FA034838BDDA
:105BDC0080E6032084E60320FCE50320E8E50320AF
:105BEC007CE20320F15A0D0041747047704708B5F0
:105BFC000021007CFFF728F930EA200028BF4FF085
:105C0C00FF3008BD08B50121007CFFF71DF930EA13
:105C1C00200028BF4FF0FF3008BD08B5007CFFF70F
:105C2C000BF920EAE07008BD08B5007CFFF7FCF822
:105C3C0020EAE07008BD007CFFF716B910B51421FE
:105C4C00044600F038FA204610BD38B50446007CF6
:105C5C000D46FFF7F1F8002801DC607C28B12946DD
:105C6C00207CFFF7F9F820EAE07038BD10B5044647
:105C7C00002363604FF47A73A360054B2360012308
:105C8C000846217463741146FFF7BEF8204610BD18
:105C9C00D4730D000022007CFFF7BEB810B514229F
:105CAC000446002101F0A7F9204610BD30B50E4D79
:105CBC0087B001A8FFF7F2FF296811F0010410D199
:105CCC002846FEF7E6F960B101AA21460748FFF71E
:105CDC00CDFF2846FEF7E2F9054A0649034800F0D5
:105CEC00E5F9024807B030BD08E703200CE70320B4
:105CFC007CE20320F95B0D00002211464068FFF79F
:105D0C0007B9002211464068FFF722B9002211465C
:105D1C004068FFF72DB900224068FFF721B9002237
:105D2C0081F001014068FFF70BB900231A461946B0
:105D3C004068FFF7FDB800231A4619464068FFF784
:105D4C00EFB8002211464068FFF7D2B800220221BA
:105D5C004068FFF7D5B800231A464068FFF7C0B873
:105D6C00024B04225A60024A1A60704720E7032053
:105D7C0004740D0010B5044601F076F901382318AF
:105D8C002046984206D20278197800F8011B03F8D5
:105D9C000129F6E710BD70B50C46911E222920D8BA
:105DAC002546294610B9234430220EE0B0FBF2F60A
:105DBC0002FB1600C1B205F8011B092894BF303153
:105DCC00573105F8011C3046EBE7994202D201F835
:105DDC00012BFAE7002320460B70FFF7CBFF204680
:105DEC0070BD002070BD000008B50C4B33B1FFF73F
:105DFC005DFF03681B699847002809DC084B63B1F9
:105E0C00FFF7CCFE03681B699847002803DC08BD2C
:105E1C00AFF30080F2E7AFF3008008BD0000000094
:105E2C000000000008B5FFF7DFFFFEF7B5FE014BE1
:105E3C00186008BD30E703200248034A0349121AD0
:105E4C0001F0CEB800F4032004F40320E8740D0034
:105E5C0007B5002300931A466FF07701FFF72EF871
:105E6C0003B05DF804FB000007B543880A2B08D08B
:105E7C00502B09D1094B1B683BB103B05DF804EB07
:105E8C001847FFF7E5FF06E0002300931A466FF072
:105E9C007701FFF713F803B05DF804FB28E7032044
:105EAC0038B5104C104D2368AB42104B0CBF01227F
:105EBC0000221A7002D0FFF7BFFF2560FEF764FEC8
:105ECC00044601F0A1F80A4B13B12046AFF3008051
:105EDC0000210748FEF7FCFF00210648BDE83840CA
:105EEC00FEF7E2BF00F403201E1C279A2CE70320C8
:105EFC0000000000755E0D0070B5184E316811F091
:105F0C00010504460AD13046FEF7C3F830B12946E4
:105F1C001348FFF7D5FB3046FEF7C0F81048FFF7E3
:105F2C0079FC28B1A4F10B03022B01D8002070BD21
:105F3C0000F096F8FFF72CF908B1012CF6D9FFF711
:105F4C002DFEFFF727FE18B1A4F10903012BEDD9A3
:105F5C00232C8CBF0020012070BD00BFCCE303209C
:105F6C00D0E30320232838B504460D460AD8FF2970
:105F7C0008D0FFF7C1FF28B129462046BDE83840BC
:105F8C00FEF722BE38BD38B504460D46FEF724FE9A
:105F9C00FF2810D0062804D84D2323FA00F0C3079D
:105FAC0009D42046FFF7A8FF28B129462046BDE8B2
:105FBC003840FEF719BE38BD10B50446FEF70CFE8E
:105FCC000438C0B2012808D92046FFF795FF20B14C
:105FDC002046BDE81040FEF70FBE002010BD38B5BE
:105FEC0004460D46FFF788FFF0B104212046FEF76A
:105FFC00E3FD042805D1A9B22046BDE83840FEF7E0
:10600C0003BE02212046FEF7D7FD02280CD1204604
:10601C00FEF7E2FD012801D0042805D129462046CF
:10602C00BDE83840FEF7F8BD38BD000070B5044639
:10603C0014252A46094E002100F0DDFF258020257D
:10604C003146A5602561284600F04FF83146606066
:10605C00284600F04AF8E060204670BD30740D0010
:10606C0030B50E4D296811F0010487B013D12846C4
:10607C00FEF70FF878B101A8FFF7D8FF01AA214667
:10608C000748FFF731F82846FEF708F8054A064995
:10609C00034800F00BF8024807B030BD34E703208A
:1060AC0038E703207CE203209D500D000B4601468F
:1060BC00184600F087BFFDF7E8BF0000024B1868D8
:1060CC00BFF35F8F704700BF4CE7032010B500286B
:1060DC0014BF044601242046FEF752FF20B9FFF7F7
:1060EC00EDFF08B18047F6E710BDFFF7EFBF0000EA
:1060FC00244B1A68D0075CBF01221A60224B1A6825
:10610C00D1075CBF01221A60204B1A68D2075CBF12
:10611C0001221A601E4B1A68D0075CBF01221A605C
:10612C001C4B1A68D1075CBF01221A601A4B1A6803
:10613C00D2075CBF01221A60184B1A68D0075CBFEB
:10614C0001221A60164B1A68D1075CBF01221A6033
:10615C00144B1A68D2075CBF01221A60124B1A68E2
:10616C00D0075CBF01221A60104B1A68D1075CBFC4
:10617C0001221A600E4B1A68D2075CBF01221A600A
:10618C00704700BF7CE7032078E7032074E7032007
:10619C0070E703206CE7032068E7032064E7032023
:1061AC0060E703205CE7032058E7032054E7032053
:1061BC0050E70320184B1A68D1075CBF01221A6004
:1061CC00164B1A68D2075CBF01221A60144B1A686E
:1061DC00D0075CBF01221A60124B1A68D1075CBF52
:1061EC0001221A60104B1A68D2075CBF01221A6098
:1061FC000E4B1A68D0075CBF01221A600C4B1A6850
:10620C00D1075CBF01221A600A4B1A68D2075CBF27
:10621C0001221A60704700BF9CE7032098E7032017
:10622C0094E7032090E703208CE7032088E7032002
:10623C0084E7032080E70320184B1A68D1075CBF62
:10624C0001221A60164B1A68D2075CBF01221A6031
:10625C00144B1A68D0075CBF01221A60124B1A68E3
:10626C00D1075CBF01221A60104B1A68D2075CBFC1
:10627C0001221A600E4B1A68D0075CBF01221A600B
:10628C000C4B1A68D1075CBF01221A600A4B1A68C2
:10629C00D2075CBF01221A60704700BFBCE7032025
:1062AC00B8E70320B4E70320B0E70320ACE70320F2
:1062BC00A8E70320A4E70320A0E70320244B1A68D7
:1062CC00D0075CBF01221A60224B1A68D1075CBF51
:1062DC0001221A60204B1A68D2075CBF01221A6097
:1062EC001E4B1A68D0075CBF01221A601C4B1A683F
:1062FC00D1075CBF01221A601A4B1A68D2075CBF27
:10630C0001221A60184B1A68D0075CBF01221A6070
:10631C00164B1A68D1075CBF01221A60144B1A681D
:10632C00D2075CBF01221A60124B1A68D0075CBFFF
:10633C0001221A60104B1A68D1075CBF01221A6047
:10634C000E4B1A68D2075CBF01221A60704700BF5F
:10635C00ECE70320E8E70320E4E70320E0E7032071
:10636C00DCE70320D8E70320D4E70320D0E70320A1
:10637C00CCE70320C8E70320C4E70320C0E70320D1
:10638C0081F0004102E000BF83F0004330B54FEADA
:10639C0041044FEA430594EA050F08BF90EA020F47
:1063AC001FBF54EA000C55EA020C7FEA645C7FEADA
:1063BC00655C00F0E2804FEA5454D4EB5555B8BFFD
:1063CC006D420CDD2C4480EA020281EA030382EA6E
:1063DC00000083EA010180EA020281EA0303362D00
:1063EC0088BF30BD11F0004F4FEA01314FF4801CD3
:1063FC004CEA113102D0404261EB410113F0004FE5
:10640C004FEA03334CEA133302D0524263EB43039B
:10641C0094EA050F00F0A780A4F10104D5F1200E39
:10642C000DDB02FA0EFC22FA05F2801841F1000194
:10643C0003FA0EF2801843FA05F359410EE0A5F168
:10644C0020050EF1200E012A03FA0EFC28BF4CF099
:10645C00020C43FA05F3C01851EBE37101F000454F
:10646C0007D54FF0000EDCF1000C7EEB00006EEB5C
:10647C000101B1F5801F1BD3B1F5001F0CD34908E6
:10648C005FEA30004FEA3C0C04F101044FEA44523D
:10649C0012F5800F80F09A80BCF1004F08BF5FEAC4
:1064AC00500C50F1000041EB045141EA050130BDA4
:1064BC005FEA4C0C404141EB010111F4801FA4F147
:1064CC000104E9D191F0000F04BF01460020B1FA9C
:1064DC0081F308BF2033A3F10B03B3F120020CDAD4
:1064EC000C3208DD02F1140CC2F10C0201FA0CF0B2
:1064FC0021FA02F10CE002F11402D8BFC2F1200C17
:10650C0001FA02F120FA0CFCDCBF41EA0C019040CC
:10651C00E41AA2BF01EB0451294330BD6FEA040415
:10652C001F3C1CDA0C340EDC04F11404C4F1200200
:10653C0020FA04F001FA02F340EA030021FA04F312
:10654C0045EA030130BDC4F10C04C4F1200220FA69
:10655C0002F001FA04F340EA0300294630BD21FAA7
:10656C0004F0294630BD94F0000F83F4801306BF6D
:10657C0081F480110134013D4EE77FEA645C18BF61
:10658C007FEA655C29D094EA050F08BF90EA020FF8
:10659C0005D054EA000C04BF1946104630BD91EAF0
:1065AC00030F1EBF0021002030BD5FEA545C05D1F3
:1065BC004000494128BF41F0004130BD14F5800432
:1065CC003CBF01F5801130BD01F0004545F0FE41A6
:1065DC0041F470014FF0000030BD7FEA645C1ABFDB
:1065EC00194610467FEA655C1CBF0B46024650EA12
:1065FC00013406BF52EA033591EA030F41F400213E
:10660C0030BD00BF90F0000F04BF0021704730B5C3
:10661C004FF4806404F132044FF000054FF0000198
:10662C0050E700BF90F0000F04BF0021704730B559
:10663C004FF4806404F1320410F0004548BF40422E
:10664C004FF000013EE700BF42004FEAE2014FEA83
:10665C0031014FEA02701FBF12F07F4393F07F4F5E
:10666C0081F06051704792F0000F14BF93F07F4F90
:10667C00704730B54FF4607401F0004521F00041D3
:10668C0020E700BF50EA010208BF704730B54FF059
:10669C0000050AE050EA010208BF704730B511F05E
:1066AC00004502D5404261EB41014FF4806404F196
:1066BC0032045FEA915C3FF4DCAE4FF003025FEA18
:1066CC00DC0C18BF03325FEADC0C18BF033202EBA0
:1066DC00DC02C2F1200300FA03FC20FA02F001FAFA
:1066EC0003FE40EA0E0021FA02F11444C1E600BF99
:1066FC0070B54FF0FF0C4CF4E06C1CEA11541DBF4C
:10670C001CEA135594EA0C0F95EA0C0F00F0DEF816
:10671C002C4481EA030621EA4C5123EA4C5350EAFB
:10672C00013518BF52EA033541F4801143F480134C
:10673C0038D0A0FB02CE4FF00005E1FB02E506F0DD
:10674C000042E0FB03E54FF00006E1FB03569CF032
:10675C00000F18BF4EF0010EA4F1FF04B6F5007F38
:10676C0064F5407404D25FEA4E0E6D4146EB0606AA
:10677C0042EAC62141EA55514FEAC52040EA5E5033
:10678C004FEACE2EB4F1FD0C88BFBCF5E06F1ED8DD
:10679C00BEF1004F08BF5FEA500E50F1000041EB14
:1067AC00045170BD06F0004646EA010140EA0200C1
:1067BC0081EA0301B4EB5C04C2BFD4EB0C0541EAE3
:1067CC00045170BD41F480114FF0000E013C00F3F8
:1067DC00AB8014F1360FDEBF002001F0004170BD1C
:1067EC00C4F10004203C35DA0C341BDC04F1140435
:1067FC00C4F1200500FA05F320FA04F001FA05F2C1
:10680C0040EA020001F0004221F0004110EBD3708D
:10681C0021FA04F642EB06015EEA430E08BF20EAB9
:10682C00D37070BDC4F10C04C4F1200500FA04F35C
:10683C0020FA05F001FA04F240EA020001F00041EE
:10684C0010EBD37041F100015EEA430E08BF20EA61
:10685C00D37070BDC4F1200500FA05F24EEA020EA9
:10686C0020FA04F301FA05F243EA020321FA04F0D8
:10687C0001F0004121FA04F220EA020000EBD3708F
:10688C005EEA430E08BF20EAD37070BD94F0000F8F
:10689C000FD101F00046400041EB010111F4801FC3
:1068AC0008BF013CF7D041EA060195F0000F18BF74
:1068BC00704703F00046520043EB030313F4801FB0
:1068CC0008BF013DF7D043EA0603704794EA0C0F6A
:1068DC000CEA135518BF95EA0C0F0CD050EA410680
:1068EC0018BF52EA4306D1D181EA030101F00041FD
:1068FC004FF0000070BD50EA410606BF1046194625
:10690C0052EA430619D094EA0C0F02D150EA013630
:10691C0013D195EA0C0F05D152EA03361CBF104671
:10692C0019460AD181EA030101F0004141F0FE4110
:10693C0041F470014FF0000070BD41F0FE4141F494
:10694C00780170BD70B54FF0FF0C4CF4E06C1CEA94
:10695C0011541DBF1CEA135594EA0C0F95EA0C0F49
:10696C0000F0A7F8A4EB050481EA030E52EA033504
:10697C004FEA013100F088804FEA03334FF0805525
:10698C0045EA131343EA12634FEA022245EA111552
:10699C0045EA10654FEA00260EF000419D4208BF03
:1069AC00964244F1FD0404F5407402D25B084FEAB0
:1069BC003202B61A65EB03055B084FEA32024FF45C
:1069CC0080104FF4002CB6EB020E75EB030E22BFB9
:1069DC00B61A754640EA0C005B084FEA3202B6EB79
:1069EC00020E75EB030E22BFB61A754640EA5C0028
:1069FC005B084FEA3202B6EB020E75EB030E22BFB8
:106A0C00B61A754640EA9C005B084FEA3202B6EBB8
:106A1C00020E75EB030E22BFB61A754640EADC0077
:106A2C0055EA060E18D04FEA051545EA16754FEAD9
:106A3C0006164FEAC30343EA52734FEAC2025FEAF7
:106A4C001C1CC0D111F4801F0BD141EA00014FF086
:106A5C0000004FF0004CB6E711F4801F04BF014357
:106A6C000020B4F1FD0C88BFBCF5E06F3FF6AFAE73
:106A7C00B5EB030C04BFB6EB020C5FEA500C50F103
:106A8C00000041EB045170BD0EF0004E4EEA113186
:106A9C0014EB5C04C2BFD4EB0C0541EA045170BD8D
:106AAC0041F480114FF0000E013C90E645EA060ED1
:106ABC008DE60CEA135594EA0C0F08BF95EA0C0FFF
:106ACC003FF43BAF94EA0C0F0AD150EA01347FF447
:106ADC0034AF95EA0C0F7FF425AF104619462CE71E
:106AEC0095EA0C0F06D152EA03353FF4FDAE104681
:106AFC00194622E750EA410618BF52EA43067FF4D2
:106B0C00C5AE50EA41047FF40DAF52EA43057FF461
:106B1C00EBAE12E74FF0FF3C06E000BF4FF0010C6C
:106B2C0002E000BF4FF0010C4DF804CD4FEA410CD0
:106B3C007FEA6C5C4FEA430C18BF7FEA6C5C1BD09D
:106B4C0001B050EA410C0CBF52EA430C91EA030F1E
:106B5C0002BF90EA020F0020704710F1000F91EA7B
:106B6C00030F58BF994208BF90422CBFD8176FEA49
:106B7C00E37040F0010070474FEA410C7FEA6C5C17
:106B8C0002D150EA013C07D14FEA430C7FEA6C5C1E
:106B9C00D6D152EA033CD3D05DF8040B704700BF4A
:106BAC008446104662468C461946634600E000BF98
:106BBC0001B5FFF7B7FF002848BF10F1000F01BD6A
:106BCC004DF808EDFFF7F4FF0CBF012000205DF835
:106BDC0008FB00BF4DF808EDFFF7EAFF34BF0120BA
:106BEC0000205DF808FB00BF4DF808EDFFF7E0FF53
:106BFC0094BF012000205DF808FB00BF4DF808EDA4
:106C0C00FFF7CEFF94BF012000205DF808FB00BF0A
:106C1C004DF808EDFFF7C4FF34BF012000205DF8EC
:106C2C0008FB00BF4A0011D212F5001211D20DD58B
:106C3C006FF47873B3EB62520ED44FEAC12343F076
:106C4C00004343EA505323FA02F070474FF0000020
:106C5C00704750EA013002D14FF0FF3070474FF0CF
:106C6C000000704753B94AB9002908BF00281CBF5F
:106C7C004FF0FF314FF0FF3000F0A2B9ADF1080C2E
:106C8C006DE904CE00F02AF8DDF804E0DDE902231A
:106C9C0004B07047D0B500220E4B06460F46FFF7E6
:106CAC0027FDFFF7BFFF0446FFF7ACFC00220A4BA1
:106CBC00FFF71EFD02460B4630463946FFF764FBD4
:106CCC00FFF7B0FF2346002242EA000210461946A5
:106CDC00D0BD00BF0000F03D0000F0412DE9F047B1
:106CEC008C460E460446089D002B50D18A4217460E
:106CFC006CD9B2FA82FEBEF1000F0BD0CEF120049B
:106D0C0020FA04F401FA0EF644EA060C02FA0EF725
:106D1C0000FA0EF44FEA1749220CBCFBF9F01FFAEB
:106D2C0087F809FB10C642EA064600FB08F3B3429B
:106D3C0009D9F61900F1FF3280F02281B34240F2FA
:106D4C001F8102383E44F61AA2B2B6FBF9F309FBD6
:106D5C00136642EA064403FB08F8A04509D9E41976
:106D6C0003F1FF3280F00A81A04540F20781023B1B
:106D7C003C44C8EB040443EA00400021002D62D0DF
:106D8C0024FA0EF400232C606B60BDE8F0878B4274
:106D9C0007D9002D55D0002185E841000846BDE8F3
:106DAC00F087B3FA83F1002940F09080B34202D30C
:106DBC00824200F2F880841A66EB03060120B44686
:106DCC00002D40D085E81010BDE8F08712B90127DE
:106DDC00B7FBF2F7B7FA87FEBEF1000F35D1F31B04
:106DEC004FEA17481FFA87FC0121B3FBF8F0220C7D
:106DFC0008FB103642EA06460CFB00F3B34207D9F7
:106E0C00F61900F1FF3202D2B34200F2CE801046E6
:106E1C00F61AA2B2B6FBF8F308FB136642EA064474
:106E2C000CFB03FCA44507D9E41903F1FF3202D291
:106E3C00A44500F2B5801346CCEB040443EA0040B1
:106E4C009CE729462846BDE8F087CEF1200106FADA
:106E5C000EF307FA0EF720FA01F94FEA1748CE4065
:106E6C0049EA0309B6FBF8FA4FEA194408FB1A661B
:106E7C001FFA87FC44EA06430AFB0CF29A4200FA1A
:106E8C000EF40AD9DB190AF1FF3180F087809A429F
:106E9C0040F28480AAF1020A3B449B1A1FFA89F93A
:106EAC00B3FBF8F108FB113349EA034301FB0CF681
:106EBC009E4207D9DB1901F1FF326BD29E4269D990
:106ECC0002393B449B1B41EA0A418EE7C1F1200E7B
:106EDC0022FA0EF48B40234320FA0EF706FA01F443
:106EEC004FEA134C26FA0EF63C43B6FBFCF9270C82
:106EFC000CFB19661FFA83F847EA064609FB08F7EC
:106F0C00B74202FA01F200FA01FA08D9F61809F1AF
:106F1C00FF3041D2B7423FD9A9F102091E44F61BFA
:106F2C00A0B2B6FBFCF40CFB146640EA064704FB6B
:106F3C0008F8B84507D9FF1804F1FF3028D2B84536
:106F4C0026D9023C1F4444EA0940C8EB0707A0FBC2
:106F5C0002894F4544464E4614D329D065B3BAEB4B
:106F6C00040367EB060707FA0EFECB40CF404EEA50
:106F7C00030385E888000021BDE8F0871346F8E696
:106F8C001046E0E6B8EB020469EB03060138E5E7CE
:106F9C000446D8E7114695E78146C0E78A467CE768
:106FAC00023B3C4448E708460AE702383E442FE7D8
:106FBC00C245E7D33E46D1E72946BDE8F08700BF7E
:106FCC00704700BF10B5054C13462CB10A4601465C
:106FDC000220AFF3008010BD204610BD0000000061
:106FEC0010B5431E0A44914204D011F8014B03F82A
:106FFC00014FF8E710BD02440346934202D003F858
:10700C00011BFAE77047000038B5124B1C68A36BE4
:10701C000546D3B91820FDF7B3FF43F20E33A06336
:10702C0003804AF6CD33438041F2342383804EF201
:10703C006D63C3804DF6EC630381052343810B2301
:10704C00838101220023C0E90423A36B00221D616C
:10705C005A6138BD78E20320034611F8012B03F87E
:10706C00012B002AF9D17047034613F8012B002A93
:10707C00FBD1181A0138704710B5034642B111F80C
:10708C00014B03F8014B013A002CF7D11A4400E0F4
:10709C0010BD934202D003F8014BFAE710BD00007B
:1070AC001D400D0059400D0085400D0089400D001C
:1070BC0000000000427574746F6E2031206C6F6E8E
:1070CC006750726573732073746F700042757474BB
:1070DC006F6E2031206C6F6E675072657373207306
:1070EC00746172740054656D70657261747572654B
:1070FC003A2025660A0053797374656D20526561D8
:10710C0064792E2E2E0A005A65726F20004F6E6520
:10711C00200054656D70657261747572653A202536
:10712C002E32660A0074656D705F61727261793A15
:10713C0020257820646174613A20256920693A2001
:10714C002569206E3A2025690A0000000000000025
:10715C000000000009440D0064656661756C7420C4
:10716C00004D5342004C5342003C535049536574FC
:10717C0074696E67732064656661756C743E003C5F
:10718C0053504953657474696E6773202573256C6D
:10719C0075202573204D4F444525643E00000000AA
:1071AC0000000000000000007D500D0073500D0029
:1071BC0069500D005F500D0053500D0047500D00ED
:1071CC003B500D0033500D0029500D001F500D0089
:1071DC007D540D0000000000000000009D500D00CB
:1071EC00E7500D00BF500D009F500D00C7500D0013
:1071FC00CF500D00D7500D00DF500D0000000000E7
:10720C0000000000B5510D00A5510D00A7510D0057
:10721C00626175640053657269616C0053657269D3
:10722C00616C31007479706500706172616D00631E
:10723C006D6400696400686E64007374726D00663E
:10724C00696C74006C766C0061646448616E646C8B
:10725C0065720072656D6F766548616E646C6572FF
:10726C0000656E756D48616E646C657273004A538F
:10727C004F4E53747265616D4C6F6748616E646CF0
:10728C0065720061707000253031307520005D2012
:10729C00002564002C200028293A2000205B006384
:1072AC006F6465203D200025690064657461696C1C
:1072BC0073203D20000D0A0066006C6E00666E00A7
:1072CC00636F64650064657461696C006E6F6E65F4
:1072DC0000747261636500696E666F007761726E2F
:1072EC00006572726F720070616E696300616C6C24
:1072FC00000000000000000000000000F7520D002C
:10730C00ED520D00E3520D00D9520D00CD520D007F
:10731C00C1520D00B5520D00AD520D00A3520D001F
:10732C0099520D007D540D0000000000000000007B
:10733C0015540D001F540D0029540D0033540D002D
:10734C003D540D0049540D0055540D0061540D0071
:10735C0069540D0073540D007D540D000008101875
:10736C00202830385A00252B3033643A25303275BA
:10737C000025592D256D2D25645425483A254D3A67
:10738C002553257A0061736374696D6500000000F4
:10739C000000000000000000F15A0D00415B0D00E0
:1073AC004F5B0D005D550D00055B0D00275B0D005F
:1073BC00135B0D003B5B0D00F35A0D00F75A0D00EB
:1073CC000000000000000000F95B0D00495C0D009E
:1073DC00575C0D005D550D00355C0D00FB5B0D0021
:1073EC00115C0D00435C0D00275C0D00F55B0D007E
:1073FC000000000000000000635D0D00595D0D00F1
:10740C004F5D0D00055D0D00435D0D00375D0D00FA
:10741C002B5D0D00235D0D00195D0D000F5D0D0042
:10742C007D540D0000000000000000000000000072
:10743C000000000000000000000000000000000040
:10744C000000000000000000000000000000000030
:10745C000000000000000000000000000000000020
:10746C000000000000000000000000000000000010
:10747C000000000000000000000000000000000000
:10748C000000000000000000430000007D430D00E0
:10749C00BF4A0D002D4B0D00314B0D00E54F0D007B
:1074AC0089500D0089520D00C5530D0049550D0032
:1074BC00A5560D00A95A0D00DD5A0D006D5D0D008D
:1074CC00FD600D00C1610D0045620D00C9620D002B
:0474DC0000000000AC
:0874E00008F8FF7F0100000025
:0474E80000000000A0
:1074EC000A000000640000003200000091730D00DF
:1074FC000000000034740D0054740D0074740D0001
:10750C00000000000000000000000000000000006F
:10751C0094740D000000000000000000000000004A
:10752C00000000000000000000000000000000004F
:10753C00000000000000000000000000000000003F
:10754C00000000000000000000000000000000002F
:04755C0018E203200E
:10756000FFFFFFFF00000102030405060708090AE8
:107570000B0C0D0E0F101112131415161718191AE3
:087580001B1C1D1E1F2028002A
:0475880078563412EB
:04000003D000401CCD
:00000001FF
